:020000040800F2
:100000006025002089010008815300088D45000803
:100010007D530008ED040008E55A000800000000C8
:1000200000000000000000000000000091560008E1
:100030005D050008000000009153000821580008E9
:10004000A3010008A3010008A30100080955000846
:10005000A3010008A3010008A3010008A3010008F0
:10006000A3010008A3010008A30100080D05000872
:100070001D0500082D050008A3010008A3010008C4
:100080003D0500084D050008A3010008A301000874
:10009000A3010008A3010008A301000861050008EE
:1000A000A3010008A3010008A3010008A3010008A0
:1000B000A3010008F1580008A3010008A1450008A9
:1000C00091450008A3010008A3010008A30100084E
:1000D000A3010008A3010008A3010008D55A0008E5
:1000E000A3010008A3010008A301000800F002F822
:1000F00000F03AF80AA090E8000C82448344AAF188
:100100000107DA4501D100F02FF8AFF2090EBAE885
:100110000F0013F0010F18BFFB1A43F0010318473B
:10012000E484000004850000103A24BF78C878C138
:10013000FAD8520724BF30C830C144BF04680C60ED
:10014000704700000023002400250026103A28BF35
:1001500078C1FBD8520728BF30C148BF0B60704739
:100160001FB51FBD10B510BD00F0DDF81146FFF73B
:10017000F7FF05F09BFD00F0FBF803B4FFF7F2FF7B
:1001800003BC00F0FFF80000094880470948004719
:10019000FEE7FEE7FEE7FEE7FEE7FEE7FEE7FEE737
:1001A000FEE7FEE704480549054A064B7047000094
:1001B000ED580008ED000008601F002060250020B9
:1001C0006021002060210020032A40F2308010F0DE
:1001D000030C00F0158011F8013BBCF1020F6244E2
:1001E00098BF11F801CB00F8013B38BF11F8013B73
:1001F000A2F1040298BF00F801CB38BF00F8013B20
:1002000011F0030300F05780083AC0F0088051F85D
:10021000043B083A51F804CBA0E80810F5E7121D9A
:100220005CBF51F8043B40F8043BAFF30080D207B9
:1002300024BF11F8013B11F801CB48BF11F8012B85
:1002400024BF00F8013B00F801CB48BF00F8012BA8
:10025000704702F0FF0343EA032242EA024200F041
:1002600002B84FF0000200B5134694469646203976
:1002700022BFA0E80C50A0E80C50B1F12001BFF45F
:10028000F7AF090728BFA0E80C5048BF0CC05DF8C5
:1002900004EB890028BF40F8042B08BF704748BF13
:1002A00020F8022B11F0804F18BF00F8012B704787
:1002B00070477047704710B5203AC0F00B80B1E826
:1002C0001850A0E81850B1E81850A0E81850203A8B
:1002D000BFF4F5AF5FEA027C24BFB1E81850A0E894
:1002E000185044BF18C918C0BDE810405FEA827CAE
:1002F00024BF51F8043B40F8043B08BF7047D207C5
:1003000028BF31F8023B48BF11F8012B28BF20F865
:10031000023B48BF00F8012B7047000000487047BF
:100320001800002070477546FFF7F8FFAE4605003D
:100330006946534620F00700854618B020B5FFF700
:1003400031FFBDE820404FF000064FF000074FF0AE
:1003500000084FF0000BAC46ACE8C009ACE8C0099F
:10036000ACE8C009ACE8C00921F007018D46704730
:1003700010B50446AFF300802046BDE81040FFF7FB
:10038000FCBE000001491820ABBEFEE726000200BB
:10039000B0B5044600688168C90709D0816821F0BA
:1003A0000101816001F02EF821688968C90701D137
:1003B0000020B0BD054603E020688068C007F7D084
:1003C00001F020F8401B0328F6D320688068C0079E
:1003D000F2D0A06A40F01000A062E06A40F0010094
:1003E000E0620120B0BD00000146406A826A12F05E
:1003F000500F03D0006A026B084610470168826AFA
:1004000042F400728262896801F46021B1F5602FC4
:1004100001D1017B09B100F0B3B9816A21F4807187
:100420008162816AC90448BF00F0AAB9816A41F0BB
:100430000101816200F0A4B9406A816A41F0400183
:100440008162C16A41F00401C16200F003BA000098
:10045000406A00F0FDB90000B0B582B0044600204B
:10046000019021688A68D2073DD1886840F0010078
:10047000886040F20000C2F2000000684DF683611F
:10048000C4F21B31A0FB0101880C00BF0190019850
:1004900010B101980138F9E700F0B4FF21688968CC
:1004A000C9071CD1054603E020688068C00719D140
:1004B00000F0A8FF401B0328F6D320688068C0071F
:1004C000F2D1A06A40F01000A062E06A40F00100A2
:1004D000E062002084F82400012002B0B0BD0020BA
:1004E00002B0B0BD002002B0B0BD0000FFE7FEE7E3
:1004F00080B582B0019041F20000C4F201004FF4D7
:10050000005100F071FF02B080BD000080B540F2E4
:10051000C870C2F2000000F06FFC80BD80B540F6EC
:10052000D800C2F2000000F067FC80BD80B540F644
:100530009400C2F2000000F05FFC80BD80B540F680
:100540005000C2F2000000F057FC80BD80B540F6BC
:100550000C00C2F2000000F04FFC80BD70470000AC
:1005600080B5202000F034FE4FF4007000F030FE23
:1005700080BD000081B0EFF3108072B60090FFE7FD
:10058000FEE7000070B582B004460020019094F8A8
:100590002400012801D1022566E0012084F824000E
:1005A0002046FFF7F5FE2046FFF756FF05460028D8
:1005B00057D1A06A41F2021188430230A06240F292
:1005C0000000C2F200000668022002F039F9B6FB12
:1005D000F0F040000190019810B101980138F9E75E
:1005E0002068816841F00801816000F00BFF2168FC
:1005F0008A6812070DD4886840F00400886000F013
:1006000001FF21688968490714D401206FF00301B4
:1006100023E0064604E000BF216888680007EAD5A9
:1006200000F0F0FE801B0B28F6D3206880680007DE
:10063000F2D50EE0064603E0206880684007E4D566
:1006400000F0E0FE801B0B28F6D32068806840078E
:10065000F2D5012510206FF01201A26A1140084363
:10066000A062002084F82400284602B070BD00007B
:10067000B0B581B00022009290F82420012A01D167
:10068000022179E04A680123062A02EB820C80F8F5
:10069000243005D8026802F1340E6FF004020AE03B
:1006A00003680C2A87BF03F12C0E6FF0400203F1A0
:1006B000300E6FF022026244DEF800C01F230C6887
:1006C00093402CEA030304FA02F21A43CEF8002006
:1006D000D1F800E002680EEB4E041023BEF1090FC2
:1006E00088BF1E3C88BF0C2352F803C007258968C9
:1006F000A5402CEA0505A1402943D1502EF0010167
:100700004FF0000C10294FF0000133D1016842F284
:100710000042C4F20102914205D0816A41F02001F9
:100720008162012126E09268120222D48A68BEF119
:10073000100F42F400028A601BD140F20001C2F2A5
:10074000000109684DF68362C4F21B32A1FB02125C
:10075000910C01EB810149000091009949B100BF62
:10076000009901390091009900294FF00001F7D15B
:1007700000E0002180F824C0084601B0B0BD0000B0
:1007800080B58CB00B900B98006842F20041C4F227
:100790000101884259D1FFE740F29470C2F2000093
:1007A00000F026FA01A82821FFF75BFD0020ADF834
:1007B0000200FFE7BDF80200272828DCFFE7002041
:1007C0008DF80100FFE79DF80100092818DCFFE71C
:1007D000BDF802009DF80120811840F27800C2F2B5
:1007E000000030F8113001A951F82200184441F8F6
:1007F0002200FFE79DF8010001308DF80100E2E7DB
:10080000FFE7BDF802000A30ADF80200D2E7002091
:100810008DF80000FFE79DF80000092814DCFFE7D1
:100820009DF8002001A850F82200800841F2D8115C
:10083000C2F2000101EB42018880FFE79DF8000051
:1008400001308DF80000E6E7FFE70CB080BD000046
:100850007047000070470000B0B5002846D004463D
:10086000806A30B90020E06284F82400204600F05D
:10087000A1F820688168C90709D0816821F00101C9
:10088000816000F0BFFD21688968C90730D1002070
:100890000121A36AA26A31B313F0100123D141F2FE
:1008A000021122EA01010231A162E169D4E90132B7
:1008B00041EA030C531EB3FA83F35D091346B2F504
:1008C000807F18BF2B02217D257B01294CEA450E34
:1008D00031D13DB3A56A45F02005A562E56A45F032
:1008E0000105E56227E042F01000A0620120B0BDE2
:1008F000054603E020688068C007C8D000F082FD8C
:10090000401B0328F6D320688068C007F2D0A06A95
:10091000002140F01000A062E06A40F00100E062B7
:100920000120B6E7D4F818C04EF60005CFF6FF75E3
:1009300005EB4C352B432568B2F5807F696821F4BF
:10094000694141EA03016960A9684FF2FD73CFF67E
:10095000E17301EA030141EA0E01A96001D0012A15
:1009600006D121690022CFF6F07202EB015200E0BD
:100970000022E96A21F470011143E962A96840F696
:10098000FE62CFF61F721140714507D10021E1626E
:10099000A16A012262F30101A162B0BDA06A40F028
:1009A000100020F00200A062E06A40F00100E06266
:1009B0000120B0BD80B58CB00B9000200A9009904A
:1009C000089007900B98006842F20041C4F20101C0
:1009D00088426FD1FFE7FFE741F21800C4F202003E
:1009E000016841F400710160006800F40070069035
:1009F0000698FFE7FFE741F21800C4F20200016821
:100A000041F004010160006800F0040005900598C1
:100A1000FFE7FFE741F21800C4F20200016841F06D
:100A200008010160006800F0080004900498FFE7E6
:100A3000FF20079003200190089040F60000C4F2C8
:100A4000010007A9029100F0CFFB019802990790DD
:100A5000089040F60040C4F2010000F0C5FB40F2EF
:100A6000C870C2F2000003900821C4F202010160C4
:100A70000021416081608021C1604FF4807101617B
:100A80004FF480614161202181614FF40051C161C7
:100A900000F06AFA18B1FFE7FFF76CFDFFE7FFE728
:100AA0000B9840F2C871C2F2000101620B984862D3
:100AB000FFE7FFE70CB080BD2DE9F0410546006877
:100AC00042F60006C4F201069046B0420F4605D039
:100AD00042F20041C4F2010188420AD142F20440CC
:100AE000C4F20100006810F4702F1CBF0120BDE8A3
:100AF000F08195F82400012804BF0220BDE8F081B0
:100B0000012085F824002846FFF7A6FC044628B1FA
:100B1000002085F824002046BDE8F08142F2044020
:100B20002968AA6AC4F2010040F601739A4300F5ED
:100B30007F7302F580729942AA6207D0A86A20F4F6
:100B40008010A8624868400518D512E0026812F4C7
:100B5000702FF3D0AA6AB14242F48012AA6205D083
:100B600042F20042C4F20102914207D100684005FE
:100B700004D5A86A012262F30D30A862AA6A002097
:100B8000D2044FF0000244BFEA6A22F00602EA6291
:100B900085F82400286A40F2E932C0F6000240F2EB
:100BA000514340F2394600F1280CC0F60003C0F66C
:100BB00000068CE84C006FF002020A608A68434627
:100BC00042F480728A604C313A4600F011FA28688B
:100BD000816801F460228168B2F5602F0CBF41F496
:100BE000A00141F4801181602046BDE8F081000041
:100BF000B0B5044690F82400012804BF0220B0BD1F
:100C00000121206884F824108268D20703D10020D3
:100C1000002941D028E0816821F00101816000F0C5
:100C2000F1FB21688968C90703D10020012199B32C
:100C30001AE0054604E000BF20688068C007F4D0D1
:100C400000F0E0FB401B0328F6D320688068C00753
:100C5000F2D0A06A002140F01000A062E06A40F0EB
:100C60000100E0620120B9B12268216A936823F48F
:100C70008073936091F82120022A0DD1084600F07C
:100C80000FF8A16A41F2011221EA020241F040018B
:100C9000002808BF511CA162002184F82410B0BDB7
:100CA000014690F82100022813D10868D1E90FC34A
:100CB000026822F00E020260026822F00102026065
:100CC000012000FA03F2CCF8042081F82100002072
:100CD00002E0042088630120002281F82020704770
:100CE00080B590F82110022923D10268116821F003
:100CF0000E0111602F211368C4F202018A4240F2F2
:100D00000401C4F2020123F00103136015DD302356
:100D1000C4F202039A421CD04423C4F202039A4252
:100D20001AD05823C4F202039A421AD14FF48033E6
:100D30001FE004218163012080BD0823C4F2020367
:100D40009A420CD01C23C4F202039A4209D1102308
:100D50000FE04FF480730CE04FF4805309E001235F
:100D600007E001F1680C4FF08073624508BF4FF453
:100D700080130B60012180F82110426B002180F864
:100D800020100AB190470021084680BD4FF00101B4
:100D900060B302684FF6F873CBF6FD7302EB030CF9
:100DA0004CF6CD43CCF6CC43ACFB033C136823F0AC
:100DB000010313600023136053609360D3606FF0EE
:100DC000030202EA9C0240F2000CC4F2020C9140C1
:100DD000C0E90FC2CCF804100021C0E90A33C0E911
:100DE0000C33836380F8213080F820300846704748
:100DF00090F821007047000010B5D0E90FCE0168CF
:100E0000DCF800300A6823FA0EF35C0724D512F0F0
:100E1000040421D00A68920603D40A6822F004026E
:100E20000A602F22C4F20202914240F20402C4F28C
:100E3000020253DD3023C4F20203994266D04423F8
:100E4000C4F20203994264D05823C4F202039942C7
:100E500064D14FF4802369E09C0727D512F0020487
:100E600024D00A68920606D40A6822F00A020A60B0
:100E7000012280F821202F22C4F20202914240F286
:100E80000402C4F2020235DD3023C4F202039942A7
:100E900052D04423C4F20203994250D05823C4F2E2
:100EA0000203994250D14FF4003355E01B075AD545
:100EB00012F0080208BF10BD0A6822F00E020A6094
:100EC000012101FA0EF2CCF80420816380F8211090
:100ED000016B002280F8202059BB44E00823C4F2B3
:100EE0000203994218D01C23C4F20203994215D17F
:100EF00040231BE00823C4F20203994222D01C23A2
:100F0000C4F2020399421FD1202325E04FF48063ED
:100F10000CE04FF4804309E0042307E002F1680489
:100F20004FF08063A14208BF4FF480031360C16A91
:100F3000C9B1BDE8104008474FF400730CE04FF40E
:100F4000005309E0022307E002F168044FF0007348
:100F5000A14208BF4FF400131360816A00220029E8
:100F600080F82020E5D110BD014600284FF0010097
:100F700008BF70472DE9F043D1F800C04FF6F87371
:100F8000CBF6FD734CF6CD426344CCF6CC42A3FBCA
:100F900002236FF0030707EA93030027C4F2020756
:100FA00001F10C09C1E90F730223D1E9012E99E87F
:100FB0007002D1F81C8081F82130DCF8003043F653
:100FC000F077BB431A4342EA0E0222432A433243DC
:100FD00042EA090242EA0802CCF8002000228A63B1
:100FE00081F8210081F820200020BDE8F0437047FF
:100FF000F0B590F820C0BCF1010F2FD04FF0010EDA
:1010000080F820E090F821C0BCF1010F23D14FF00F
:10101000020C80F821C04FF0000CC0F838C0D0E9B5
:1010200000C4C56AC66BDCF80070102C27F00107FD
:10103000CCF80070006C0EFA00F070600846CCF836
:10104000043004BF10460A46CCF80800CCF80C2047
:1010500035B10E200BE0002180F820100220F0BDF9
:10106000DCF8000020F00400CCF800000A20DCF8D6
:1010700000100843CCF80000DCF8000040F001004C
:10108000CCF800000020F0BD2DE9F04F81B0002920
:1010900000F0878040F2004341F20042C4F20103B5
:1010A000C4F2010290424FF004024FF000046FF0CE
:1010B0001F05A3F57E774FF00F0908BF03220092AA
:1010C0001AE000BF0246BBF5807F24BFAA46043267
:1010D000166809FA0AF326EA0303042606FA0AF652
:1010E00033431360C26822EA0B02C260013431FA52
:1010F00004F205F1040554D0012202FA04F616EABE
:10110000010BF3D024F0030640F6000257F806C0A6
:10111000C4F20102904213D040F60042C4F2010230
:1011200090420AD041F20002C4F20102DDF80080D0
:10113000904208BF4FF0020804E04FF0010801E0C0
:101140004FF0000805F1200A0AF00C0609FA06FE25
:101150000CEA0E0208FA06F6B242B3D140F200429F
:10116000C4F20102BC461746126840F20C4322EA60
:101170000B023A607A68C4F2010322EA0B027A6039
:101180001A68A60822EA0B021A60BA6822EA0B0261
:10119000BA605CF82620674622EA0E024CF8262048
:1011A00090E701B0BDE8F08F81B0ADF80200BDF866
:1011B0000200B0F5007F01D1FFE7FFE7BDF80200B4
:1011C000B0F5004F01D1FFE7FFE701B07047000025
:1011D00040F21441C4F201010A68024214BF0860DF
:1011E0007047FFF7E1BF00002DE9F04F82B00E68B5
:1011F000002E00F0F68041F20042C4F20102042306
:1012000040F2004E904208BF03234FF6FF7CC4F229
:10121000010E009300240123C1F2100C4FF0000ACC
:101220004FF0000943E0012704F00C030F229A401D
:101230002BEA020207FA03F34FEA9A051A4346F82B
:1012400025204E6840F20C45F202DEF8082054BF1B
:1012500022EA080242EA0802C4F20105CEF8082098
:101260002A68B30254BF22EA080242EA08022A604E
:10127000B303DEF8042054BF22EA080242EA08025F
:10128000F303CEF80420DEF800204FF0010354BF32
:1012900022EA080242EA0802CEF800200E680AF1AB
:1012A000010A36FA0AF204F1040400F09A8003FA03
:1012B0000AFB16EA0B08F1D04E68664510DC122EC8
:1012C00050D8DFE806F0330A41454F4F4F4F4F4F9C
:1012D0004F4F4F4F4F4F4F484C00D1F80C9041E0CB
:1012E0004FF6FF72C1F2210296420FDC0022C1F2DA
:1012F000110296421AD00022C1F21202964215D073
:101300000022C1F22102964210D02BE00022C1F24D
:10131000220296420AD00022C1F23102964205D042
:101320000022C1F2320296421CD100BF8A6842B14B
:10133000012A14BFC0F814B0C0F810B04FF008096B
:1013400010E04FF004090DE0CA6802F1080909E055
:101350004FF0000906E0CA6802F1040902E0CA6819
:1013600002F10C0922460646B8F5807F24BF203AD8
:10137000043637680F25954027EA050509FA02F279
:101380002A433260CA79D2067FF588AF41F218034A
:10139000C4F202031A68AEF57E7642F001021A60CA
:1013A0001A6802F001020192019A2AF0030256F82B
:1013B00002B040F60002C4F2010290420FD040F6A3
:1013C0000042C4F2010290423FF42DAF41F200020C
:1013D000C4F20102009F904208BF022724E70027C1
:1013E00022E702B0BDE8F08FC26802EA0103914330
:1013F00041EA034101617047002A08BF0904016105
:101400007047000041F63C60C2F20000006870477F
:10141000002804BF0120704710B5044690F8410031
:1014200028B9002084F84000204602F0D3FE242092
:1014300084F841002068D4E90212C36823F4005301
:10144000C360036923F440531A430261D4E90423BF
:101450001143C268194341F20C639A431143C160BE
:101460004169A26921F44071114343F60002C4F2BC
:1014700001029042416102D001F0E0FB01E001F085
:10148000F1FB6268192148439100B0FBF1F048F28A
:101490001F51C5F2EB11A0FB01235A094FF69C73B3
:1014A000C0F6FF7302FB0300322303EB0010A0FB26
:1014B0000101F02303EA5113206803EB0212C1F388
:1014C000431111448160016921F490410161416936
:1014D00021F022014161416941F008014161C16887
:1014E00041F40051C16000202021606484F8411063
:1014F00084F84210606310BD704700007047000020
:10150000002804BF0120704710B50446242084F849
:101510003D002068016821F001010160204600F0D3
:1015200083FF0020206484F83D00206384F83E009F
:1015300084F83C0010BD0000F0B581B0044600689E
:1015400000254669426894F83E1002F48077F2055F
:1015500008D53FB16FF4807242610268012542F400
:1015600000420260B20505D5002F1EBF02356FF4A0
:1015700000724261720516D5AFB1628D94F83D30AC
:10158000D4F830C0202908BF002A21D06FF480622F
:10159000402905F10405426101D0102903D10168F9
:1015A00041F400710160300505D527B12068083588
:1015B0006FF4006141614DB1206C40EA05012046A5
:1015C000216401B0BDE8F04003F012B901B0F0BDF4
:1015D00003F0F702212A04D0282B08BFBCF1210F09
:1015E000D4D194F83D10E26AB2F1080318BF012388
:1015F000203A18BF0122134208BF282920D02129F0
:1016000038D10021CFF6FF71E16221212163202131
:1016100084F83D10002184F83E10426822F4E06214
:1016200042606FF480624261026822F4806202606C
:101630004269120648BF0161204600F0C5FFB2E7CB
:101640000021CFF6FF71E162416821F4E061416061
:101650006FF480614161016821F4806101600020C4
:101660002021206384F83D1084F83E00204600F0DD
:1016700047FD98E76FF48061416194E7F0B581B070
:10168000076804467A68C06A94F83E3094F83DE0F2
:10169000402B01D0102B0CD1BE697D69E90734D1F4
:1016A000B0F12A4F00F05682B0F52A0F00F05282B6
:1016B0002DE0206C02F4007300280CBFBE690026E8
:1016C0007D69A8073CD5DBB3206C002818BFBE6934
:1016D00094F83D0000F02800282840F08E807868BB
:1016E000002320F480607860012020EA9601300613
:1016F0004FF0180058BF0C20225A204684F83C3086
:1017000001B0BDE8F040FFF7F9BE900542D42807CC
:1017100002F4007C44D5BCF1000F41D0606B616CD9
:10172000C9B2396118B1806A002840F0D480A06B3A
:10173000002800F00F82806A002840F0CC8009E287
:10174000E80665D5002B63D094F83D50786820F406
:10175000E06078600020009078690090386840F080
:10176000010038600098386820F48060386078683C
:10177000000540F1478105F0F7002646222840F099
:10178000208156F8380F0168496826F80E1C36F893
:101790000E1C1EE1E06AB0F52A0F6ED1012071E047
:1017A000A80740F19E80BCF1000F00F09A8094F8E9
:1017B0003E30E06A226B94F83D10222940F0AB8065
:1017C000216D002908BF402B00F0A580216D002964
:1017D00040F097812169B1F5404F40F0928100209F
:1017E000009078690090B86900900098386840F4DB
:1017F00080703860206D01303EE2002000907969F1
:101800000091B9690091009984F83C0001B0F0BDE5
:101810000EF0F70002F48062212805F0040040F089
:101820008380290640F13781002A00F034810028A6
:1018300040F0318194F83D00618D002900F08A81EB
:10184000616A11F8012B3A616162618D013961852C
:10185000618D002908BF292840F07C817868282103
:1018600020F48060786021202063204684F83D10B9
:1018700001B0BDE8F04000F0A7BEE06AB0F12A4F29
:1018800001D10820E06294F83E0040280AD1206D82
:10189000616C002801F0FE0018BF40F001003861C3
:1018A00001B0F0BD2069B0F5804F67D194F83D00DC
:1018B000616C212801F0FE0118BF01313961606BB4
:1018C00008B1806A38B9A06B002800F04381806AB3
:1018D000002800F03F81786840F40060786001B033
:1018E000F0BD7868710700F4006055D4002840F01E
:1018F0003181680605F0040040F11C8112F480611A
:1019000000F01881002840F01581204601B0BDE8A4
:10191000F04003F08DB80020009078690090B8691D
:101920000090009801B0F0BD690640F1C080002A27
:1019300000F0BD80002840F0BA8094F83D00618D31
:10194000002900F007813969626A1170616A01310A
:101950006162618D01396185618D002908BF2A2886
:1019600040F0F8802068416821F4806141602220C5
:1019700028212063204684F83D10BDE0206D00281A
:1019800000F0A780206D012840F0E480606C062103
:1019900001EAD010F13082E7002840F0DB80280611
:1019A00005F0040040F1D18012F4806100F0CD8098
:1019B000002840F0CA80204601B0BDE8F04003F0A6
:1019C000FDB856F8340F0168496826F80A1C36F845
:1019D0000A1C19B1216C41F004012164796821F4D9
:1019E00000617960FFF704FA01280BD0306844F2F7
:1019F000B151C0F600014163FFF772F910B13068D0
:101A0000416B8847608DF8B120684169490708D566
:101A10000069616A0870606A01306062608D013837
:101A2000608520684169490608D50069616A0870C7
:101A3000606A01306062608D01386085608D18B128
:101A4000206C40F004002064206C28B1204601B0D6
:101A5000BDE8F04002F0CCBE2A2D07D10020206363
:101A6000282084F83D00204600F0ACFD94F83D00AD
:101A7000282834D10020CFF6FF70E062002120201A
:101A8000216384F83D00204684F83E1001B0BDE893
:101A9000F04000F035BB002818BF002B5AD0608DF5
:101AA000002857D0606A10F8011B39610BE000284C
:101AB00018BF002B4ED0608D00284BD03869616A6A
:101AC0000870606A01306062608D0138608501B025
:101AD000F0BD606C062101EAD010F030DFE6206B2B
:101AE000222818BF222D35D100212020216384F81F
:101AF0003D00204684F83E1001B0BDE8F04000F003
:101B000061BD618D51B1618D012925D1202818BF9A
:101B1000082859D1386820F480603860002000908F
:101B200078690090B86900900098386840F40070B7
:101B30003860A0E0002818BFBCF1000F0AD0204692
:101B400001B0BDE8F04002F001BF002818BFBCF1B1
:101B5000000F19D101B0F0BD618D02291DD11028EF
:101B60005DD8012114228140C0F20102114256D0F9
:101B7000396841F4806139600021009179690091F0
:101B8000B9690091009959E0BEF1210F2BD120468F
:101B900001B0BDE8F04002F0D1BF396841F4806186
:101BA0003960796809055FD5421E1F2A59D801217D
:101BB000914048F28102C8F20002114251D0786887
:101BC00040F4805078604FE010F5803F13D13868C2
:101BD00020F480603860786800059FD5386820F46C
:101BE0008060386040E0402BB4D1204601B0BDE8B1
:101BF000F04003F03BB8122A02D101287FF48AAFEB
:101C00001028EBD8012101FA00F01421C0F20101E3
:101C10000842E3D0386840F48060386024E03968D6
:101C200041F4006139600021009179690091B9693E
:101C300000910099396821F480613960796809055B
:101C400019D5421E1F2A1AD80121914048F281025B
:101C5000C8F20002114212D0786840F480507860D7
:101C600009E010F5803FAAD000200090786900902C
:101C7000B869009000980020206501B0F0BD10F513
:101C8000803FE9D0F7E7000080B582B0019001986D
:101C900000F008F8042803D0FFE7FEF76BFCFFE72D
:101CA00002B080BD006C704790F83D0070470000A6
:101CB000F0B581B0B0B3044690F83D0028B90020DB
:101CC00084F83C00204600F0E1FB242084F83D002D
:101CD0002068016821F001010160016841F40041C0
:101CE0000160016821F40041016000F0A7FF48F2A3
:101CF0008041C0F21E0140F60012656888424FF034
:101D00000001C0F23D0248F2A16C4FF0000338BF61
:101D100001219042C0F2010C38BF0123654538BF54
:101D20000B4613B1012001B0F0BD4DF68361C4F242
:101D30001B31A0FB011221684FEA924E4B684FF411
:101D4000967623F03F0343EA92434B6044F6D35325
:101D50000F6A0EFB06F6C1F26203A6FB033627F0FC
:101D60003F03B709654538BF970C7A1C1A430A62CE
:101D7000CA6948F2A0674CF6FF73C0F20107BD4282
:101D800022EA030C0AD801386A00B0FBF2F00130F5
:101D90006FF31F30042898BF04202BE0A368A0F144
:101DA000010E9BB119206843BEFBF0F00422013004
:101DB00062F31F30000512D09BB119206843BEFBAF
:101DC000F0F00422013062F31F3011E005EB450012
:101DD000BEFBF0F001306FF31F300005ECD10120A5
:101DE00008E005EB4500BEFBF0F001306FF31F305B
:101DF00040F4004040EA0C00C8610868D4E90723B9
:101E000020F0C000104318430860886848F2FF3291
:101E100004F10C0790438CCF18431043A6698860E7
:101E2000C86820F0FF0038433043C860086840F0BD
:101E30000100086000202021206484F83D10206308
:101E400084F83E0001B0F0BD2DE9F04F83B01E468E
:101E5000924688460446FFF7D5FA94F83D102029AB
:101E60000BD105462068806910F002000AD194F871
:101E70003C0001282DD1022600E00226304603B0A6
:101E8000BDE8F08F4FF0010989EA500707E000BF75
:101E90002068806910F0020089EA5007E7D0FFF758
:101EA000B1FA401B1A28F3D3206880698007EFD568
:101EB00000202021206384F83D1084F83E00216C2E
:101EC00041F020012164F90784F83C00CFD10226BB
:101ED000D4E74FF0010B206884F83CB00168C907D3
:101EE00003D1016841F0010101600168BAF1010FFD
:101EF00021F4006101604FF0240084F83D004FF0B0
:101F00000000206440F20000CFF6FF70E06208F0AD
:101F1000FE00019098BFDA46CDF800A006F1010A54
:101F20004FF0000806E000BF009808F10108804566
:101F300000F0AF802068016841F480710160406961
:101F400010F001002AD180F001090AE02068406900
:101F5000C00711D02068406910F0010080F001092D
:101F60001CD1BAF1000FF5D0FFF74CFA002EEDD0DE
:101F7000401BB042EED9E9E700212020216384F81C
:101F80003D0084F83E10206C40F0200020645FEAA1
:101F9000C97084F83C1040F0AA8000BF2068019905
:101FA0000161FFF72FFA216805464B694A6994F8E9
:101FB0003D70A02F21D013F002001ED112F48060DA
:101FC0004FF0A00719D100BFFFF71CFA36B1401B34
:101FD000B04288BF84F83D7002E000BF84F83D70D5
:101FE00021684A69486994F83D30A02B05D012F069
:101FF000020208BF10F48060E6D0202084F83D0083
:1020000048690A68800742F400720A602FD46FF4AE
:10201000806048612068806910F002003FF484AF5E
:102020008BEA500708E000BF2068806910F00200CA
:102030008BEA50073FF478AFFFF7E4F9401B1A280A
:10204000F2D3206880698007EED50021202021632B
:1020500084F83D0084F83E10206C40F0200020649D
:10206000F80784F83C107FF45FAF012606E70026EE
:1020700002964869029088690290029820688069F7
:1020800010F002000DD1202084F83D0084F83C605F
:10209000F4E6202084F83D000020012684F83C006E
:1020A000ECE64FF0010888EA500706E020688069F6
:1020B00010F0020088EA5007E5D0FFF7A3F9401BB3
:1020C0001A28F3D3206880698007EFD500202021EB
:1020D000206384F83D1084F83E00216C41F020011B
:1020E0002164F90784F83C00CDD10126C6E62068BA
:1020F00003260068C00544BF4FF400702064BDE6AD
:102100007047000082B0019040F28470C2F200007B
:102110000090006858B1FFE740F28470C2F20000FE
:10212000006840F28871C2F200010860FFE740F6E3
:10213000A421C2F200010120087040F6AC21C2F2D5
:10214000000108680130086002B0704781B000905B
:1021500040F6A821C2F2000108680130086001B011
:102160007047000070B582B004460020019094F8DA
:102170003D0020281FD140F20000C2F2000000689C
:102180004BF28956C008C1F2F846A0FB0606300A99
:1021900019267043019000BF019801380190019801
:1021A00058B12568A8698007F6D494F83C00012846
:1021B00012D102260DE002260BE000202021206330
:1021C00084F83D1084F83E00206C022640F0200088
:1021D0002064304602B070BD012084F83C002868BD
:1021E000C00703D1286840F0010028602868002655
:1021F00020F400602860222084F83D00102084F83C
:102200003E00266462626385638D0020CFF6FF7016
:102210002385E06261640BB3A06B70B344F2D161BB
:10222000C0F6000144F2956C00F1280EC0F6000CD7
:1022300000268EE8421005F110014663FEF7D8FE35
:1022400048B3202084F83D0084F83E60206C40F0C4
:102250001000206484F83C600126BAE784F83C60F2
:10226000686840F4E0606860286840F48060286036
:10227000286840F480702860ABE7202084F83D0097
:10228000002084F83E00216C012641F08001216489
:1022900084F83C009DE72068016841F4806101609A
:1022A000016841F48071016084F83C60416841F448
:1022B00040714160416841F40061416089E700007C
:1022C00070B582B004460020019094F83D002028AB
:1022D0001FD140F20000C2F2000000684BF28956A4
:1022E000C008C1F2F846A0FB0606300A1926704362
:1022F000019000BF019801380190019858B12568FC
:10230000A8698007F6D494F83C00012812D102266F
:102310000DE002260BE000202021206384F83D1010
:1023200084F83E00206C022640F0200020643046F5
:1023300002B070BD012084F83C002868C00703D1BA
:10234000286840F0010028602868002620F400601A
:102350002860212084F83D00102084F83E00266487
:1023600062626385638D0020CFF6FF702385E06293
:1023700061641BB3606B80B344F2D16144F2956C2D
:10238000C0F60001C0F6000C00F1280E00268EE811
:10239000421005F1100C114662464663FEF728FE16
:1023A00048B3202084F83D0084F83E60206C40F063
:1023B0001000206484F83C600126B8E7286840F4E7
:1023C00080602860286840F48070286084F83C6051
:1023D000686840F4E0606860A9E7202084F83D0068
:1023E000002084F83E00216C012641F08001216428
:1023F00084F83C009BE7206884F83C60416841F425
:1024000040714160416841F400614160016841F4FC
:1024100080610160016841F48071016087E700001C
:10242000704700007047000080B582B001900198AD
:10243000006845F20041C4F20001884223D1FFE761
:1024400041F21C01C4F20201086820F40010086087
:1024500040F60040C4F2010000904021FEF714FE57
:1024600000988021FEF710FE0198406BFEF78EFC6D
:102470000198806BFEF78AFC1F2000F07BF920207A
:1024800000F078F9FFE702B080BD000080B58EB0A3
:102490000D9000200C900B900A9009900D98006808
:1024A00045F20041C4F20001884240F08880FFE715
:1024B000FFE741F21800C4F20200016841F0080190
:1024C0000160006800F0080008900898FFE7C0204D
:1024D000099012200A9003200C9040F60040C4F2AC
:1024E000010009A9FEF780FEFFE741F21C00C4F2DB
:1024F0000200016841F400110160006800F400105E
:1025000007900798FFE740F65000C2F200000690DF
:102510006C21C4F202010160102141600021816040
:102520008022C260016141618161C161FEF71CFDD1
:1025300018B1FFE7FEF71EF8FFE7FFE70D9840F63A
:102540005001C2F2000141630D984862FFE740F676
:102550000C00C2F2000005908021C4F2020101606B
:102560000021416081608022C2600161416181611E
:10257000C161FEF7F9FC18B1FFE7FDF7FBFFFFE7CC
:10258000FFE70D9840F60C01C2F2000181630D983F
:102590004862FFE71F20019005210291002203926B
:1025A00000F00CF9019800F0F9F80299039A202044
:1025B000049000F003F9049800F0F0F8FFE70EB083
:1025C00080BD0000704700007047000040F20D0021
:1025D00041F63C61C2F20000C2F2000100780A68D4
:1025E000104408607047000080B542F20000C4F259
:1025F0000200016841F010010160032000F00AF9B7
:102600000F2000F005F800F07BF8002080BD0000EE
:1026100080B58CB00B900020049003908DF80700DB
:10262000FFE741F21C00C4F20200016841F0020120
:102630000160006800F0020000900098FFE706A823
:1026400002A900F0D9FA09980490049820B9FFE78C
:1026500000F0F4FA059004E000F0F0FA4000059074
:10266000FFE705984DF68361C4F21B31A0FB010121
:102670004FF0FF3000EB9140039040F6CC10C2F2D7
:10268000000040F20041C4F20001016040F2E73175
:10269000C16003994160002101618160816101F0A5
:1026A000B7F88DF807009DF8070028BBFFE740F654
:1026B000CC10C2F2000001F019F98DF807009DF866
:1026C0000700C0B9FFE71D2000F068F80B980F283D
:1026D0000CD8FFE70B991D20002200F06FF80B9833
:1026E00040F21001C2F20001086003E001208DF801
:1026F0000700FFE7FFE7FFE79DF807000CB080BD8C
:1027000080B584B0FFE741F21800C4F2020001680E
:1027100041F001010160006800F00100039003989E
:10272000FFE7FFE741F21C00C4F20200016841F03C
:1027300080510160006800F0805002900298FFE72D
:102740006FF001000F21002200F038F8FFE70421AC
:10275000C4F2010108680190019820F0E060019046
:10276000019840F00070019001980860FFE704B004
:1027700080BD0000002848BF704700F01F01012203
:1027800002FA01F14EF280124009CEF2000242F844
:102790002010BFF34F8FBFF36F8F7047002848BFE3
:1027A000704700F01F01012202FA01F14EF20012FF
:1027B0004009CEF2000242F82010704710B54EF6E4
:1027C0000C5CCEF2000CDCF80030C3F3022E8EF06D
:1027D0000704042C28BF0424BEF103034FF0FF3E7E
:1027E0000EFA04F438BF0023A14399400EFA03F314
:1027F0009A43114300F1604200F00F03090102F512
:102800006442043B6344002848BF03F10C0211708A
:1028100010BD00004EF60C51CEF200010A684FF6D2
:10282000FF031A4060F30A2242F0806040F0FD701E
:10283000086070472020C4F20E200121016070471B
:1028400080B5012818D0022841D010283DD141F28E
:102850000401C4F202010A6851F8040CC00134D525
:10286000C2F383402EA3185CD2033FD440F600127B
:10287000C0F23D02504345E041F20400C4F20200C0
:10288000C16940F202320A40B2F5817F04BF4FF4C1
:10289000004080BD01F44071B1F5407F0DD0B1F52D
:1028A000007F12D1026A920744BF49F6404080BDC2
:1028B000B1F5407F1CBF002080BD50F8040C4FF2E2
:1028C0002441800301EAE07080BD002080BD00F05B
:1028D000C9F941F20401C4F2020109680222C1F3FC
:1028E000813102EB4101B0FBF1F080BD0A6810A319
:1028F000C2F340429A5C41F20023C0F27A03B3FB78
:10290000F2F250430968490248BF80BD4AF6AB2144
:102910004000CAF6AA21A0FB0101480880BD00BF03
:1029200002030405060708090A0B0C0D0E0F101010
:10293000010200002DE9F04182B00446007841F226
:102940001C06C007C4F202064AD0306810F0805856
:1029500008D1306840F080503060306800F080501E
:102960000190019847F20007C4F200073868C005DB
:1029700012D4386840F480703860FEF743FD054695
:102980003868C00508D4FEF73DFD401B6428F7D920
:10299000032002B0BDE8F081706810F4407012D0DE
:1029A000616801F4407188420DD0706840F2404285
:1029B000C4F24222012320F4407113600023C007B7
:1029C0001360716029D17068616820F44070084319
:1029D000B8F1000F706003D1306820F08050306093
:1029E0002068810707D556F8181CA26821F44041D9
:1029F000114346F8181CC00603D4002002B0BDE8FD
:102A0000F08156F8180CE16820F48000084346F87D
:102A1000180C002002B0BDE8F081FEF7F3FC05467B
:102A200041F2883770688007CDD4FEF7EBFC401B7D
:102A3000B8424FF00300F5D9ECE700002DE9F04370
:102A400081B0002800F0858042F20008C4F202083C
:102A50000446D8F800000D4600F0070088420CD26A
:102A6000D8F8000020F007002843C8F80000D8F884
:102A7000000000F00700A8426BD1206841F2040971
:102A80008107C4F2020917D5410705D5D9F800100E
:102A900041F4E061C9F80010010705D5D9F800102C
:102AA00041F46051C9F80010D9F80010A26821F073
:102AB000F0011143C9F80010C00741D1D8F8000057
:102AC00000F00700A8420CD9D8F8000020F0070059
:102AD0002843C8F80000D8F8000000F00700A8421A
:102AE00037D12068410707D5D9F80010E26821F4F2
:102AF000E0611143C9F80010000708D5D9F80000BB
:102B0000216920F4605040EAC100C9F80000D9F8FA
:102B1000002002F00C00082841F20020C0F27A00E8
:102B20004ED148F22653C2F38341C0F60003595CEC
:102B3000D20339D440F60010C0F23D0048433FE0D4
:102B40006068022809D0012829D159F8041C89039A
:102B500007D4012001B0BDE8F08359F8041C8901B5
:102B6000F7D5D9F8001021F003010843C9F8000097
:102B7000FEF748FC064641F2883700BFD9F800004E
:102B8000616800F00C00B0EB810F97D0FEF73AFCC3
:102B9000801BB842F2D9032001B0BDE8F08359F898
:102BA000041C8907D5D5DCE7D9F8002048F2245366
:102BB000C2F34042C0F600039A5C4843B0FBF2F017
:102BC000D9F8001048F20C52C1F30311C0F600020C
:102BD000515C40F2000220FA01F140F21000C2F212
:102BE00000000068C2F200021160FFF711FD002032
:102BF00001B0BDE8F08300000F22026041F2040240
:102C0000C4F20202136803F003034360136803F085
:102C1000F0038360136803F4E063C36012684FF449
:102C2000E06303EAD202026142F20000C4F2020051
:102C3000006800F0070008607047000040F20000E4
:102C400041F20401C2F20000C4F202010068096806
:102C500048F21C52C1F30221C0F60002515CC84088
:102C60007047000040F2000041F20401C2F200008F
:102C7000C4F202010068096848F21C52C1F3C22183
:102C8000C0F60002515CC840704700002DE9F041D9
:102C900082B0002800F0D7800446007841F2000698
:102CA000C007C4F2020644D0706800F00C0004288B
:102CB00017D0706800F00C00082802D17068C003BB
:102CC0000FD465682DB1B5F5A02F10D0B5F5803FB4
:102CD00011D0306820F480303060306820F48020DB
:102CE0000CE03068800324D5606810BBABE030682E
:102CF00040F480203060306840F480303060FEF76F
:102D000081FB002D054611D03068800311D4FEF7F9
:102D100079FB401B6428F7D916E100BFFEF772FB70
:102D2000401B64284FF0030000F28A803068800363
:102D3000F4D42078800718D5706810F00C0F07D0F5
:102D4000706800F00C00082827D17068C00324D4F4
:102D50003068800702D52069012874D13068616924
:102D600020F0F80040EAC1003060207800074FD51D
:102D7000A06940B30020C4F242200121C0F88014B1
:102D8000FEF740FB054600BF706A80072DD4FEF7B2
:102D900039FB401B0228F7D9D6E02069002840F211
:102DA0000000C4F2422000F0A68001210160FEF77D
:102DB00029FB054630688007D0D4FEF723FB401B73
:102DC0000228F7D9C0E00020C4F242200021C0F858
:102DD0008014FEF717FB0546706A800718D5FEF7CA
:102DE00011FB401B0228F7D9AEE040F20000C2F20E
:102DF0000000006844F6D351C1F26201A0FB01015A
:102E0000480A019000BF0198411E00280191F9D1A4
:102E1000207840071BD4E5698DB1706800F00C0084
:102E2000082846D1012D0ED07068216A00F4803246
:102E30008A4208D1616A00F47010884203D10020F0
:102E400002B0BDE8F081012002B0BDE8F081F06978
:102E500010F0805808D1F06940F08050F061F069BE
:102E600000F080500090009847F20007C4F200077D
:102E70003868C0050FD4386840F480703860FEF7B9
:102E8000C1FA05463868C00505D4FEF7BBFA401BF9
:102E90006428F7D958E0E5681DB1052D3CD0012D17
:102EA0003ED0306A20F001003062306A20F0040029
:102EB00039E00027C4F2422700203866FEF7A2FA64
:102EC000022D05460CD100BF3068800154D5FEF7B5
:102ED00099FA401B02284FF00300F5D9B0E700BF74
:102EE00030688001ABD5FEF78DFA401B02284FF009
:102EF0000300F5D9A4E700210160FEF783FA054637
:102F0000306880077FF531AFFEF77CFA401B02285E
:102F10004FF00300F4D993E7306A40F004003062C8
:102F2000306A40F001003062FEF76CFA002D054671
:102F300041F2883714D000BF306A800713D4FEF7FF
:102F400061FA401BB842F7D9032002B0BDE8F08116
:102F5000FEF758FA401BB8424FF003003FF670AF3F
:102F6000306A8007F4D4B8F1000F7FF454AFF069F1
:102F700020F08050F0614EE7206AB0F5803F05D127
:102F80007168A26821F40031114371607168626A4E
:102F900021F4741111430843706001203866FEF774
:102FA00031FA0446306880013FF549AFFEF72AFA4E
:102FB000001B02284FF00300F4D941E770470000DE
:102FC0007047000010B5044600680168C9071CBFBF
:102FD00041685FEAC17100D110BD4068400704D468
:102FE0002046FFF7EBFF012007E02046FFF7E8FF50
:102FF00020686FF00401416004206074206841681B
:1030000021F00101416010BD70B5F0B10446007CB3
:1030100001284FF0020008BF70BD012121746074C7
:103020002068016821F002010160FEF7EBF9054616
:103030002068416811F0200609D1FEF7E3F9401B32
:10304000B0F57A7FF4D93EB92AE0012070BD41681D
:1030500041F0100141601EB32068416821F0020177
:1030600041604FF6FF710162416240F20041C4F2DB
:1030700001010A6822F400320A60416821F010015F
:103080004160FEF7BFF905462068406810F0200651
:1030900009D1FEF7B7F9401BB0F57A7FF4D916B91C
:1030A0000120042101E0002001216174002121742C
:1030B00070BD000070B582B0064600208DF8060095
:1030C000ADF80400002E4FF001004CD00C46002952
:1030D00049D0154601A93046002200F049F810B148
:1030E000012002B070BD337B717BB07BF27B23701B
:1030F000E2706170A070C5B3A2F10A03DEB24FF0B6
:10310000CD0C06FB0CF6F50A05EB8505A3EB450394
:10311000012505EBD626092A88BF43EA0612E2708C
:10312000A1F10A02D3B203FB0CF3DE0A06EB86061A
:10313000A2EB460205EBD323092988BF42EA03111B
:103140006170A0F10A01CAB202FB0CF2D30A03EBD0
:103150008303A1EB430105EBD222092888BF41EA92
:103160000210A070002002B070BD002002B070BD3F
:103170002DE9F047064600284FF0010000F09E8040
:103180000C46002908BFBDE8F08730684168490750
:1031900057D492468269C169836983EA02073F0472
:1031A0001CBFC1691A4689B241EA02414BF2C532DD
:1031B000C9F2A212A1FB0223DA0A4FF4616302FBF7
:1031C000131348F68907C8F68807A3FB07756F092C
:1031D00067703F01A7EB5517A3EB870345F28017F4
:1031E000C0F20107B942A3702ED344F20753CCF2C8
:1031F0002E23A1FB03374AF6AB23CAF6AA23A2FB70
:1032000003352B0903EB4303A2EBC3022270026ACE
:10321000406A4FEA174880B240EA0240471A98BF16
:103220004FF0FF37421C4AF68062CFF6FE7208FB71
:10323000021908BF07463046494602F0EDF900285A
:103240003ED00120BDE8F0872270BAF1000F52D0C5
:103250002178CD26A1F10A03DFB27743FD0A05EB01
:1032600085056278A3EB45030125A07805EBD727F8
:10327000092988BF43EA07112170A2F10A01CBB2E4
:103280007343DF0A07EB8707A1EB470105EBD32365
:10329000092A88BF41EA0312A0F10A016270CAB28A
:1032A0007243D30A03EB8303A1EB430105EBD22264
:1032B000092888BF41EA0210A0700020BDE8F0870D
:1032C000781C0AD007EB0901304602F06BF90028A0
:1032D0001CBF0120BDE8F08706E030464FF0FF310B
:1032E00002F060F90028ACD13046414602F072F895
:1032F000BAF1000FACD10020BDE8F08770B570B313
:103300000446407C20B900202074204600F074F868
:10331000022060742068416821F008014160FEF7D6
:1033200071F805462068406810F0080607D1FEF7DE
:1033300069F8401BB0F57A7FF4D9002E4CD0FEF727
:1033400061F805462068416811F0200609D1FEF7B2
:1033500059F8401BB0F57A7FF4D93EB93CE0012022
:1033600070BD416841F010014160AEB32268A068B1
:10337000536846F62C41C4F2000123F00703536062
:1033800018B14A6822F001024A600A6822F46072A9
:10339000104308606068411C05D101200125FFF73A
:1033A0004FFA30B301382168C0F3034280B28A601B
:1033B000C860486820F010004860FEF723F8054612
:1033C0002068406810F0200609D1FEF71BF8401B6A
:1033D000B0F57A7FF4D916B90125042006E040F251
:1033E00001100025A4F80D000120E5736074284643
:1033F00070BD0420FAE7000080B584B00390039804
:10340000006842F60001C4F20001884221D1FFE7C2
:10341000FFF710FAFFE741F21C00C4F20200016856
:1034200041F000610160006800F0006002900298C5
:10343000FFE740F23C41C4F2422101200860032032
:10344000019005210022FFF7B9F90198FFF7A6F9CD
:10345000FFE704B080BD000070B582B004460020D4
:103460008DF80600ADF804004FF001009CB10D4648
:1034700089B1207C01284FF002000CD001211646B2
:103480002174607401A920460022FFF771FE002814
:103490004FF0010001D002B070BD9DF804009DF80E
:1034A00005204FF461619DF806304843C2EB0212DB
:1034B00000EB82002A781844F6B1130903EB83036A
:1034C00002F00F0202EB4302D2B251436A78AB78AA
:1034D000160906EB860602F00F0202EB4602D2B294
:1034E000C2EB021201EB82011A0902EB820203F025
:1034F0000F0303EB420206E06B785143AA78C3EB5B
:10350000031301EB8301D2B211448142204601F53D
:10351000803238BF02F5A34102F044F810B1012017
:10352000042116E02068416821F002014160016831
:1035300041F00201016040F20040C4F20100016864
:1035400041F400310160816841F400318160002064
:10355000012161740021217402B070BD2DE9F04396
:1035600081B0044600284FF0010018BF002902D1A5
:1035700001B0BDE8F083207C01284FF00200F7D0B5
:10358000012323746074C878CAB1020902EB820275
:1035900000F00F0000EB4200E07348788A780309DE
:1035A00003EB830300F00F0000EB4300607310098E
:1035B00000EB800002F00F0202EB400E04E04A78BC
:1035C00091F802E0E0736273E27B48F21F5C02F262
:1035D000CF75C5F2EB1C637BA5FB0C081720032BF2
:1035E00003FB00F048F63963C3F6E303A0FB0309CD
:1035F0004FF0050740F2D27328BF02F5FA6538BFD5
:103600004FEAD81738BF40F2D4731A44A5FB0C0612
:1036100002EB9502A2EB56125FFA8EF03A44104488
:1036200044F6251200EB5900C2F29242A0FB02239D
:10363000C21A03EB52029208A2EBC20210442268A3
:1036400084F80EE0207308709169D069936983EA69
:1036500001073F041CBFD069194680B240EA01400F
:1036600045F69071C0F20101884224D344F207511B
:10367000CCF22E21A0FB0112110C40F2A3225143E7
:10368000A0EBC1152046294601F0C6FF10B101206C
:10369000042112E02068016A406A80B240EA0140D9
:1036A000A84208D200F5803000F5A341204601F081
:1036B00079FF0028EBD100200121617400212174E1
:1036C00001B0BDE8F0830000B0B5044600284FF01B
:1036D000010018BF002900D1B0BD207C01284FF0A7
:1036E000020008BFB0BD012323746074087802B3E0
:1036F000020902EB820200F00F0000EB4200C0B2B0
:103700004FF4616250434A788978130903EB8303CD
:1037100002F00F0202EB4302D2B2C2EB021200EB44
:1037200082000A0902EB820201F00F0101EB420163
:1037300008E04FF4616250434A788978C2EB021284
:1037400000EB8200C9B245182046294601F064FF0B
:1037500010B10120042116E02068416821F0050124
:103760004160016A406A80B240EA0140A84208D242
:1037700000F5803000F5A341204601F013FF00283A
:10378000E7D100200121617400212174B0BD000047
:10379000704700007047000010B590F83C20012AE7
:1037A0004FF0020231D0012380F83C3080F83D20F8
:1037B0000268D2F804E0D2F808C00C682EF070035A
:1037C000234340F2FF74C4F20004A242536005DCBC
:1037D000B2F1804F0ED040F2004307E042F60043C2
:1037E000C4F201039A4205D040F60003C4F200037C
:1037F0009A4204D149682CF0800319439160012159
:10380000002280F83D1080F83C20104610BD0000DA
:10381000002804BF0120704710B5044690F83D0011
:1038200028B9002084F83C00204600F05DF8022012
:1038300084F83D00206840F2FF730268C4F2000380
:1038400042F6004C9842C4F2010C05DCB0F1804F06
:103850000AD040F2004103E0604505D040F6000187
:10386000C4F20001884203D1A16822F070020A4329
:10387000984205DCB0F1804F0AD040F2004103E0ED
:10388000604505D040F60001C4F20001884203D132
:10389000216922F440720A43A36922F08001D4F81E
:1038A00004E0E268194360450160C262C0F828E0A4
:1038B00002D16169CCF8301001214161002084F807
:1038C000461084F83E1084F83F1084F8401084F8C5
:1038D000411084F8421084F8431084F8441084F8AE
:1038E000451084F83D1010BD7047000090F83D1061
:1038F00001291CBF01207047022180F83D1000689B
:1039000040F2FF72C168C4F20002904241F001012E
:10391000C16005DCB0F1804F0ED040F2004107E0FD
:1039200042F60041C4F20101884205D040F6000190
:10393000C4F20001884206D1816801F0070106291E
:1039400004BF00207047016841F0010101600020C0
:103950007047000070470000F0B590F83C30012B34
:1039600004BF0220F0BD4FEAB2020123032A80F80F
:103970003C3000F2A080DFE802F0021B3B590368F4
:10398000D1E900C5D1F80CE01C6A1A6A40F2FF7751
:1039900022F001021A621A4652F8186FC4F20007A8
:1039A000BB4267DCB3F1804F70D040F2004769E062
:1039B0000368D1E900E6D1E902C11C6A1A6A36023D
:1039C00022F010021A621A4652F8185F4FF2FF07EF
:1039D000BE4325F4734561F30F3624F0A0040EF0C6
:1039E0000A0746EA050144EA071711601F623AE038
:1039F0000768D1E900C5D1E902313C6A3A6A61F34E
:103A0000071522F480723A623A4652F81C6F26F08B
:103A1000F30645EA06014FEA5C0666F349241160A5
:103A20003C62116821F00C01116040E00368D1E9AB
:103A300000E6D1E902C11C6A1A6A360222F48052F9
:103A40001A621A4652F81C5F4FF2FF07BE4325F474
:103A5000734561F30F364FEA5E0746EA050167F3E7
:103A60004D3411601C6211684FEA0C2321F440614F
:103A700011601CE042F60047C4F20107BB4205D0CA
:103A800040F60007C4F20007BB4219D126F0030636
:103A9000354324F00A070CF00A066EF30715374485
:103AA0009D611F629F6927F00C079F618B681168F9
:103AB000194300231160002180F83C101846F0BD26
:103AC00046F00105E5E70000002804BF012070472B
:103AD00010B5044690F83D0028B9002084F83C0059
:103AE000204600F05DF8022084F83D00206840F296
:103AF000FF730268C4F2000342F6004C9842C4F21D
:103B0000010C05DCB0F1804F0AD040F2004103E027
:103B1000604505D040F60001C4F20001884203D19F
:103B2000A16822F070020A43984205DCB0F1804F90
:103B30000AD040F2004103E0604505D040F60001A4
:103B4000C4F20001884203D1216922F440720A4381
:103B5000A36922F08001D4F804E0E26819436045CB
:103B60000160C262C0F828E002D16169CCF830106F
:103B700001214161002084F8461084F83E1084F849
:103B80003F1084F8401084F8411084F8421084F803
:103B9000431084F8441084F8451084F83D1010BD9B
:103BA00080B588B00790002006900590049003909F
:103BB00007980068B0F1804F41D1FFE7FFE741F27D
:103BC0001C00C4F20200016841F0010101600068BC
:103BD00000F0010002900298FFE7FFE741F21800B1
:103BE000C4F20200016841F004010160006800F0C5
:103BF000040001900198FFE74FF40040039000207B
:103C00000490059040F60000C4F2010003A9FDF7FE
:103C1000EBFAFFE70421C4F2010108680090009864
:103C200020F440700090009840F0E0600090009810
:103C300040F48070009000980860FFE7FFE708B04C
:103C400080BD000010B5044600680169890744BFC3
:103C5000C1685FEA81713FD420680169490744BFA8
:103C6000C1685FEA417143D420680169090744BF14
:103C7000C1685FEA017148D420680169C90644BF80
:103C8000C1685FEAC1614CD420680169C9071CBFE3
:103C9000C1685FEAC17151D120680169090644BF5A
:103CA000C1685FEA016150D420680169490644BFD8
:103CB000C1685FEA41614FD421680869800646BF48
:103CC000C8685FEA806010BD6FF0200220460A617C
:103CD000BDE81040FFF75EBD6FF0020101610121F8
:103CE0002177806980073ED02046FFF733FE40E011
:103CF0006FF00401016102212177806910F4407F97
:103D00003AD02046FFF726FE3CE06FF00801016143
:103D100004212177C069800737D02046FFF71AFEBB
:103D200039E06FF01001016108212177C06910F4BA
:103D3000407F33D02046FFF70DFE35E06FF00101E4
:103D40000161204600F038F8A6E76FF080010161BC
:103D50002046FFF71DFDA7E76FF0400101612046F7
:103D600000F03CF8A8E7204600F022F8204600F0DA
:103D700021F8002020776FE7204600F019F8204650
:103D800000F018F8002020776EE7204600F010F8C9
:103D9000204600F00FF8002020776DE7204600F065
:103DA00007F8204600F006F8002020776CE70000B6
:103DB000704700007047000080B582B00190019804
:103DC000006840F20041C4F20001884203D1FFE7DD
:103DD000FEF7FCFBFFE702B080BD0000704700006B
:103DE0007047000070470000B0B582B0044600681C
:103DF0000168C368426901F02F05202D03F02005FA
:103E000006D12DB1204602B0BDE8B04001F000BEA1
:103E10005FEA017C1EBF02F0010E03F4907212EB08
:103E20000E0253D1226B012A05D111F0100218BFE6
:103E300013F0100236D10A0622D513F080021FD0EB
:103E400094F8411021293FD1A168B1F5805F03D1D9
:103E50002169002900F04581216A4A1C2262097803
:103E60004160E18C01390A04E1842DD1C16821F05F
:103E70008001C160C16841F04001C16002B0B0BDC5
:103E8000490621D513F040011ED0C16821F0400140
:103E9000C1602021204684F8411002B0BDE8B04046
:103EA00000F068BB00210191016801914168019116
:103EB00001994069400611D4A08DE18DE28D002A60
:103EC00018BF884240F0DF8002B0B0BDC80718BFFD
:103ED00013F4807049D148074DD453E0E06B01687A
:103EE00049688AB2002AEFD0A38D9A42ECD2E185CC
:103EF0008069202831D000BF206850E8030F216876
:103F000020F4807041E80302002AF5D1206850E8CF
:103F1000050F216820F0010041E80502002AF5D1D3
:103F2000206850E8050F216820F0400041E80502B4
:103F3000002AF5D1202084F842000020206300BF31
:103F4000206850E8030F216820F0100041E80302C8
:103F5000002AF5D1E06BFCF7A3FE02206063A08D80
:103F6000E18D401A81B22046B6E0606C40F001005D
:103F70006064480706D5BEF1000F03D0606C40F0C6
:103F800002006064880706D5BEF1000F03D0606CA4
:103F900040F004006064BCF1000F09D545EA0E0052
:103FA000B0FA80F0400903D1606C40F00800606412
:103FB000606C00283FF488AF11F0200018BF002D7E
:103FC00002D0204601F024FD20684069616C00F0B9
:103FD000400001F00801401848D000BF206850E8B8
:103FE000030F216820F4907041E80302002AF5D104
:103FF000206850E8050F216820F0010041E8050223
:10400000002AF5D1206B01280AD100BF206850E8B2
:10401000030F216820F0100041E80302002AF5D1C7
:10402000202084F842000020206320684069400678
:1040300023D500BF206850E8050F216820F040001C
:1040400041E80502002AF5D1E06BB0B145F619113F
:10405000C0F600014163FCF743FE00283FF434AF93
:10406000E06B416B02B0BDE8B04008472046FFF767
:10407000B9FE0020606402B0B0BD204602B0BDE8C9
:10408000B040FFF7AFBE401A216851E8031F226815
:1040900021F4907142E80313002BF5D1216851E817
:1040A000051F226821F0010142E80513002BF5D11C
:1040B000202184F842100021216300BF216851E8CB
:1040C000031F226821F0100142E80313002BF5D1F1
:1040D000022281B22046626302B0BDE8B040FFF721
:1040E0007FBE216A31F8022B6FF35F2242602162AA
:1040F000B7E60000002804BF0120704710B5044651
:1041000090F8410028B9002084F84000204600F0D3
:1041100061F8242084F841002068D4E90212C368C1
:1041200023F40053C360036923F440531A4302612C
:10413000D4E904231143C268194341F20C639A4342
:104140001143C1604169A26921F44071114343F6F2
:104150000002C4F201029042416102D0FEF76EFDFE
:1041600001E0FEF77FFD6268192148439100B0FB32
:10417000F1F048F21F51C5F2EB11A0FB01235A09DF
:104180004FF69C73C0F6FF7302FB0300322303EB70
:104190000010A0FB0101F02303EA5113206803EB98
:1041A0000212C1F3431111448160016921F490416D
:1041B0000161416921F02A014161C16841F4005166
:1041C000C16000202021606484F8411084F842100E
:1041D000606310BD80B590B00F9000200E900D90E0
:1041E0000C900B900F98006843F60001C4F2010197
:1041F00088422DD1FFE7FFE741F21800C4F2020028
:10420000016841F480410160006800F480400A9038
:104210000A98FFE7FFE741F21800C4F202000168C4
:1042200041F004010160006800F004000990099861
:10423000FFE74FF400700B9012200C9003200E90BB
:1042400040F60000C4F201000BA9FCF7CDFF94E09A
:104250000F98006844F60001C4F20001884240F063
:104260008B80FFE7FFE741F21C00C4F20200016807
:1042700041F480210160006800F4802008900898D3
:10428000FFE7FFE741F21800C4F20200016841F0C5
:1042900008010160006800F0080007900798FFE738
:1042A0004FF480600B9002200C9003200E9040F69B
:1042B0000040C4F2010003900BA90491FCF794FFA5
:1042C000039804994FF400620B92002205920C921D
:1042D0000D92FCF789FF059940F6D800C2F2000064
:1042E00006901C22C4F20202026010224260816029
:1042F0008022C260016141618161C161FCF734FECD
:1043000018B1FFE7FCF736F9FFE7FFE70F9840F633
:10431000D801C2F2000181630F984862FFE740F6BE
:104320009400C2F2000002903021C4F20201016048
:104330000021416081608022C26001614161816130
:10434000C161FCF711FE18B1FFE7FCF713F9FFE7B5
:10435000FFE70F9840F69401C2F20001C1630F9885
:104360004862FFE72720019005210022FEF726FA88
:104370000198FEF713FAFFE7FFE710B080BD0000D9
:1043800081B0009041F20C21C2F2000101200870BE
:1043900001B070472DE9F04381B0044690F8410028
:1043A00020281DD10D4600294FF0010000F0A1800A
:1043B0001646002A00F09D80002060642120984667
:1043C00084F84100FDF71EF8A684E684A1688146C2
:1043D000B1F5805F01D1206930B12F46002504E09E
:1043E000022001B0BDE8F0830027E08C002842D015
:1043F00008F101060AE000BF97B117F8010B216828
:104400004860E08C0138E084E08CA0B3206800684C
:104410000006F1D4BEB1B8F1000F0ED116E000BF16
:1044200035F8020B21686FF35F2048600027E8E74A
:1044300001680906E0D4002EFAD0FCF7E3FFA0EBF8
:104440000900404502D82068F2E700BF206850E824
:10445000030F216820F4D07041E80302002AF5D14F
:10446000206850E8050F216820F0010041E80502AE
:10447000002AF5D10AE020680068400635D4B8F17A
:10448000000F1DD018F101050CD012E0202084F897
:10449000410084F84200002084F84000032001B06D
:1044A000BDE8F083206800BF016849061DD4002DD7
:1044B000FAD0FCF7A7FFA0EB09004045F2D900BFF6
:1044C000206850E8030F216820F4D07041E803020F
:1044D000002AF5D1206850E8050F216820F001007E
:1044E00041E80502002AF5D1D0E7202084F84100F8
:1044F000002001B0BDE8F08370B5044690F841009B
:1045000020281CBF022070BD4FF0010089B3002A93
:10451000134608BF70BD4FF0000C21202162A38418
:10452000E384C4F844C084F841002268A06B45F6D7
:10453000C91E45F6092545F62516C0F6000EC0F63B
:104540000005C0F600060432C0E90AE5C0E90C6CBB
:10455000FCF74EFD20686FF040010160206850E8D4
:10456000050F216840F0800041E80502002AF5D1DE
:10457000002070BD81B0009041F20C21C2F2000118
:104580000120087001B0704770470000FFE7FEE7A8
:1045900080B540F61C10C2F20000FCF7CDFF80BDD4
:1045A00080B540F61C10C2F20000FDF767F880BD30
:1045B00010B581B000210091406A40F20001C2F2C2
:1045C000000190F83DC009684BF28952C908C1F258
:1045D000F842A1FB0212110A23225143009100BFAD
:1045E000009939B10099013900910168096889057C
:1045F000F6D403E0016C41F020010164446B4FF0FC
:10460000000E002C1CBF0021A162816B00291CBF81
:1046100000228A620268002C136823F4806313600E
:10462000A0F82AE018BFC4F834E000291CBF00231A
:104630004B63116821F00101116090F83D10602971
:104640000BD1202180F83D10002180F83E1001643C
:1046500001B0BDE81040FCF74FBF0CF0280128293D
:104660000DD1116841F001011160116841F48061C0
:10467000116000210163282180F83D1005E0202110
:1046800080F83D10002180F83E1001B0BDE81040D8
:10469000FDF7FABA406A416B00291CBF00228A620A
:1046A000816B00291CBF00228A6201680A6822F41B
:1046B00080620A6000212022418580F83D2080F838
:1046C0003E10016C41F010010164FDF7DDBA0000FD
:1046D00010B5446A94F83D2094F83EE0D4F82CC01C
:1046E0002068616B4368002923F4407343601CBF5A
:1046F00000238B62A16B00291CBF00238B6202F098
:104700002101212920D002F02201222908BFBEF177
:10471000200F19D094F83E10002908BF10BD618DFC
:10472000012903D1016821F4806101604168BCF175
:10473000070F21F44071416028DCBCF12A4F2BD0D7
:104740001CF5803F28D02BE041682A2A21F4006123
:1047500041604FF0000060850AD0292A10D1212045
:104760002063282084F83D002046FDF72DFF07E058
:1047700022202063282084F83D002046FDF722FFF8
:104780002068416841F44071416010BDBCF1200FC8
:1047900002D0BCF1080F03D1016841F4007101603F
:1047A000416821F480514160416821F40061416019
:1047B00000206085216C21B12046BDE81040FDF746
:1047C00063BA202184F83D1094F83E1084F83E002E
:1047D000402906D1002120462163BDE81040FDF7A5
:1047E0001FBE122120462163BDE81040FDF78ABCA0
:1047F00010B5044690F83D0094F83E10B1F1100257
:1048000018BF0122403918BF01210A4208BF2228DF
:1048100004D121680A6822F400620A6000F02801CD
:10482000282905D100202063282084F83D000DE0D0
:1048300021684968090507D4602805D0202084F83C
:104840003D00002084F83E0000202063206841687D
:1048500009051AD494F83D10602935D1202184F837
:104860003D10002121644169490605D50069616A4E
:104870000870606A013060622068016821F00101FF
:1048800001602046FCF738FE3EE0416821F40061FB
:104890004160606B90F82110012922D1A06B44F295
:1048A000B151C0F600014163FCF71AFA60B3206809
:1048B0004169490605D50069616A0870606A01307E
:1048C00060622168A06B16E04169490605D5006960
:1048D000616A0870606A013060622046FDF7D4F9B1
:1048E00012E044F2B151C0F600014163FCF7F8F95F
:1048F00050B12168606B0A6822F001020A60202131
:1049000084F83D10416B8847206C000704D0206874
:10491000416821F4E061416094F83D00216C490751
:1049200058BF10BD28280FD10020CFF6FF70E062DD
:1049300000212020216384F83D00204684F83E10A9
:10494000BDE81040FDF7DCBB10BD0000C16A428D20
:10495000042A07D10168426A4B6823F480634B60E4
:10496000096911E0428D032A16D1026802295368B1
:1049700023F48063536005D0042903D0116821F427
:10498000806111601169426A1170416A01314162AE
:10499000418D013941857047428D022A11D101397B
:1049A0000F2916D8DFE801F0081015101515151598
:1049B000151515151515150801680A6822F4806289
:1049C0000BE00168426ACBE701680A6842F4806242
:1049D00003E001680A6842F400720A600168426AF2
:1049E00009691170416A02684B1C4362438D013BA7
:1049F000438512694A70416A026801314162418D02
:104A000001394185516821F440715160202180F8BD
:104A10003D1090F83E200021402A80F83E1002D13F
:104A20000163FDF7FDBC12210163FDF76BBB0000C4
:104A300081B090F83D1022293DD1418D042913D336
:104A40000168426A09691170416A01314162418D10
:104A500001394185418D03292DD10068416821F438
:104A60008061416001B07047C26A022A1ED00129EC
:104A70001CD80021009140F20001C2F20001096837
:104A80004BF28952C908C1F2F842A1FB0212110A85
:104A900001EB8101009100BF00990139009100995B
:104AA00059B1026812689205F6D40AE000684168BC
:104AB00021F48061416001B07047026C42F0200235
:104AC00002640268F1B1116821F4806111605168DB
:104AD00021F4E06151601169426A1170416A01314B
:104AE0004162418D01394185202180F83D1090F8C7
:104AF0003E200021402A80F83E1019D1016301B008
:104B0000FDF78EBC516821F4E06151601169426A81
:104B10001170416A01314162418D01394185202185
:104B200080F83D10002180F83E1001B0FDF7ACB8D0
:104B30001221016301B0FDF7E5BA0000C16A90F8E7
:104B40003D20212A18BF7047428D4AB1416A026850
:104B500011F8013B13614162418D01394185704774
:104B600011F5803F18BF082917D101684A6822F45F
:104B7000E0624A600A6842F400720A600021202262
:104B8000016380F83D2090F83E2080F83E10402AD6
:104B900008BFFDF747BCFDF7D9BA2029E5D0016869
:104BA0004A6822F4E0624A6011210163002180F822
:104BB0003E10202180F83D10FDF7C8BA90F83D1056
:104BC00090F83EC0C26A038D002B08BF212919D07E
:104BD000212905D0BCF1400F08BF222900D0704721
:104BE000418D61B390F83E10402908BF00F03EB8F7
:104BF000416A026811F8013B13614162418D01393C
:104C00004185704712F5803F18BF082A1DD1016801
:104C10004A6822F4E0624A600A6842F400720A605C
:104C200000212022016380F83D2090F83E2080F88A
:104C30003E10402A08BFFDF7F5BBFDF787BA0068B4
:104C4000416821F4806141607047202ADFD001680B
:104C50004A6822F4E0624A6011210163002180F871
:104C60003E10202180F83D10FDF770BA90F83D10FD
:104C7000026D3AB1026D012A0FD10168826CD2B285
:104C80000A6119E0C26C816C012A11D10268C9B2B3
:104C90001161016D023101657047026D022A0FD169
:104CA000222914D101680A6842F480720A6003E084
:104CB0000268C1F307211161016D0131016570477F
:104CC00000684169090644BF002101617047428DB7
:104CD0005AB1212909D1416A026811F8013B1361D7
:104CE0004162418D013941857047428D002A08BFDC
:104CF0002129EBD101684A6822F4E0624A600A681F
:104D000042F400720A6000212022016380F83D20F5
:104D100080F83E10FDF786BB80B584B0002103917A
:104D20000291019140F29470C2F20000009042F2B0
:104D30000042C4F2010202604FF4807282600122DC
:104D4000027301754FF46022C26141600A21016162
:104D5000FBF782FD18B1FFE7FBF70CFCFFE7002033
:104D60000190012002900220039040F29470C2F260
:104D7000000001A9FBF77CFC18B1FFE7FBF7FAFB89
:104D8000FFE7012001900220029040F29470C2F2ED
:104D9000000001A9FBF76CFC18B1FFE7FBF7EAFB89
:104DA000FFE7022001900320029040F29470C2F2CB
:104DB000000001A9FBF75CFC18B1FFE7FBF7DAFB89
:104DC000FFE7032001900420029040F29470C2F2A9
:104DD000000001A9FBF74CFC18B1FFE7FBF7CAFB89
:104DE000FFE7042001900520029040F29470C2F287
:104DF000000001A9FBF73CFC18B1FFE7FBF7BAFB89
:104E0000FFE7052001900620029040F29470C2F264
:104E1000000001A9FBF72CFC18B1FFE7FBF7AAFB88
:104E2000FFE7062001900720029040F29470C2F242
:104E3000000001A9FBF71CFC18B1FFE7FBF79AFB88
:104E4000FFE7072001900820029040F29470C2F220
:104E5000000001A9FBF70CFC18B1FFE7FBF78AFB88
:104E6000FFE7082001900920029040F29470C2F2FE
:104E7000000001A9FBF7FCFB18B1FFE7FBF77AFB89
:104E8000FFE7092001900A20029040F29470C2F2DC
:104E9000000001A9FBF7ECFB18B1FFE7FBF76AFB89
:104EA000FFE704B080BD000080B588B0FFE741F2A5
:104EB0001400C4F20200016841F0010101600068C1
:104EC00000F0010007900798FFE70B2000900521F4
:104ED000049100220592FDF771FC0098FDF75EFC3D
:104EE0000499059A0C200190FDF768FC0198FDF7E4
:104EF00055FC0499059A0D200290FDF75FFC02987D
:104F0000FDF74CFC0499059A10200390FDF756FC20
:104F10000398FDF743FC0499059A11200690FDF7CC
:104F20004DFC0698FDF73AFC08B080BD80B584B012
:104F300040F2F140C0F6000048F2A853C0F600036A
:104F400001210022039201F057F9014640F6BC20EE
:104F5000C2F20000016000684FF47A7101F0A6F916
:104F600048F26C52C0F600021020022101F068F8ED
:104F7000039940F6B422C2F20002106045F2B56017
:104F8000C0F6000048F23852C0F6000201F0BEF848
:104F9000039940F28C72C2F20002106045F2B970BF
:104FA000C0F6000048F28452C0F6000201F0AEF8EC
:104FB00040F6B821C2F20001086040F67010C2F25B
:104FC000000000F0B9FA039B41F23001C2F2000187
:104FD000086041F2D810C2F20000036241F6347159
:104FE000C2F2000168464160036046F2C160C0F64B
:104FF000000048F2E951C0F60001C82202F0D2FEDA
:1050000048F25C50C0F6000000F0ACFF40F6B02162
:10501000C2F20001086004B080BD000080B594B009
:1050200000201390129011901090FFE741F21800A9
:10503000C4F20200016841F010010160006800F054
:1050400010000F900F98FFE7FFE741F21800C4F23D
:105050000200016841F020010160006800F02000BA
:105060000E900E98FFE7FFE741F21800C4F202002D
:10507000016841F004010160006800F004000D9037
:105080000D98FFE7FFE741F21800C4F20200016843
:1050900041F008010160006800F008000C900C98D5
:1050A000FFE741F20000C4F2010002904FF400510A
:1050B000019100220A92FCF79FF90A9A40F600003B
:1050C000C4F2010003904FF4E0510491FCF794F90D
:1050D0000A9A40F60040C4F2010008904FF48C7127
:1050E0000791FCF789F9019A02980A991092012216
:1050F00005921192129102210691139110A9099122
:10510000FCF772F8089809990A9A4FF470431093C3
:1051100011921292FCF768F8039809990A9A4FF4D1
:105120008073109311921292FCF75EF80398DDF8E9
:1051300014C0069A09990A9BDDF810E0CDF840E00A
:10514000CDF844C012931392FCF74EF8DDF814C06A
:10515000069A089809990A9BDDF81CE0CDF840E012
:10516000CDF844C012931392FCF73EF808980999C1
:105170000A9A4FF4087310930023C1F2110311939C
:105180001292FCF731F80A9A17200B900521FDF7CF
:1051900015FB0B98FDF702FB14B080BD80B582B003
:1051A00040F61C10C2F20000019045F20041C4F22A
:1051B0000001016042F21071416000218160C16014
:1051C0004FF48042026141618161C1610162FCF77B
:1051D0006FFD18B1FFE7FBF7CDF9FFE702B080BD27
:1051E00080B582B000218DF80610ADF80410009152
:1051F00040F67010C2F2000042F60002C4F2000253
:1052000002604FF0FF3242608160FEF777F818B11C
:10521000FFE7FBF7AFF9FFE70F208DF804008DF8EB
:10522000050000228DF8062040F67010C2F2000042
:1052300001A9FEF749FA18B1FFE7FBF79BF9FFE771
:1052400004208DF8000002208DF801001D208DF84B
:10525000020018208DF8030040F67010C2F2000022
:1052600069460022FEF77AF918B1FFE7FBF782F9E9
:10527000FFE702B080BD000080B588B00021019139
:1052800007910691059104910391029140F68410D3
:10529000C2F200004FF080420260416081604FF630
:1052A000FF72C26001618161FEF70EFC18B1FFE779
:1052B000FBF760F9FFE700200690079040F68410A6
:1052C000C2F2000006A9FEF767FA18B1FFE7FBF784
:1052D00051F9FFE700220292012003900492059207
:1052E00040F68410C2F2000002A9FEF735FB18B1A7
:1052F000FFE7FBF73FF9FFE708B080BD80B582B05C
:1053000040F61420C2F20000019043F60001C4F2FE
:10531000010101604FF4E131416000218160C16011
:1053200001610C2242618161C161FCF771F818B121
:10533000FFE7FBF71FF9FFE702B080BD80B582B041
:1053400040F65C20C2F20000019044F60001C4F275
:10535000000101604FF4E131416000218160C160D2
:1053600001610C2242618161C161FEF7C3FE18B187
:10537000FFE7FBF7FFF8FFE702B080BDFFE7FEE7BE
:10538000FFE7FEE700000000000000000000000052
:10539000EFF30980BFF36F8F0D4B1A6820E9F00F10
:1053A00010602DE908404FF0500080F3118802F0A2
:1053B00085F84FF0000080F31188BDE808401968B7
:1053C0000868B0E8F00F80F30988BFF36F8F70476B
:1053D000B40B00202DE9F041467B877B90F80FC08D
:1053E000002958D045F6294E45F628444DF20B7851
:1053F000012341F2AA52CCF28F2EC0F28F24C0F2C8
:10540000A30802E00137013945D00C2EFBD803FA7E
:1054100006F5154208D01E2FF4D90C2E09D10CF137
:10542000010C01260127EEE715F4256F04D01D2F8E
:10543000E8D901360127E6E7022EE4D11B2F02D876
:1054400001370226DFE71D2F06D01C2F07D15FEAA8
:105450008C7506D0002614E001270326D3E7022628
:10546000D1E71FFA8CF505FB0EF64FEAB605A5420B
:1054700001D9012605E04FEA36150026454538BF1B
:105480000126002E4FF002064FF01D0708BF03262D
:1054900008BF0127B7E7F1B2172248F639634A433C
:1054A000C3F6E303A2FB0323032948F21F510CF5C3
:1054B000FA62C5F2EB1138BF0CF2CF72A2FB0115F4
:1054C00040F2D27138BF40F2D471614401EB9201D5
:1054D000A1EB5511FAB201EBD511114444F6251296
:1054E00001EB5301C2F29242A1FB0223CA1A03EB61
:1054F00052029208A2EBC202114480F80FC0467318
:1055000087730173BDE8F08180B582B040F67010FA
:10551000C2F200000090FDF755FD00980021FDF754
:1055200073FD41F63470C2F20000006801A901F079
:10553000C1FE02B080BD000084B003900020ADF831
:105540000A00ADF80800ADF8060000900398006866
:105550008069ADF80A0003980068C069ADF80600DC
:10556000039800688069ADF80800BDF80A00BDF82E
:10557000081088420AD0FFE7BDF8081003980068B9
:10558000C06980B240EA0140009007E0BDF80A100F
:10559000BDF8060040EA01400090FFE7009804B023
:1055A00070470000F0B581B00D460446FBF72AFFB6
:1055B000064600BF2068416811F0200709D1FBF7BB
:1055C00021FF801BB0F57A7FF4D947B9012001B0E3
:1055D000F0BD416841F010014160002FF6D0206815
:1055E000290C0162A9B24162416821F010014160B9
:1055F000FBF708FF054600BF2068406810F0200652
:1056000005D1FBF7FFFE401BB0F57A7FF4D90120EE
:1056100080EA561001B0F0BDF0B581B00D460446E9
:10562000FBF7F0FE064600BF2068416811F0200736
:1056300009D1FBF7E7FE801BB0F57A7FF4D947B9B3
:10564000012001B0F0BD416841F010014160002F20
:10565000F6D02068290C8161A9B2C161416821F0AE
:1056600010014160FBF7CEFE054600BF2068406890
:1056700010F0200605D1FBF7C5FE401BB0F57A7F80
:10568000F4D9012080EA561001B0F0BD00000000FE
:10569000074B19680868B0E8F00F80F30988BFF37A
:1056A0006F8F4FF0000080F311884EF00D0E7047A1
:1056B000B40B002080B584B00390FFE74FF47A70FC
:1056C00000F036FC40F67010C2F20000FFF734FF25
:1056D00041F23001C2F200010968401A41F234017E
:1056E000C2F20001086041F2D811C2F20001086A5A
:1056F0000130086288695A308861C8695030C861D1
:1057000040F61C10C2F2000022210A226423FCF79A
:105710009BFB8DF80B009DF80B00C0B9FFE740F232
:10572000C471C2F200010020086040F61C10C2F2F1
:10573000000041F2D812C2F2000222212823FCF715
:10574000BFFD18B1FFE7FAF715FFFFE71CE09DF872
:105750000B00022817D1FFE740F2C470C2F200002C
:10576000016801310160006806280BDBFFE740F6A5
:105770001C10C2F200000190FBF7C2FE0198FCF77A
:1057800097FAFFE7FFE7FFE740F29470C2F20000EC
:1057900040F27801C2F2000128220092FBF78CF956
:1057A000009A40F65C20C2F2000041F2D811C2F229
:1057B0000001FEF7A1FE81E780B582B00190FFE70E
:1057C000FA2000F0B5FB40F61C10C2F20000FCF716
:1057D0006BFA202822D1FFE7FFE740F61C10C2F247
:1057E000000040F28472C2F2000222210423FCF77E
:1057F000B9FC08B1FFE7FFE741F23801C2F200014E
:10580000086801300860FFE740F61C10C2F2000093
:10581000FCF748FA0428E0D0FFE7FFE7D0E70000F4
:1058200080B54FF0500080F31188BFF36F8FBFF346
:105830004F8F02F0ADFB30B14EF60450CEF20000B7
:105840004FF080510160002080F3118880BD00007E
:1058500080B596B00CA801902821FAF702FD0198B6
:10586000002202920B920A920992089207920692E3
:1058700005920492039205210C914FF480310D9111
:105880000E9201220F9210920222139214914FF461
:10589000E0111591FDF7FAF918B1FFE7FAF76AFE82
:1058A000FFE70F20079002210891002009904FF494
:1058B00080620A920B9007A8FDF7C0F818B1FFE7C5
:1058C000FAF758FEFFE7032003904FF4807004902E
:1058D0004FF40040059003A8FDF72CF818B1FFE73E
:1058E000FAF748FEFFE716B080BD000070470000E1
:1058F00080B540F6CC10C2F20000FEF7A3F980BDDF
:1059000080B501F087FA002808BF80BDD0E90021EA
:105910000846BDE880401047406A0021C185C18427
:10592000FEF760BA406A0168496990F84120212A6F
:1059300011D111F080010ED00021C184016851E81D
:10594000031F026821F0C00142E80313002BF5D1C8
:10595000202180F841100168496990F84220222AEC
:105960002BD111F0400128D00021C185016851E8F8
:10597000031F026821F4907142E80313002BF5D154
:10598000016851E8051F026821F0010142E8051392
:10599000002BF5D1016B01290AD100BF016851E844
:1059A000031F026821F0100142E80313002BF5D118
:1059B000202180F8421000210163416C41F0100168
:1059C0004164FEF70FBA00000168406A0968890661
:1059D00048BFFEF7CFBD0021C18400BF016851E878
:1059E000051F026821F0800142E80513002BF5D164
:1059F000016851E8031F026841F0400142E80313C7
:105A0000002BF5D170470000406AFEF7BDBD0000D5
:105A100081B090F8421022291DD18268B2F5805FD2
:105A200002D10169002948D0816AB2F5805F07D0B0
:105A30000AB9026922B10268526802F07F0201E0ED
:105A4000026852680A70816A01318162C18D013930
:105A50000A04C18501D001B070470168CA6822F00C
:105A60002002CA60CA6822F48072CA604A6922F0C1
:105A700001024A61202180F8421000214163026B3B
:105A8000012A23D1016300BF016851E8031F0268A6
:105A900021F0100142E80313002BF5D101680A68D8
:105AA000D20606D5002200920A6800924968009149
:105AB0000099818D01B0FEF793B90168826A496847
:105AC0006FF35F2122F8021B8262BFE701B0FEF78D
:105AD00057BC000080B540F65C20C2F20000FEF723
