:020000040800F2
:10000000E8270020890100081D5A0008A54C0008B7
:10001000195A0008ED0400082D63000800000000D4
:10002000000000000000000000000000215D00084A
:10003000A505000800000000215A0008C15F000863
:10004000A3010008A3010008A3010008995B0008B0
:10005000A3010008A3010008A3010008A3010008F0
:10006000A3010008B5050008A30100084505000824
:100070005505000865050008A3010008A301000854
:100080007505000885050008A3010008A301000804
:100090001D630008A3010008F1040008C50500085D
:1000A000A3010008A3010008A3010008A3010008A0
:1000B000A301000891600008A3010008B94C0008E2
:1000C000A94C0008A3010008A3010008A30100082F
:1000D000A3010008A3010008A30100080D630008A4
:1000E000A9050008A3010008A301000800F002F818
:1000F00000F03AF80AA090E8000C82448344AAF188
:100100000107DA4501D100F02FF8AFF2090EBAE885
:100110000F0013F0010F18BFFB1A43F0010318473B
:10012000549A0000749A0000103A24BF78C878C12D
:10013000FAD8520724BF30C830C144BF04680C60ED
:10014000704700000023002400250026103A28BF35
:1001500078C1FBD8520728BF30C148BF0B60704739
:100160001FB51FBD10B510BD00F0DDF81146FFF73B
:10017000F7FF06F013FA00F0FBF803B4FFF7F2FF05
:1001800003BC00F0FFF80000094880470948004719
:10019000FEE7FEE7FEE7FEE7FEE7FEE7FEE7FEE737
:1001A000FEE7FEE704480549054A064B7047000094
:1001B0008D600008ED000008E8210020E8270020FD
:1001C000E8230020E8230020032A40F2308010F0CA
:1001D000030C00F0158011F8013BBCF1020F6244E2
:1001E00098BF11F801CB00F8013B38BF11F8013B73
:1001F000A2F1040298BF00F801CB38BF00F8013B20
:1002000011F0030300F05780083AC0F0088051F85D
:10021000043B083A51F804CBA0E80810F5E7121D9A
:100220005CBF51F8043B40F8043BAFF30080D207B9
:1002300024BF11F8013B11F801CB48BF11F8012B85
:1002400024BF00F8013B00F801CB48BF00F8012BA8
:10025000704702F0FF0343EA032242EA024200F041
:1002600002B84FF0000200B5134694469646203976
:1002700022BFA0E80C50A0E80C50B1F12001BFF45F
:10028000F7AF090728BFA0E80C5048BF0CC05DF8C5
:1002900004EB890028BF40F8042B08BF704748BF13
:1002A00020F8022B11F0804F18BF00F8012B704787
:1002B00070477047704710B5203AC0F00B80B1E826
:1002C0001850A0E81850B1E81850A0E81850203A8B
:1002D000BFF4F5AF5FEA027C24BFB1E81850A0E894
:1002E000185044BF18C918C0BDE810405FEA827CAE
:1002F00024BF51F8043B40F8043B08BF7047D207C5
:1003000028BF31F8023B48BF11F8012B28BF20F865
:10031000023B48BF00F8012B7047000000487047BF
:100320001000002070477546FFF7F8FFAE46050045
:100330006946534620F00700854618B020B5FFF700
:1003400031FFBDE820404FF000064FF000074FF0AE
:1003500000084FF0000BAC46ACE8C009ACE8C0099F
:10036000ACE8C009ACE8C00921F007018D46704730
:1003700010B50446AFF300802046BDE81040FFF7FB
:10038000FCBE000001491820ABBEFEE726000200BB
:10039000B0B5044600688168C90709D0816821F0BA
:1003A0000101816001F0E2FB21688968C90701D180
:1003B0000020B0BD054603E020688068C007F7D084
:1003C00001F0D4FB401B0328F6D320688068C007E7
:1003D000F2D0A06A40F01000A062E06A40F0010094
:1003E000E0620120B0BD00000146406A826A12F05E
:1003F000500F03D0006A026B084610470168826AFA
:1004000042F400728262896801F46021B1F5602FC4
:1004100001D1017B09B100F0E1B9816A21F4807159
:100420008162816AC90448BF00F0D8B9816A41F08D
:100430000101816200F0D2B9406A816A41F0400155
:100440008162C16A41F00401C16200F037BA000064
:10045000406A00F031BA0000B0B582B00446002016
:10046000019021688A68D2073DD1886840F0010078
:10047000886040F20000C2F2000000684DF683611F
:10048000C4F21B31A0FB0101880C00BF0190019850
:1004900010B101980138F9E701F068FB216889681B
:1004A000C9071CD1054603E020688068C00719D140
:1004B00001F05CFB401B0328F6D320688068C0076E
:1004C000F2D1A06A40F01000A062E06A40F00100A2
:1004D000E062002084F82400012002B0B0BD0020BA
:1004E00002B0B0BD002002B0B0BD0000FFE7FEE7E3
:1004F00080B540F62800C2F2000000F08BFD80BD00
:1005000080B582B0019041F28821C2F20001C86931
:10051000C00040F2D872C2F2000290819089A0EB34
:1005200010109081086AC000D0810020C861086264
:1005300041F20000C4F201004FF4005101F008FB49
:1005400002B080BD80B540F65800C2F2000001F054
:1005500067F880BD80B540F66810C2F2000001F077
:100560005FF880BD80B540F62410C2F2000001F0B3
:1005700057F880BD80B540F6E000C2F2000001F0FF
:100580004FF880BD80B540F69C00C2F2000001F03B
:1005900047F840F65431C2F2000108780130087083
:1005A00080BD00007047000080B54FF4805001F01E
:1005B000C3F980BD80B5082001F0BEF9092002F022
:1005C0006DFB80BD80B54FF4007001F0B5F980BDC2
:1005D00081B0EFF3108072B60090FFE7FEE70000F5
:1005E00070B582B004460020019094F824000128E0
:1005F00001D1022566E0012084F824002046FFF79F
:10060000C7FE2046FFF728FF0546002857D1A06AFD
:1006100041F2021188430230A06240F20000C2F2AF
:1006200000000668022002F09FFBB6FBF0F04000DD
:100630000190019810B101980138F9E720688168AC
:1006400041F00801816001F091FA21688A6812077F
:100650000DD4886840F00400886001F087FA2168B2
:100660008968490714D401206FF0030123E006468E
:1006700004E000BF216888680007EAD501F076FA37
:10068000801B0B28F6D3206880680007F2D50EE0A7
:10069000064603E0206880684007E4D501F066FA6A
:1006A000801B0B28F6D3206880684007F2D501250F
:1006B00010206FF01201A26A11400843A0620020CE
:1006C00084F82400284602B070BD0000B0B581B0A7
:1006D0000022009290F82420012A01D1022179E021
:1006E0004A680123062A02EB820C80F8243005D8E0
:1006F000026802F1340E6FF004020AE003680C2A6B
:1007000087BF03F12C0E6FF0400203F1300E6FF043
:1007100022026244DEF800C01F230C6893402CEADA
:10072000030304FA02F21A43CEF80020D1F800E0E5
:1007300002680EEB4E041023BEF1090F88BF1E3C69
:1007400088BF0C2352F803C007258968A5402CEA0E
:100750000505A1402943D1502EF001014FF0000CB6
:1007600010294FF0000133D1016842F20042C4F277
:100770000102914205D0816A41F02001816201218C
:1007800026E09268120222D48A68BEF1100F42F469
:1007900000028A601BD140F20001C2F20001096828
:1007A0004DF68362C4F21B32A1FB0212910C01EBE5
:1007B000810149000091009949B100BF00990139B8
:1007C0000091009900294FF00001F7D100E00021CD
:1007D00080F824C0084601B0B0BD000080B58CB0E0
:1007E0000B900B98006842F20041C4F2010188426C
:1007F00059D1FFE740F2F870C2F2000000F02CFA85
:1008000001A82821FFF72DFD0020ADF80200FFE729
:10081000BDF80200272828DCFFE700208DF8010042
:10082000FFE79DF80100092818DCFFE7BDF802008A
:100830009DF80120811840F27000C2F2000030F8EB
:10084000113001A951F82200184441F82200FFE7B5
:100850009DF8010001308DF80100E2E7FFE7BDF8E7
:1008600002000A30ADF80200D2E700208DF8000047
:10087000FFE79DF80000092814DCFFE79DF8002041
:1008800001A850F82200800841F28821C2F200013C
:1008900001EB42018880FFE79DF8000001308DF8F0
:1008A0000000E6E7FFE740F2CC71C2F20001012050
:1008B00008700CB080BD0000704700007047000059
:1008C000B0B5002846D00446806A30B90020E06206
:1008D00084F82400204600F0A1F820688168C90748
:1008E00009D0816821F00101816001F03FF92168A0
:1008F0008968C90730D100200121A36AA26A31B3F7
:1009000013F0100123D141F2021122EA0101023158
:10091000A162E169D4E9013241EA030C531EB3FA42
:1009200083F35D091346B2F5807F18BF2B02217D4A
:10093000257B01294CEA450E31D13DB3A56A45F02E
:100940002005A562E56A45F00105E56227E042F071
:100950001000A0620120B0BD054603E02068806859
:10096000C007C8D001F002F9401B0328F6D3206865
:100970008068C007F2D0A06A002140F01000A06299
:10098000E06A40F00100E0620120B6E7D4F818C048
:100990004EF60005CFF6FF7505EB4C352B43256869
:1009A000B2F5807F696821F4694141EA0301696019
:1009B000A9684FF2FD73CFF6E17301EA030141EA42
:1009C0000E01A96001D0012A06D121690022CFF6CB
:1009D000F07202EB015200E00022E96A21F470019A
:1009E0001143E962A96840F6FE62CFF61F7211401A
:1009F000714507D10021E162A16A012262F3010180
:100A0000A162B0BDA06A40F0100020F00200A06218
:100A1000E06A40F00100E0620120B0BD80B58CB01A
:100A20000B9000200A900990089007900B9800689E
:100A300042F20041C4F2010188426FD1FFE7FFE7B3
:100A400041F21800C4F20200016841F40071016033
:100A5000006800F4007006900698FFE7FFE741F297
:100A60001800C4F20200016841F00401016000684E
:100A700000F0040005900598FFE7FFE741F2180039
:100A8000C4F20200016841F008010160006800F052
:100A9000080004900498FFE7FF20079003200190CE
:100AA000089040F60000C4F2010007A9029100F08E
:100AB0004FFF019802990790089040F60040C4F259
:100AC000010000F045FF40F65800C2F2000003901C
:100AD0000821C4F20201016000214160816080218F
:100AE000C1604FF4807101614FF480614161202148
:100AF00081614FF40051C16100F04AFE18B1FFE777
:100B0000FFF766FDFFE7FFE70B9840F65801C2F2DA
:100B1000000101620B984862FFE7FFE70CB080BD5F
:100B20002DE9F0410546006842F60006C4F20106D0
:100B30009046B0420F4605D042F20041C4F2010196
:100B400088420AD142F20440C4F20100006810F465
:100B5000702F1CBF0120BDE8F08195F8240001280A
:100B600004BF0220BDE8F081012085F8240028465A
:100B7000FFF772FC044628B1002085F824002046C7
:100B8000BDE8F08142F204402968AA6AC4F201007B
:100B900040F601739A4300F57F7302F58072994223
:100BA000AA6207D0A86A20F48010A86248684005AD
:100BB00018D512E0026812F4702FF3D0AA6AB1427D
:100BC00042F48012AA6205D042F20042C4F201024D
:100BD000914207D10068400504D5A86A012262F35A
:100BE0000D30A862AA6A0020D2044FF0000244BF70
:100BF000EA6A22F00602EA6285F82400286A40F2D6
:100C0000E932C0F6000240F2514340F2394600F1A9
:100C1000280CC0F60003C0F600068CE84C006FF00C
:100C200002020A608A68434642F480728A604C314C
:100C30003A4600F0F1FD2868816801F4602281687D
:100C4000B2F5602F0CBF41F4A00141F48011816026
:100C50002046BDE8F0810000B0B5044690F82400BD
:100C6000012804BF0220B0BD0121206884F82410AF
:100C70008268D20703D10020002941D028E0816892
:100C800021F00101816000F071FF21688968C907C6
:100C900003D10020012199B31AE0054604E000BF0A
:100CA00020688068C007F4D000F060FF401B032874
:100CB000F6D320688068C007F2D0A06A002140F017
:100CC0001000A062E06A40F00100E0620120B9B1CA
:100CD0002268216A936823F48073936091F821203D
:100CE000022A0DD1084600F021FCA16A41F201124E
:100CF00021EA020241F04001002808BF511CA16214
:100D0000002184F82410B0BD90F82020013A012A77
:100D100004D8006800F11402002004E000F124026D
:100D200001204FF4802113681943116070470000BF
:100D300010B590F820E0D0F800C0AEF1010EBEF181
:100D4000010FDCF808E010D81EF0E05F13D0CEF3FE
:100D5000016E012000FA0EF018608B688BB14868B4
:100D6000CC6844EAC00003430FE000F124010120F5
:100D70004FF4802223E000F1240101204FF40012FF
:100D80001DE00868CB6843EA40530CEB0E10C0F836
:100D900080310B69C0F88431097D012905D100F546
:100DA000C2710B6843F480730B605168C0F88C11FA
:100DB000126800F5C071C0F88821002001220B687C
:100DC0001A430A6010BD0000B0B5026890F82030E8
:100DD000013B012B27D8D2F80002012340F001008B
:100DE000C2F80002D1F814E0CC690EF01F0003FA3B
:100DF00000F0D2F81C326FEA000C8343012CC2F8D9
:100E00001C3216D064BBD2F80C3203EA0C03C2F8D1
:100E10000C32CB688C8844EA034302EBCE04C4F85E
:100E200040320B4614E0416A41F4802141620120C6
:100E3000B0BDD2F80C320343C2F80C320B688C8878
:100E400044EA034302EBCE04C4F8403201F10C0340
:100E50008C681B8843EA044302EBCE04C4F8443296
:100E6000D2F804328D6943EA0004D1F810E0096A2F
:100E7000002D08BF03EA0C04C2F80442D2F8143271
:100E8000BEF1000F43EA000408BF03EA0C04012985
:100E9000C2F8144204D1D2F81C120843C2F81C0252
:100EA000D2F8000220F00100C2F800020020B0BD1C
:100EB00080B582B00190019800F004F8009002B073
:100EC00080BD0000406A704710B590F82040013C9A
:100ED000012C0AD8046871B12469A4070ED100F16D
:100EE000240101204FF4001276E000F124010120DA
:100EF0004FF4802270E0E468A40771D0046804EB2A
:100F0000011CDCF8B0410CF5D87E14F004049460A8
:100F1000DCF8B04119BFE4085460640D1460DEF8D9
:100F200000400CF5DA7E04F00204D460DCF8B44131
:100F300024075ABFDEF8004004F00F0408241461AF
:100F4000DEF800400029C4F307249461DEF8004075
:100F50004FEA14445461DCF8B8211A70026802EBBD
:100F60000112D2F8B8214FEA12225A70026802EB3D
:100F70000112D2F8B8214FEA12429A70026802EBCD
:100F80000112D2F8B8214FEA1262DA70026802EB5D
:100F90000112D2F8BC211A71026802EB0112D2F8D8
:100FA000BC214FEA12225A71026802EB0112D2F8F8
:100FB000BC214FEA12429A71026802EB0112D2F888
:100FC000BC214FEA1262DA71006814BF00F110010F
:100FD00000F10C01002020220B681A430A6010BDAA
:100FE00000F1240101204FF40012F5E790F82010E1
:100FF0000139012984BF0020704700688168826838
:101000008068C1F38061C2F3C0621144C0F3007014
:10101000084470472DE9F04F81B0044600684669E6
:10102000D0F804908768D0F80CB0D0F810A0D0F8B1
:101030001880F10703D1002530071CD423E0F907FD
:1010400010D00121BA07816009D4780700F1AA8085
:10105000380700F1B080204600F02AFA02E020466E
:1010600000F028FA0025F80500F18480F80300F16B
:10107000AA80300707D51BF0100004D0206845F483
:1010800000751021C160700708D51BF0080005D05D
:1010900020680821C160204600F0B8F9B00706D5E5
:1010A0002068C068800702D0204600F0B1F97006C1
:1010B00007D51AF0100004D0206845F4806510218F
:1010C0000161B00608D51AF0080005D02068082193
:1010D0000161204600F0B8F9F00606D520680069E5
:1010E000800702D0204600F0B1F9B00308D519F00E
:1010F000100005D0206810214160204600F0A8F9BA
:10110000F00308D519F0080005D0206808214160D7
:10111000204600F0D9F9300440F18F805FEA497031
:1011200040F1888006F4807008EA102028435FEAC6
:101130008871014648BF41F00201B20558BF01461F
:101140005FEA48700D4648BF45F00405700558BF7A
:101150000D4630056ED518F070006BD010380009C0
:10116000052862D8DFE800F0035356595C5F45F06C
:1011700008055AE020684FF48071BA0581600AD4EE
:10118000780512D4380519D4204600F095F9F803F3
:101190007FF56FAF17E0204600F090F9F8037FF578
:1011A00068AF10E04FF400655DE705F50055F80302
:1011B0007FF55FAF07E04FF4805554E705F58045B4
:1011C000F8037FF556AF20684FF48031BA03816091
:1011D0000AD478030FD4380313D4204600F070F9F2
:1011E00030073FF548AF4EE7204600F06BF9300777
:1011F0003FF541AF47E705F5004530073FF53BAF09
:1012000041E705F5803530073FF535AF3BE745F061
:1012100010050AE045F0200507E045F0400504E030
:1012200045F0800501E045F480752068816921F072
:10123000700181612068042141604DB1606A40EA1B
:1012400005012046616201B0BDE8F04FFFF730BEF6
:1012500001B0BDE8F08F0000B0B5C8B1044690F809
:10126000200010B9204600F071F82068016841F0B4
:101270000101016000F07AFC054600BF206841686A
:10128000C90707D100F072FC401B0B28F6D312E00F
:101290000120B0BD016821F00201016000F066FC90
:1012A000054600BF2068416889070DD500F05EFC47
:1012B000401B0B28F6D3606A052140F400306062C1
:1012C000012084F82010B0BD217E0268012922F09F
:1012D000800208BF80320260617E0268012922F02C
:1012E000400208BF40320260A17E0268012922F05C
:1012F000200208BF20320260E17E0268012922F04C
:10130000100218BF10320260217F0268012922F00A
:10131000080208BF08320260617F0268012922F0DA
:10132000040208BF04320260D4E901C2D4E90335E3
:1013300061691A432A431143ACF101021143C161AF
:1013400000200121606284F82010B0BD80B58EB00D
:101350000D9000200C900B900A9009900D98006859
:1013600046F20041C4F2000188424DD1FFE7FFE799
:1013700041F21C00C4F20200016841F000710160FA
:10138000006800F0007008900898FFE7FFE741F25E
:101390001800C4F20200016841F004010160006815
:1013A00000F0040007900798FFE74FF400600990F1
:1013B000002005900A900B9040F60000C4F2010056
:1013C000019009A9029100F0C3FA019802994FF423
:1013D0008052099202220A9203220C9200F0B8FA7B
:1013E000059A142003900521049101F07BFC0398D9
:1013F00001F068FC0499059A1620069001F072FC31
:10140000069801F05FFCFFE70EB080BD704700005A
:1014100080B582B00190019840F22C32C2F20002F5
:1014200040F22433C2F200030021FFF74DFD48B91A
:10143000FFE741F20000C4F201004FF4005100F058
:1014400087FBFFE702B080BD7047000070470000D7
:1014500070470000B0B5044690F8200001281DD167
:10146000022084F820002068016821F00101016059
:1014700000F07CFB054600BF20684068C00713D021
:1014800000F074FB401B0B28F6D3606A40F4003078
:101490006062052084F820000120B0BD606A40F43D
:1014A000002060620120B0BD00206062B0BD00007D
:1014B0007047000070470000704700007047000050
:1014C000704700007047000070470000002804BF0C
:1014D0000120704710B50446407920B900202071E2
:1014E000204600F005F801206071002010BD0000CA
:1014F00082B001900198006843F20001C4F2020139
:10150000884210D1FFE7FFE741F21400C4F2020065
:10151000016841F040010160006800F04000009067
:101520000098FFE7FFE702B070470000014690F81F
:101530002100022813D10868D1E90FC3026822F004
:101540000E020260026822F001020260012000FA2D
:1015500003F2CCF8042081F82100002002E00420EE
:1015600088630120002281F82020704780B590F820
:101570002110022923D10268116821F00E011160A7
:101580002F211368C4F202018A4240F20401C4F21E
:10159000020123F00103136015DD3023C4F20203BE
:1015A0009A421CD04423C4F202039A421AD0582310
:1015B000C4F202039A421AD14FF480331FE004218F
:1015C0008163012080BD0823C4F202039A420CD03B
:1015D0001C23C4F202039A4209D110230FE04FF4F6
:1015E00080730CE04FF4805309E0012307E001F120
:1015F000680C4FF08073624508BF4FF480130B6096
:10160000012180F82110426B002180F820100AB1DE
:1016100090470021084680BD90F8210070470000E7
:1016200010B5D0E90FCE0168DCF800300A6823FA63
:101630000EF35C0724D512F0040421D00A68920648
:1016400003D40A6822F004020A602F22C4F20202C4
:10165000914240F20402C4F2020253DD3023C4F28C
:101660000203994266D04423C4F20203994264D033
:101670005823C4F20203994264D14FF4802369E0F5
:101680009C0727D512F0020424D00A68920606D4DB
:101690000A6822F00A020A60012280F821202F2223
:1016A000C4F20202914240F20402C4F2020235DDA9
:1016B0003023C4F20203994252D04423C4F20203FD
:1016C000994250D05823C4F20203994250D14FF4AA
:1016D000003355E01B075AD512F0080208BF10BDB1
:1016E0000A6822F00E020A60012101FA0EF2CCF81B
:1016F0000420816380F82110016B002280F82020F3
:1017000059BB44E00823C4F20203994218D01C23B9
:10171000C4F20203994215D140231BE00823C4F20E
:101720000203994222D01C23C4F2020399421FD122
:10173000202325E04FF480630CE04FF4804309E060
:10174000042307E002F168044FF08063A14208BF60
:101750004FF480031360C16AC9B1BDE81040084767
:101760004FF400730CE04FF4005309E0022307E04C
:1017700002F168044FF00073A14208BF4FF4001358
:101780001360816A0022002980F82020E5D110BD75
:10179000014600284FF0010008BF70472DE9F043D3
:1017A000D1F800C04FF6F873CBF6FD734CF6CD427E
:1017B0006344CCF6CC42A3FB02236FF0030707EA95
:1017C00093030027C4F2020701F10C09C1E90F736A
:1017D0000223D1E9012E99E87002D1F81C8081F82A
:1017E0002130DCF8003043F6F077BB431A4342EA7D
:1017F0000E0222432A43324342EA090242EA080225
:10180000CCF8002000228A6381F8210081F8202092
:101810000020BDE8F0437047F0B590F820C0BCF15F
:10182000010F2FD04FF0010E80F820E090F821C07A
:10183000BCF1010F23D14FF0020C80F821C04FF012
:10184000000CC0F838C0D0E900C4C56AC66BDCF82B
:101850000070102C27F00107CCF80070006C0EFA15
:1018600000F070600846CCF8043004BF10460A4609
:10187000CCF80800CCF80C2035B10E200BE000218C
:1018800080F820100220F0BDDCF8000020F00400F9
:10189000CCF800000A20DCF800100843CCF8000067
:1018A000DCF8000040F00100CCF800000020F0BDA2
:1018B000B0B5044600F05AF9054640F20500C2F200
:1018C00000000078611C18BF044400BF00F04EF90E
:1018D000401BA042FAD3B0BD81B0ADF80200BDF804
:1018E0000200B0F5007F0FD1FFE741F28821C2F27C
:1018F0000001C8690130C86140F2D071C2F2000134
:10190000086801300860FFE7BDF80200B0F5805FAD
:101910000FD1FFE741F28821C2F20001086A0130CD
:10192000086240F2D471C2F2000108680130086018
:10193000FFE701B07047000040F21441C4F201011A
:101940000A68024214BF08607047FFF7C5BF000075
:101950002DE9F04F82B00E68002E00F0F68041F2C3
:101960000042C4F20102042340F2004E904208BF3C
:1019700003234FF6FF7CC4F2010E009300240123E1
:10198000C1F2100C4FF0000A4FF0000943E00127AC
:1019900004F00C030F229A402BEA020207FA03F329
:1019A0004FEA9A051A4346F825204E6840F20C4546
:1019B000F202DEF8082054BF22EA080242EA0802D6
:1019C000C4F20105CEF808202A68B30254BF22EA07
:1019D000080242EA08022A60B303DEF8042054BF7A
:1019E00022EA080242EA0802F303CEF80420DEF8F5
:1019F00000204FF0010354BF22EA080242EA080225
:101A0000CEF800200E680AF1010A36FA0AF204F153
:101A1000040400F09A8003FA0AFB16EA0B08F1D0DE
:101A20004E68664510DC122E50D8DFE806F0330A07
:101A300041454F4F4F4F4F4F4F4F4F4F4F4F4F48D5
:101A40004C00D1F80C9041E04FF6FF72C1F2210238
:101A500096420FDC0022C1F2110296421AD00022F7
:101A6000C1F21202964215D00022C1F22102964222
:101A700010D02BE00022C1F2220296420AD00022AE
:101A8000C1F23102964205D00022C1F232029642E2
:101A90001CD100BF8A6842B1012A14BFC0F814B03B
:101AA000C0F810B04FF0080910E04FF004090DE045
:101AB000CA6802F1080909E04FF0000906E0CA68A7
:101AC00002F1040902E0CA6802F10C092246064646
:101AD000B8F5807F24BF203A043637680F2595403B
:101AE00027EA050509FA02F22A433260CA79D206CA
:101AF0007FF588AF41F21803C4F202031A68AEF50D
:101B00007E7642F001021A601A6802F00102019228
:101B1000019A2AF0030256F802B040F60002C4F21D
:101B2000010290420FD040F60042C4F201029042FE
:101B30003FF42DAF41F20002C4F20102009F904237
:101B400008BF022724E7002722E702B0BDE8F08F94
:101B5000C26802EA0103914341EA0341016170470F
:101B6000002A08BF090401617047000042F2C80062
:101B7000C2F2000000687047002804BF01207047CF
:101B800010B5044690F8410028B9002084F84000C0
:101B9000204602F0A1FE242084F841002068D4E908
:101BA0000212C36823F40053C360036923F4405353
:101BB0001A430261D4E904231143C268194341F274
:101BC0000C639A431143C1604169A26921F44071D9
:101BD000114343F60002C4F201029042416102D077
:101BE00001F0C0FA01E001F0D1FA6268192148431E
:101BF0009100B0FBF1F048F21F51C5F2EB11A0FBD0
:101C000001235A094FF69C73C0F6FF7302FB0300D1
:101C1000322303EB0010A0FB0101F02303EA511370
:101C2000206803EB0212C1F3431111448160016982
:101C300021F490410161416921F022014161416932
:101C400041F008014161C16841F40051C1600020C8
:101C50002021606484F8411084F84210606310BD54
:101C60007047000070470000F0B581B0044600687E
:101C700000254669426894F83E1002F48077F20528
:101C800008D53FB16FF4807242610268012542F4C9
:101C900000420260B20505D5002F1EBF02356FF469
:101CA00000724261720516D5AFB1628D94F83D3075
:101CB000D4F830C0202908BF002A21D06FF48062F8
:101CC000402905F10405426101D0102903D10168C2
:101CD00041F400710160300505D527B12068083551
:101CE0006FF4006141614DB1206C40EA050120466E
:101CF000216401B0BDE8F04003F058B801B0F0BD78
:101D000003F0F702212A04D0282B08BFBCF1210FD1
:101D1000D4D194F83D10E26AB2F1080318BF012350
:101D2000203A18BF0122134208BF282920D02129B8
:101D300038D10021CFF6FF71E162212121632021FA
:101D400084F83D10002184F83E10426822F4E062DD
:101D500042606FF480624261026822F48062026035
:101D60004269120648BF0161204600F0BBFEB2E79F
:101D70000021CFF6FF71E162416821F4E06141602A
:101D80006FF480614161016821F48061016000208D
:101D90002021206384F83D1084F83E00204600F0A6
:101DA000E7FB98E76FF48061416194E7F0B581B09B
:101DB000076804467A68C06A94F83E3094F83DE0BB
:101DC000402B01D0102B0CD1BE697D69E90734D1BD
:101DD000B0F12A4F00F05682B0F52A0F00F052827F
:101DE0002DE0206C02F4007300280CBFBE690026B1
:101DF0007D69A8073CD5DBB3206C002818BFBE69FD
:101E000094F83D0000F02800282840F08E80786883
:101E1000002320F480607860012020EA96013006DB
:101E20004FF0180058BF0C20225A204684F83C304E
:101E300001B0BDE8F040FFF715BF900542D4280778
:101E400002F4007C44D5BCF1000F41D0606B616CA2
:101E5000C9B2396118B1806A002840F0D480A06B03
:101E6000002800F00F82806A002840F0CC8009E250
:101E7000E80665D5002B63D094F83D50786820F4CF
:101E8000E06078600020009078690090386840F049
:101E9000010038600098386820F480603860786805
:101EA000000540F1478105F0F7002646222840F062
:101EB000208156F8380F0168496826F80E1C36F85C
:101EC0000E1C1EE1E06AB0F52A0F6ED1012071E010
:101ED000A80740F19E80BCF1000F00F09A8094F8B2
:101EE0003E30E06A226B94F83D10222940F0AB802E
:101EF000216D002908BF402B00F0A580216D00292D
:101F000040F097812169B1F5404F40F09281002067
:101F1000009078690090B86900900098386840F4A3
:101F200080703860206D01303EE2002000907969B9
:101F30000091B9690091009984F83C0001B0F0BDAE
:101F40000EF0F70002F48062212805F0040040F052
:101F50008380290640F13781002A00F0348100286F
:101F600040F0318194F83D00618D002900F08A81B4
:101F7000616A11F8012B3A616162618D01396185F5
:101F8000618D002908BF292840F07C8178682821CC
:101F900020F48060786021202063204684F83D1082
:101FA00001B0BDE8F04000F09DBDE06AB0F12A4FFD
:101FB00001D10820E06294F83E0040280AD1206D4B
:101FC000616C002801F0FE0018BF40F0010038618C
:101FD00001B0F0BD2069B0F5804F67D194F83D00A5
:101FE000616C212801F0FE0118BF01313961606B7D
:101FF00008B1806A38B9A06B002800F04381806A7C
:10200000002800F03F81786840F40060786001B0FB
:10201000F0BD7868710700F4006055D4002840F0E6
:102020003181680605F0040040F11C8112F48061E2
:1020300000F01881002840F01581204601B0BDE86D
:10204000F04002F0D3BF0020009078690090B8699A
:102050000090009801B0F0BD690640F1C080002AF0
:1020600000F0BD80002840F0BA8094F83D00618DFA
:10207000002900F007813969626A1170616A0131D3
:102080006162618D01396185618D002908BF2A284F
:1020900040F0F8802068416821F48061416022208E
:1020A00028212063204684F83D10BDE0206D0028E3
:1020B00000F0A780206D012840F0E480606C0621CC
:1020C00001EAD010F13082E7002840F0DB802806DA
:1020D00005F0040040F1D18012F4806100F0CD8061
:1020E000002840F0CA80204601B0BDE8F04003F06F
:1020F00043B856F8340F0168496826F80A1C36F8C8
:102100000A1C19B1216C41F004012164796821F4A1
:1021100000617960FFF780FA01280BD0306844F63F
:10212000C941C0F600014163FFF720FA10B13068E1
:10213000416B8847608DF8B120684169490708D52F
:102140000069616A0870606A01306062608D013800
:10215000608520684169490608D50069616A087090
:10216000606A01306062608D01386085608D18B1F1
:10217000206C40F004002064206C28B1204601B09F
:10218000BDE8F04002F012BE2A2D07D100202063E6
:10219000282084F83D00204600F0A2FC94F83D0081
:1021A000282834D10020CFF6FF70E06200212020E3
:1021B000216384F83D00204684F83E1001B0BDE85C
:1021C000F04000F0D5B9002818BF002B5AD0608D20
:1021D000002857D0606A10F8011B39610BE0002815
:1021E00018BF002B4ED0608D00284BD03869616A33
:1021F0000870606A01306062608D0138608501B0EE
:10220000F0BD606C062101EAD010F030DFE6206BF3
:10221000222818BF222D35D100212020216384F8E7
:102220003D00204684F83E1001B0BDE8F04000F0CB
:1022300057BC618D51B1618D012925D1202818BF6E
:10224000082859D1386820F4806038600020009058
:1022500078690090B86900900098386840F4007080
:102260003860A0E0002818BFBCF1000F0AD020465B
:1022700001B0BDE8F04002F047BE002818BFBCF135
:10228000000F19D101B0F0BD618D02291DD11028B8
:102290005DD8012114228140C0F20102114256D0C2
:1022A000396841F4806139600021009179690091B9
:1022B000B9690091009959E0BEF1210F2BD1204658
:1022C00001B0BDE8F04002F017BF396841F4806109
:1022D0003960796809055FD5421E1F2A59D8012146
:1022E000914048F28102C8F20002114251D0786850
:1022F00040F4805078604FE010F5803F13D138688B
:1023000020F480603860786800059FD5386820F434
:102310008060386040E0402BB4D1204601B0BDE879
:10232000F04002F081BF122A02D101287FF48AAF67
:102330001028EBD8012101FA00F01421C0F20101AC
:102340000842E3D0386840F48060386024E039689F
:1023500041F4006139600021009179690091B96907
:1023600000910099396821F4806139607968090524
:1023700019D5421E1F2A1AD80121914048F2810224
:10238000C8F20002114212D0786840F480507860A0
:1023900009E010F5803FAAD00020009078690090F5
:1023A000B869009000980020206501B0F0BD10F5DC
:1023B000803FE9D0F7E7000080B582B00190019836
:1023C00000F008F8042803D0FFE7FEF701F9FFE763
:1023D00002B080BD006C7047F0B581B0B0B3044668
:1023E00090F83D0028B9002084F83C00204600F019
:1023F000DBFA242084F83D002068016821F0010107
:102400000160016841F400410160016821F400416C
:10241000016000F0A7FE48F28041C0F21E0140F6C4
:102420000012656888424FF00001C0F23D0248F298
:10243000A16C4FF0000338BF01219042C0F2010CA3
:1024400038BF0123654538BF0B4613B1012001B0E9
:10245000F0BD4DF68361C4F21B31A0FB011221686F
:102460004FEA924E4B684FF4967623F03F0343EACF
:1024700092434B6044F6D3530F6A0EFB06F6C1F24B
:102480006203A6FB033627F03F03B709654538BF53
:10249000970C7A1C1A430A62CA6948F2A0674CF684
:1024A000FF73C0F20107BD4222EA030C0AD80138CB
:1024B0006A00B0FBF2F001306FF31F30042898BFC0
:1024C00004202BE0A368A0F1010E9BB11920684302
:1024D000BEFBF0F00422013062F31F30000512D081
:1024E0009BB119206843BEFBF0F00422013062F377
:1024F0001F3011E005EB4500BEFBF0F001306FF33B
:102500001F300005ECD1012008E005EB4500BEFBC3
:10251000F0F001306FF31F3040F4004040EA0C004F
:10252000C8610868D4E9072320F0C00010431843AD
:102530000860886848F2FF3204F10C0790438CCFA2
:1025400018431043A6698860C86820F0FF0038432C
:102550003043C860086840F0010008600020202176
:10256000206484F83D10206384F83E0001B0F0BD83
:102570007047000081B0009040F65431C2F2000173
:102580000120087040F65C31C2F200010868013099
:10259000086001B07047000081B0009040F65531EE
:1025A000C2F200010120087040F65831C2F2000169
:1025B00008680130086001B0704700002DE9F0475D
:1025C00082B09946924688460446FFF7CFFA94F8BF
:1025D0003D1020290BD105462068806910F00200CB
:1025E0000AD194F83C0001282BD1022600E00226F3
:1025F000304602B0BDE8F087012686EA500706E0C3
:102600002068806910F0020086EA5007E9D0FFF7E1
:10261000ADFA401B1A28F3D3206880698007EFD5F4
:1026200000202021206384F83D1084F83E00216CB6
:1026300041F020012164F90784F83C00D1D1022641
:10264000D6E70121206884F83C100168C90703D14E
:10265000016841F001010160016821F4006101603D
:10266000212184F83D10102184F83E1000212164BE
:10267000C4F824A0A4F82A90618D21850021CFF60A
:10268000FF71E162E16A11F5803F18BF012925D190
:10269000016841F4807101604069DDF8289010F014
:1026A000010038D180F0010609F101070BE000BFFD
:1026B00020684169C90717D02068406910F00100FF
:1026C00080F0010627D1002FF6D0FFF74FFAB9F1BD
:1026D000000FEDD0401B4845EED9E9E70829D7D0D7
:1026E000216B1229D4D0D7E700212022216384F85E
:1026F0003D2084F83E10226C42F020022264F20752
:1027000084F83C1007D000680126C00544BF4FF490
:10271000007020646CE72069B0F5804F01D1FE2184
:102720003AE0062000EAD8112068F03101614169E1
:10273000090730D44169490517D409F1010600BFE2
:1027400066B1FFF713FAB9F1000F02D0401B4845FC
:1027500004D920684069000740F11281206841696E
:10276000090718D441694905EAD50168012641F4F1
:10277000007101606FF480614161002020212063BD
:1027800084F83D1084F83E00216C41F0040121647E
:1027900084F83C002CE7FF21206801EA0801016170
:1027A000416989072FD44169490516D409F1010609
:1027B00066B1FFF7DBF9B9F1000F02D0401B4845C5
:1027C00004D920684069800740F1CB8020684169C6
:1027D000890718D441694905EAD50168012641F401
:1027E000007101606FF4806141610020202120634D
:1027F00084F83D1084F83E00216C41F0040121640E
:1028000084F83C00F4E600260196206841690191B5
:10281000806901900198208D002859D009F10107A5
:1028200004E000BF20684069000668D5206850F8C1
:10283000141F09060DD40168490556D4002FF5D0A0
:10284000FFF794F9B9F1000FECD0401B4845EDD9E2
:10285000E8E7D4F824E02268704610F8013B1361E1
:102860006062608D01386085B4F828C01046ACF114
:102870000103238550F8141F49070DD519040BD007
:102880009EF8011011610EF102016162618D013942
:102890006185ACF102012185016806E0206840698C
:1028A000400745D5206850F8141F49070DD401682A
:1028B00049051FD4002FF5D0FFF758F9B9F1000FE3
:1028C000ECD0401B4845EDD9E8E7208D0028ADD17C
:1028D0002068016841F400710160202084F83D0007
:1028E00084F83E6084F83C6082E66FF480610160A9
:1028F000042005E06FF480610160042019E02020CD
:1029000000212022216384F83D2084F83E10226CAF
:102910001043206484F83C10206C042806D1206801
:102920000126016841F40071016061E601265FE65D
:10293000202000212022216384F83D2084F83E10CD
:10294000226C1043206484F83C10206C042806D1CB
:1029500020680126016841F40071016048E6012603
:1029600046E600202021206384F83D1084F83E00D4
:10297000216C012641F02001216484F83C0037E6F7
:1029800000202021206384F83D1084F83E00216C53
:10299000012641F02001216484F83C0028E6000073
:1029A000704700007047000080B58EB00D90002089
:1029B0000C900B900A9009900D98006845F2004128
:1029C000C4F20001884240F08880FFE7FFE741F24F
:1029D0001800C4F20200016841F0080101600068BB
:1029E00000F0080008900898FFE7C0200990122026
:1029F0000A9003200C9040F60040C4F2010009A99F
:102A0000FEF7A6FFFFE741F21C00C4F202000168D6
:102A100041F400110160006800F40010079007986D
:102A2000FFE740F6E000C2F2000006906C21C4F21D
:102A30000201016010214160002181608022C2609A
:102A4000016141618161C161FEF7A2FE18B1FFE73A
:102A5000FDF7BEFDFFE7FFE70D9840F6E001C2F28B
:102A6000000141630D984862FFE740F69C00C2F206
:102A7000000005908021C4F2020101600021416044
:102A800081608022C260016141618161C161FEF7A4
:102A90007FFE18B1FFE7FDF79BFDFFE7FFE70D980D
:102AA00040F69C01C2F2000181630D984862FFE785
:102AB0001F200190052102910022039200F012F9DB
:102AC000019800F0FFF80299039A2020049000F08A
:102AD00009F9049800F0F6F8FFE70EB080BD000099
:102AE000704700007047000001684AF6AA220020E3
:102AF0000A60704740F2050042F2C801C2F20000CD
:102B0000C2F2000100780A681044086070470000B3
:102B100080B542F20000C4F20200016841F01001E9
:102B20000160032000F00AF90F2000F005F800F022
:102B30007BF8002080BD000080B58CB00B90002099
:102B4000049003908DF80700FFE741F21C00C4F2E7
:102B50000200016841F002010160006800F002001B
:102B600000900098FFE706A802A900F0D9FA09989A
:102B70000490049820B9FFE700F0F4FA059004E00F
:102B800000F0F0FA40000590FFE705984DF68361EC
:102B9000C4F21B31A0FB01014FF0FF3000EB91406C
:102BA000039040F66820C2F2000040F20041C4F2F7
:102BB0000001016040F2E731C160039941600021EA
:102BC00001618160816101F0DDF88DF807009DF8F9
:102BD000070028BBFFE740F66820C2F2000001F0C2
:102BE0003FF98DF807009DF80700C0B9FFE71D20E9
:102BF00000F068F80B980F280CD8FFE70B991D2000
:102C0000002200F06FF80B9840F20801C2F20001B8
:102C1000086003E001208DF80700FFE7FFE7FFE70A
:102C20009DF807000CB080BD80B584B0FFE741F28D
:102C30001800C4F20200016841F00101016000685F
:102C400000F0010003900398FFE7FFE741F21C004A
:102C5000C4F20200016841F080510160006800F098
:102C6000805002900298FFE76FF001000F210022D0
:102C700000F038F8FFE70421C4F201010868019070
:102C8000019820F0E0600190019840F00070019000
:102C900001980860FFE704B080BD0000002848BF2D
:102CA000704700F01F01012202FA01F14EF280127A
:102CB0004009CEF2000242F82010BFF34F8FBFF35D
:102CC0006F8F7047002848BF704700F01F01012236
:102CD00002FA01F14EF200124009CEF2000242F86F
:102CE0002010704710B54EF60C5CCEF2000CDCF8EC
:102CF0000030C3F3022E8EF00704042C28BF0424F6
:102D0000BEF103034FF0FF3E0EFA04F438BF002378
:102D1000A14399400EFA03F39A43114300F1604234
:102D200000F00F03090102F56442043B63440028EC
:102D300048BF03F10C02117010BD00004EF60C519B
:102D4000CEF200010A684FF6FF031A4060F30A2230
:102D500042F0806040F0FD70086070472020C4F2AF
:102D60000E2001210160704780B5012818D002288B
:102D700041D010283DD141F20401C4F202010A6899
:102D800051F8040CC00134D5C2F383402EA3185C63
:102D9000D2033FD440F60012C0F23D02504345E05A
:102DA00041F20400C4F20200C16940F202320A405A
:102DB000B2F5817F04BF4FF4004080BD01F4407143
:102DC000B1F5407F0DD0B1F5007F12D1026A9207B4
:102DD00044BF49F6404080BDB1F5407F1CBF002094
:102DE00080BD50F8040C4FF22441800301EAE070EA
:102DF00080BD002080BD00F0C9F941F20401C4F299
:102E0000020109680222C1F3813102EB4101B0FBEA
:102E1000F1F080BD0A6810A3C2F340429A5C41F20F
:102E20000023C0F27A03B3FBF2F25043096849026F
:102E300048BF80BD4AF6AB214000CAF6AA21A0FBDC
:102E40000101480880BD00BF020304050607080908
:102E50000A0B0C0D0E0F1010010200002DE9F041BD
:102E600082B00446007841F21C06C007C4F2020694
:102E70004AD0306810F0805808D1306840F0805057
:102E80003060306800F080500190019847F20007F0
:102E9000C4F200073868C00512D4386840F4807066
:102EA0003860FEF763FE05463868C00508D4FEF7B3
:102EB0005DFE401B6428F7D9032002B0BDE8F08115
:102EC000706810F4407012D0616801F4407188425B
:102ED0000DD0706840F24042C4F24222012320F437
:102EE000407113600023C0071360716029D17068BE
:102EF000616820F440700843B8F1000F706003D19E
:102F0000306820F0805030602068810707D556F87F
:102F1000181CA26821F44041114346F8181CC00651
:102F200003D4002002B0BDE8F08156F8180CE16827
:102F300020F48000084346F8180C002002B0BDE8D9
:102F4000F081FEF713FE054641F28837706880076E
:102F5000CDD4FEF70BFE401BB8424FF00300F5D96D
:102F6000ECE700002DE9F04381B0002800F08580F7
:102F700042F20008C4F202080446D8F800000D46E8
:102F800000F0070088420CD2D8F8000020F00700BB
:102F90002843C8F80000D8F8000000F00700A84255
:102FA0006BD1206841F204098107C4F2020917D5E8
:102FB000410705D5D9F8001041F4E061C9F80010C7
:102FC000010705D5D9F8001041F46051C9F8001087
:102FD000D9F80010A26821F0F0011143C9F80010DF
:102FE000C00741D1D8F8000000F00700A8420CD972
:102FF000D8F8000020F007002843C8F80000D8F8EF
:10300000000000F00700A84237D12068410707D52B
:10301000D9F80010E26821F4E0611143C9F800100A
:10302000000708D5D9F80000216920F4605040EA73
:10303000C100C9F80000D9F8002002F00C000828EF
:1030400041F20020C0F27A004ED149F67823C2F353
:103050008341C0F60003595CD20339D440F6001016
:10306000C0F23D0048433FE06068022809D00128D3
:1030700029D159F8041C890307D4012001B0BDE807
:10308000F08359F8041C8901F7D5D9F8001021F014
:1030900003010843C9F80000FEF768FD064641F247
:1030A000883700BFD9F80000616800F00C00B0EB71
:1030B000810F97D0FEF75AFD801BB842F2D903204A
:1030C00001B0BDE8F08359F8041C8907D5D5DCE7C9
:1030D000D9F8002049F67603C2F34042C0F6000357
:1030E0009A5C4843B0FBF2F0D9F8001049F65E0252
:1030F000C1F30311C0F60002515C40F2000220FA55
:1031000001F140F20800C2F200000068C2F20002C1
:103110001160FFF711FD002001B0BDE8F083000051
:103120000F22026041F20402C4F20202136803F0AB
:1031300003034360136803F0F0038360136803F430
:10314000E063C36012684FF4E06303EAD2020261F5
:1031500042F20000C4F20200006800F007000860BC
:103160007047000040F2000041F20401C2F200008A
:10317000C4F202010068096849F66E02C1F3022137
:10318000C0F60002515CC8407047000040F20000E9
:1031900041F20401C2F20000C4F2020100680968B1
:1031A00049F66E02C1F3C221C0F60002515CC8406C
:1031B000704700002DE9F04182B0002800F0D78070
:1031C0000446007841F20006C007C4F2020644D06B
:1031D000706800F00C00042817D0706800F00C0034
:1031E000082802D17068C0030FD465682DB1B5F509
:1031F000A02F10D0B5F5803F11D0306820F480307A
:103200003060306820F480200CE03068800324D5E2
:10321000606810BBABE0306840F4802030603068FC
:1032200040F480303060FEF7A1FC002D054611D03F
:103230003068800311D4FEF799FC401B6428F7D94D
:1032400016E100BFFEF792FC401B64284FF003001C
:1032500000F28A8030688003F4D42078800718D583
:10326000706810F00C0F07D0706800F00C00082890
:1032700027D17068C00324D43068800702D5206944
:10328000012874D13068616920F0F80040EAC1007B
:103290003060207800074FD5A06940B30020C4F209
:1032A00042200121C0F88014FEF760FC054600BFF3
:1032B000706A80072DD4FEF759FC401B0228F7D90D
:1032C000D6E02069002840F20000C4F2422000F05D
:1032D000A68001210160FEF749FC054630688007A1
:1032E000D0D4FEF743FC401B0228F7D9C0E00020F1
:1032F000C4F242200021C0F88014FEF737FC0546D6
:10330000706A800718D5FEF731FC401B0228F7D9F8
:10331000AEE040F20000C2F20000006844F6D35173
:10332000C1F26201A0FB0101480A019000BF0198AF
:10333000411E00280191F9D1207840071BD4E5698E
:103340008DB1706800F00C00082846D1012D0ED018
:103350007068216A00F480328A4208D1616A00F400
:103360007010884203D1002002B0BDE8F081012036
:1033700002B0BDE8F081F06910F0805808D1F06922
:1033800040F08050F061F06900F0805000900098AB
:1033900047F20007C4F200073868C0050FD4386848
:1033A00040F480703860FEF7E1FB05463868C005E0
:1033B00005D4FEF7DBFB401B6428F7D958E0E5682D
:1033C0001DB1052D3CD0012D3ED0306A20F001000A
:1033D0003062306A20F0040039E00027C4F242274E
:1033E00000203866FEF7C2FB022D05460CD100BF57
:1033F0003068800154D5FEF7B9FB401B02284FF01E
:103400000300F5D9B0E700BF30688001ABD5FEF707
:10341000ADFB401B02284FF00300F5D9A4E70021C3
:103420000160FEF7A3FB0546306880077FF531AFEA
:10343000FEF79CFB401B02284FF00300F4D993E7F2
:10344000306A40F004003062306A40F001003062BF
:10345000FEF78CFB002D054641F2883714D000BFE3
:10346000306A800713D4FEF781FB401BB842F7D9BE
:10347000032002B0BDE8F081FEF778FB401BB842A4
:103480004FF003003FF670AF306A8007F4D4B8F114
:10349000000F7FF454AFF06920F08050F0614EE7E8
:1034A000206AB0F5803F05D17168A26821F400312F
:1034B000114371607168626A21F474111143084309
:1034C000706001203866FEF751FB044630688001C9
:1034D0003FF549AFFEF74AFB001B02284FF00300FF
:1034E000F4D941E7704700007047000010B504466A
:1034F00000680168C9071CBF41685FEAC17100D15B
:1035000010BD4068400704D42046FFF7EBFF0120C0
:1035100007E02046FFF7E8FF20686FF004014160F4
:10352000042060742068416821F00101416010BDF1
:1035300070B5F0B10446007C01284FF0020008BFCE
:1035400070BD0121217460742068016821F00201BE
:103550000160FEF70BFB05462068416811F020066C
:1035600009D1FEF703FB401BB0F57A7FF4D93EB9D1
:103570002AE0012070BD416841F0100141601EB396
:103580002068416821F0020141604FF6FF7101623D
:10359000416240F20041C4F201010A6822F40032A3
:1035A0000A60416821F010014160FEF7DFFA05462C
:1035B0002068406810F0200609D1FEF7D7FA401BBA
:1035C000B0F57A7FF4D916B90120042101E000207A
:1035D000012161740021217470BD000070B582B0BA
:1035E000064600208DF80600ADF80400002E4FF0CE
:1035F00001004CD00C46002949D0154601A930469F
:10360000002200F049F810B1012002B070BD337BF8
:10361000717BB07BF27B2370E2706170A070C5B3E8
:10362000A2F10A03DEB24FF0CD0C06FB0CF6F50A50
:1036300005EB8505A3EB4503012505EBD626092AF5
:1036400088BF43EA0612E270A1F10A02D3B203FB7B
:103650000CF3DE0A06EB8606A2EB460205EBD3234B
:10366000092988BF42EA03116170A0F10A01CAB2B8
:1036700002FB0CF2D30A03EB8303A1EB430105EB3E
:10368000D222092888BF41EA0210A070002002B0AF
:1036900070BD002002B070BD2DE9F047064600283D
:1036A0004FF0010000F09E800C46002908BFBDE8E5
:1036B000F08730684168490757D492468269C169EA
:1036C000836983EA02073F041CBFC1691A4689B2B5
:1036D00041EA02414BF2C532C9F2A212A1FB022318
:1036E000DA0A4FF4616302FB131348F68907C8F640
:1036F0008807A3FB07756F0967703F01A7EB551794
:10370000A3EB870345F28017C0F20107B942A3700B
:103710002ED344F20753CCF22E23A1FB03374AF6F3
:10372000AB23CAF6AA23A2FB03352B0903EB430301
:10373000A2EBC3022270026A406A4FEA174880B2C5
:1037400040EA0240471A98BF4FF0FF37421C4AF642
:103750008062CFF6FE7208FB021908BF07463046AA
:10376000494602F0A1FA00283ED00120BDE8F087CA
:103770002270BAF1000F52D02178CD26A1F10A03B0
:10378000DFB27743FD0A05EB85056278A3EB4503BD
:103790000125A07805EBD727092988BF43EA07113F
:1037A0002170A2F10A01CBB27343DF0A07EB87074E
:1037B000A1EB470105EBD323092A88BF41EA031295
:1037C000A0F10A016270CAB27243D30A03EB830309
:1037D000A1EB430105EBD222092888BF41EA021080
:1037E000A0700020BDE8F087781C0AD007EB090123
:1037F000304602F01FFA00281CBF0120BDE8F08708
:1038000006E030464FF0FF3102F014FA0028ACD148
:103810003046414602F026F9BAF1000FACD1002043
:10382000BDE8F08770B570B30446407C20B9002035
:103830002074204600F074F802206074206841680B
:1038400021F008014160FEF791F9054620684068C3
:1038500010F0080607D1FEF789F9401BB0F57A7F12
:10386000F4D9002E4CD0FEF781F905462068416856
:1038700011F0200609D1FEF779F9401BB0F57A7FE7
:10388000F4D93EB93CE0012070BD416841F010011F
:103890004160AEB32268A068536846F62C41C4F27A
:1038A000000123F00703536018B14A6822F00102B7
:1038B0004A600A6822F46072104308606068411C24
:1038C00005D101200125FFF74FFA30B301382168F7
:1038D000C0F3034280B28A60C860486820F01000DC
:1038E0004860FEF743F905462068406810F020065E
:1038F00009D1FEF73BF9401BB0F57A7FF4D916B930
:103900000125042006E040F201100025A4F80D0076
:103910000120E5736074284670BD0420FAE70000BA
:1039200080B584B003900398006842F60001C4F2A9
:103930000001884221D1FFE7FFF710FAFFE741F2CB
:103940001C00C4F20200016841F0006101600068DF
:1039500000F0006002900298FFE740F23C41C4F2A0
:103960004221012008600320019005210022FFF779
:10397000B9F90198FFF7A6F9FFE704B080BD000090
:1039800070B582B0044600208DF80600ADF8040042
:103990004FF001009CB10D4689B1207C01284FF009
:1039A00002000CD0012116462174607401A9204642
:1039B0000022FFF771FE00284FF0010001D002B095
:1039C00070BD9DF804009DF805204FF461619DF8DD
:1039D00006304843C2EB021200EB82002A781844FA
:1039E000F6B1130903EB830302F00F0202EB43026B
:1039F000D2B251436A78AB78160906EB860602F01C
:103A00000F0202EB4602D2B2C2EB021201EB8201BC
:103A10001A0902EB820203F00F0303EB420206E0F5
:103A20006B785143AA78C3EB031301EB8301D2B245
:103A300011448142204601F5803238BF02F5A3418E
:103A400002F0F8F810B10120042116E02068416866
:103A500021F002014160016841F00201016040F281
:103A60000040C4F20100016841F400310160816846
:103A700041F4003181600020012161740021217432
:103A800002B070BD2DE9F04381B0044600284FF02C
:103A9000010018BF002902D101B0BDE8F083207CED
:103AA00001284FF00200F7D0012323746074C87816
:103AB000CAB1020902EB820200F00F0000EB4200E3
:103AC000E07348788A78030903EB830300F00F0062
:103AD00000EB43006073100900EB800002F00F025E
:103AE00002EB400E04E04A7891F802E0E073627362
:103AF000E27B48F21F5C02F2CF75C5F2EB1C637BE0
:103B0000A5FB0C081720032B03FB00F048F63963D4
:103B1000C3F6E303A0FB03094FF0050740F2D2739D
:103B200028BF02F5FA6538BF4FEAD81738BF40F210
:103B3000D4731A44A5FB0C0602EB9502A2EB5612B5
:103B40005FFA8EF03A44104444F6251200EB590017
:103B5000C2F29242A0FB0223C21A03EB5202920865
:103B6000A2EBC2021044226884F80EE020730870B1
:103B70009169D069936983EA01073F041CBFD0694A
:103B8000194680B240EA014045F69071C0F2010149
:103B9000884224D344F20751CCF22E21A0FB01121B
:103BA000110C40F2A3225143A0EBC1152046294637
:103BB00002F07AF810B10120042112E02068016AB5
:103BC000406A80B240EA0140A84208D200F5803045
:103BD00000F5A341204602F02DF80028EBD100208B
:103BE000012161740021217401B0BDE8F08300005F
:103BF000B0B5044600284FF0010018BF002900D1DD
:103C0000B0BD207C01284FF0020008BFB0BD0123E9
:103C100023746074087802B3020902EB820200F098
:103C20000F0000EB4200C0B24FF4616250434A788B
:103C30008978130903EB830302F00F0202EB4302BE
:103C4000D2B2C2EB021200EB82000A0902EB82023E
:103C500001F00F0101EB420108E04FF461625043B3
:103C60004A788978C2EB021200EB8200C9B245188B
:103C70002046294602F018F810B10120042116E070
:103C80002068416821F005014160016A406A80B204
:103C900040EA0140A84208D200F5803000F5A34177
:103CA000204601F0C7FF0028E7D100200121617400
:103CB00000212174B0BD0000704700007047000073
:103CC000B0B590F83C20012A04BF0220B0BD01F13C
:103CD00008053CCDD1E900CE23F47C5322F4705288
:103CE0001A432EF4F0431A432CF4E0431A4324F40D
:103CF000C0431A432A43C96922F48042036811432E
:103D00005964002180F83C100846B0BD10B590F809
:103D10003C20012A4FF0020231D0012380F83C30D0
:103D200080F83D200268D2F804E0D2F808C00C68A0
:103D30002EF07003234340F2FF74C4F20004A24249
:103D4000536005DCB2F1804F0ED040F2004307E033
:103D500042F60043C4F201039A4205D040F6000344
:103D6000C4F200039A4204D149682CF0800319433D
:103D700091600121002280F83D1080F83C2010461F
:103D800010BD0000002804BF0120704710B5044694
:103D900090F83D0028B9002084F83C00204600F04F
:103DA0005DF8022084F83D00206840F2FF7302684D
:103DB000C4F2000342F6004C9842C4F2010C05DC48
:103DC000B0F1804F0AD040F2004103E0604505D0D9
:103DD00040F60001C4F20001884203D1A16822F03C
:103DE00070020A43984205DCB0F1804F0AD040F2DD
:103DF000004103E0604505D040F60001C4F2000137
:103E0000884203D1216922F440720A43A36922F057
:103E10008001D4F804E0E268194360450160C262A1
:103E2000C0F828E002D16169CCF83010012141616D
:103E3000002084F8461084F83E1084F83F1084F87F
:103E4000401084F8411084F8421084F8431084F83C
:103E5000441084F8451084F83D1010BD70470000F0
:103E600090F83D1001291CBF01207047022180F805
:103E70003D10006840F2FF72C168C4F20002904237
:103E800041F00101C16005DCB0F1804F0ED040F27D
:103E9000004107E042F60041C4F20101884205D02A
:103EA00040F60001C4F20001884206D1816801F0A9
:103EB0000701062904BF00207047016841F0010195
:103EC00001600020704700007047000010B50446F4
:103ED00000680169890744BFC1685FEA81713FD406
:103EE00020680169490744BFC1685FEA417143D452
:103EF00020680169090744BFC1685FEA017148D4BD
:103F000020680169C90644BFC1685FEAC1614CD439
:103F100020680169C9071CBFC1685FEAC17151D13E
:103F200020680169090644BFC1685FEA016150D495
:103F300020680169490644BFC1685FEA41614FD406
:103F400021680869800646BFC8685FEA806010BDC6
:103F50006FF0200220460A61BDE81040FFF7AEBEB8
:103F60006FF00201016101212177806980073ED055
:103F70002046FFF7A9FF40E06FF004010161022134
:103F80002177806910F4407F3AD02046FFF79CFFEC
:103F90003CE06FF00801016104212177C0698007CE
:103FA00037D02046FFF790FF39E06FF01001016134
:103FB00008212177C06910F4407F33D02046FFF7F5
:103FC00083FF35E06FF001010161204600F090F9B8
:103FD000A6E76FF0800101612046FFF76DFEA7E7BD
:103FE0006FF040010161204600F094F9A8E72046F7
:103FF00000F0F0F8204600F079F9002020776FE714
:10400000204600F0E7F8204600F070F90020207705
:104010006EE7204600F0DEF8204600F067F9002049
:1040200020776DE7204600F0D5F8204600F05EF9D5
:10403000002020776CE70000F0B590F83C30012BB1
:1040400004BF0220F0BD4FEAB2020123032A80F828
:104050003C3000F2B980DFE802F00231629202687F
:1040600042F60044136A156AC4F2010425F0010502
:104070001562D2F804E0D2F818C08D6823F002036C
:10408000A24243EA050305D1CD6823F00C0325F0D5
:1040900004052B430D68A24207D1D1E905462EF451
:1040A000407E44EA0E0444EA060E2CF073062E43CA
:1040B000C2F804E096614968516383E0026842F601
:1040C0000044136A166AC4F2010426F01006166250
:1040D000D2F804E0D2F818C08D6823F02003A24281
:1040E00043EA051307D1CD686FF0400623F0C00303
:1040F00006EA05152B430D68A24206D1D1E90576E3
:104100002EF44064374344EA870E2CF4E64747EA2E
:104110000527C2F804E097614968916352E002689C
:1041200042F60044136A176AC4F2010427F4807748
:104130001762D2F804E0D2F81CC08D6823F4007333
:10414000A24243EA052307D1CD6840F2FF462D0283
:1041500023F44063B5432B430D68A24206D1D1E955
:1041600005462EF44057264347EA061E2CF07307F7
:104170002F43C2F804E0D7614968D16322E00268A6
:1041800042F60046D2F820C0136AC4F2010623F4B6
:10419000805313625368D4690D68D1F808E0B242C5
:1041A00004D14E6923F4804343EA861324F4E6469F
:1041B00046EA05265360D6612CF40057496847EA61
:1041C0000E33116413620023002180F83C1018465E
:1041D000F0BD000070470000002804BF01207047B8
:1041E00010B5044690F83D0028B9002084F83C0042
:1041F000204600F05DF8022084F83D00206840F27F
:10420000FF730268C4F2000342F6004C9842C4F205
:10421000010C05DCB0F1804F0AD040F2004103E010
:10422000604505D040F60001C4F20001884203D188
:10423000A16822F070020A43984205DCB0F1804F79
:104240000AD040F2004103E0604505D040F600018D
:10425000C4F20001884203D1216922F440720A436A
:10426000A36922F08001D4F804E0E26819436045B4
:104270000160C262C0F828E002D16169CCF8301058
:1042800001214161002084F8461084F83E1084F832
:104290003F1084F8401084F8411084F8421084F8EC
:1042A000431084F8441084F8451084F83D1010BD84
:1042B00082B001900198006842F60041C4F2010109
:1042C000884210D1FFE7FFE741F21800C4F2020074
:1042D000016841F400610160006800F40060009032
:1042E0000098FFE7FFE702B070470000704700004A
:1042F00080B582B001900198006840F20041C4F29C
:104300000001884203D1FFE7FEF7F4FBFFE702B0AC
:1043100080BD00007047000070B582B0044690F880
:104320004200202809D113460A4600294FF0010017
:1043300018BF002B04D102B070BD022002B070BDC6
:1043400001202063002522206563A262A3856564A5
:1043500084F842002168E06B46F2691C46F2E91ECF
:1043600046F2C506C0F6000CC0F6000EC0F6000608
:104370000431C0E90ACEC0E90C65FDF74DFA01959C
:10438000206801680191406801900198206948B156
:10439000206850E8030F216840F4807041E8030270
:1043A000002AF5D1206850E8050F216840F001008F
:1043B00041E80502002AF5D1206850E8050F216880
:1043C00040F0400041E80502002AF5D1206B0128A9
:1043D00015D100200090206801680091406800908D
:1043E000009800BF206850E8030F216840F01000DB
:1043F00041E80302002AF5D1002002B070BD01207F
:1044000002B070BD80B586B00590ADF8121041F2D3
:10441000C120C2F200000390BDF81200082805DB9D
:10442000FFE7039800783A2801D0FFE75AE00398A5
:10443000C078BDF81210884201D0FFE752E0BDF805
:10444000121041F2C120C2F200000144043902916D
:10445000BDF81210043989B203F0CCFB0299098827
:10446000884201D0FFE73DE0FFE70398407800076E
:1044700010BBFFE7BDF8120010281CD1FFE741F286
:10448000C121C2F2000108684A688B68D1F80CC0EB
:1044900040F64431C2F20001C1F80CC08B604A60A2
:1044A000086040F66430C2F20000006800231A463B
:1044B00002F00CFBFFE700E0FFE740F6F820C2F255
:1044C0000000019041F2C121C2F200014FF40072DC
:1044D000FFF722FF0198C06B0168086820F0040014
:1044E0000860FFE706B080BD70470000B0B582B03D
:1044F000044600680168C368426901F02F05202D59
:1045000003F0200506D12DB1204602B0BDE8B04031
:1045100001F09ABE5FEA017C1EBF02F0010E03F4B7
:10452000907212EB0E0253D1226B012A05D111F0C9
:10453000100218BF13F0100236D10A0622D513F06C
:1045400080021FD094F8411021293FD1A168B1F514
:10455000805F03D12169002900F04581216A4A1C4E
:10456000226209784160E18C01390A04E1842DD18D
:10457000C16821F08001C160C16841F04001C160A3
:1045800002B0B0BD490621D513F040011ED0C1686C
:1045900021F04001C1602021204684F8411002B082
:1045A000BDE8B04000F06ABB0021019101680191B3
:1045B0004168019101994069400611D4A08DE18DB7
:1045C000E28D002A18BF884240F0DF8002B0B0BD03
:1045D000C80718BF13F4807049D148074DD453E081
:1045E000E06B016849688AB2002AEFD0A38D9A4235
:1045F000ECD2E1858069202831D000BF206850E8E6
:10460000030F216820F4807041E80302002AF5D1ED
:10461000206850E8050F216820F0010041E80502FC
:10462000002AF5D1206850E8050F216820F04000ED
:1046300041E80502002AF5D1202084F8420000203C
:10464000206300BF206850E8030F216820F01000AD
:1046500041E80302002AF5D1E06BFCF767FF022076
:104660006063A08DE18D401A81B22046B6E0606C97
:1046700040F001006064480706D5BEF1000F03D08A
:10468000606C40F002006064880706D5BEF1000F40
:1046900003D0606C40F004006064BCF1000F09D5E9
:1046A00045EA0E00B0FA80F0400903D1606C40F09A
:1046B00008006064606C00283FF488AF11F02000AF
:1046C00018BF002D02D0204601F0BEFD20684069D1
:1046D000616C00F0400001F00801401848D000BFB4
:1046E000206850E8030F216820F4907041E803022D
:1046F000002AF5D1206850E8050F216820F001005C
:1047000041E80502002AF5D1206B01280AD100BF3B
:10471000206850E8030F216820F0100041E80302F0
:10472000002AF5D1202084F8420000202063206870
:104730004069400623D500BF206850E8050F216876
:1047400020F0400041E80502002AF5D1E06BB0B14D
:1047500046F2B901C0F600014163FCF707FF0028EB
:104760003FF434AFE06B416B02B0BDE8B0400847A6
:104770002046FFF7B9FE0020606402B0B0BD2046BD
:1047800002B0BDE8B040FFF7AFBE401A216851E863
:10479000031F226821F4907142E80313002BF5D126
:1047A000216851E8051F226821F0010142E8051344
:1047B000002BF5D1202184F842100021216300BF95
:1047C000216851E8031F226821F0100142E8031319
:1047D000002BF5D1022281B22046626302B0BDE80F
:1047E000B040FFF70FBE216A31F8022B6FF35F2252
:1047F00042602162B7E60000002804BF0120704734
:1048000010B5044690F8410028B9002084F8400013
:10481000204600F061F8242084F841002068D4E9A3
:104820000212C36823F40053C360036923F44053A6
:104830001A430261D4E904231143C268194341F2C7
:104840000C639A431143C1604169A26921F440712C
:10485000114343F60002C4F201029042416102D0CA
:10486000FEF780FC01E0FEF791FC626819214843E5
:104870009100B0FBF1F048F21F51C5F2EB11A0FB23
:1048800001235A094FF69C73C0F6FF7302FB030025
:10489000322303EB0010A0FB0101F02303EA5113C4
:1048A000206803EB0212C1F34311114481600169D6
:1048B00021F490410161416921F02A014161C168FF
:1048C00041F40051C16000202021606484F841104F
:1048D00084F84210606310BD80B590B00F90002046
:1048E0000E900D900C900B900F98006843F600010D
:1048F000C4F2010188422DD1FFE7FFE741F2180021
:10490000C4F20200016841F480410160006800F4D3
:1049100080400A900A98FFE7FFE741F21800C4F2CE
:104920000200016841F004010160006800F0040029
:1049300009900998FFE74FF400700B9012200C903B
:1049400003200E9040F60000C4F201000BA9FCF712
:10495000FFFF94E00F98006844F60001C4F20001E4
:10496000884240F08B80FFE7FFE741F21C00C4F271
:104970000200016841F480210160006800F4802099
:1049800008900898FFE7FFE741F21800C4F2020020
:10499000016841F008010160006800F0080007901C
:1049A0000798FFE74FF480600B9002200C900320E3
:1049B0000E9040F60040C4F2010003900BA9049150
:1049C000FCF7C6FF039804994FF400620B92002293
:1049D00005920C920D92FCF7BBFF059940F668100A
:1049E000C2F2000006901C22C4F2020202601022F1
:1049F000426081608022C260016141618161C16168
:104A0000FCF7C6FE18B1FFE7FBF7E2FDFFE7FFE7A3
:104A10000F9840F66811C2F2000181630F98486256
:104A2000FFE740F62410C2F2000002903021C4F2E9
:104A3000020101600021416081608022C260016149
:104A400041618161C161FCF7A3FE18B1FFE7FBF78B
:104A5000BFFDFFE7FFE70F9840F62411C2F2000107
:104A6000C1630F984862FFE72720019005210022CB
:104A7000FEF738F90198FEF725F9FFE7FFE710B0D8
:104A800080BD000081B0009041F2EC01C2F2000153
:104A90000120087001B07047704700002DE9F04315
:104AA00081B0044690F8410020281DD10D46002910
:104AB0004FF0010000F0A1801646002A00F09D8012
:104AC000002060642120984684F84100FDF74EF8EC
:104AD000A684E684A1688146B1F5805F01D1206992
:104AE00030B12F46002504E0022001B0BDE8F0837C
:104AF0000027E08C002842D008F101060AE000BF40
:104B000097B117F8010B21684860E08C0138E08408
:104B1000E08CA0B3206800680006F1D4BEB1B8F103
:104B2000000F0ED116E000BF35F8020B21686FF3BD
:104B30005F2048600027E8E701680906E0D4002EFE
:104B4000FAD0FDF713F8A0EB0900404502D8206821
:104B5000F2E700BF206850E8030F216820F4D0700E
:104B600041E80302002AF5D1206850E8050F2168CA
:104B700020F0010041E80502002AF5D10AE0206892
:104B80000068400635D4B8F1000F1DD018F10105BA
:104B90000CD012E0202084F8410084F8420000206C
:104BA00084F84000032001B0BDE8F083206800BF16
:104BB000016849061DD4002DFAD0FCF7D7FFA0EB01
:104BC00009004045F2D900BF206850E8030F216872
:104BD00020F4D07041E80302002AF5D1206850E8A3
:104BE000050F216820F0010041E80502002AF5D1F7
:104BF000D0E7202084F84100002001B0BDE8F08318
:104C000070B5044690F8410020281CBF022070BDFA
:104C10004FF0010089B3002A134608BF70BD4FF062
:104C2000000C21202162A384E384C4F844C084F8EA
:104C300041002268A06B46F2012E46F2412546F261
:104C4000C506C0F6000EC0F60005C0F60006043228
:104C5000C0E90AE5C0E90C6CFCF7DEFD20686FF0E6
:104C600040010160206850E8050F216840F0800095
:104C700041E80502002AF5D1002070BD80B582B060
:104C8000019041F2C021C2F200010120087041F2FE
:104C9000BC20C2F20000006802F026F802B080BD1D
:104CA00070470000FFE7FEE780B540F6AC10C2F2A7
:104CB0000000FCF7D9FF80BD80B540F6AC10C2F211
:104CC0000000FDF773F880BD10B581B000210091A0
:104CD000406A40F20001C2F2000190F83DC009684C
:104CE0004BF28952C908C1F2F842A1FB0212110A23
:104CF00023225143009100BF009939B10099013935
:104D00000091016809688905F6D403E0016C41F05F
:104D100020010164446B4FF0000E002C1CBF0021E9
:104D2000A162816B00291CBF00228A620268002CEC
:104D3000136823F480631360A0F82AE018BFC4F856
:104D400034E000291CBF00234B63116821F00101EE
:104D5000116090F83D1060290BD1202180F83D10A2
:104D6000002180F83E10016401B0BDE81040FCF75E
:104D700077BF0CF0280128290DD1116841F00101FD
:104D80001160116841F480611160002101632821E4
:104D900080F83D1005E0202180F83D10002180F8CA
:104DA0003E1001B0BDE81040FDF706BB10B504464B
:104DB00090F83D0094F83E10B1F1100218BF0122A6
:104DC000403918BF01210A4208BF222804D12168B6
:104DD0000A6822F400620A6000F02801282905D13F
:104DE00000202063282084F83D000DE021684968F8
:104DF000090507D4602805D0202084F83D00002054
:104E000084F83E00002020632068416809051AD418
:104E100094F83D10602935D1202184F83D100021FF
:104E200021644169490605D50069616A0870606AB4
:104E3000013060622068016821F0010101602046B4
:104E4000FCF70EFF3EE0416821F400614160606BB9
:104E500090F82110012922D1A06B44F6C941C0F677
:104E600000014163FCF782FB60B320684169490699
:104E700005D50069616A0870606A01306062216866
:104E8000A06B16E04169490605D50069616A0870A2
:104E9000606A013060622046FDF78EFA12E044F647
:104EA000C941C0F600014163FCF760FB50B12168C5
:104EB000606B0A6822F001020A60202184F83D102C
:104EC000416B8847206C000704D02068416821F4BA
:104ED000E061416094F83D00216C490758BF10BD66
:104EE00028280FD10020CFF6FF70E062002120209B
:104EF000216384F83D00204684F83E10BDE8104050
:104F0000FDF736BB10BD0000C16A428D042A07D1EF
:104F10000168426A4B6823F480634B60096911E0C1
:104F2000428D032A16D102680229536823F4806354
:104F3000536005D0042903D0116821F48061116009
:104F40001169426A1170416A01314162418D013932
:104F500041857047428D022A11D101390F2916D897
:104F6000DFE801F0081015101515151515151515A4
:104F70001515150801680A6822F480620BE00168C3
:104F8000426ACBE701680A6842F4806203E0016884
:104F90000A6842F400720A600168426A0969117085
:104FA000416A02684B1C4362438D013B4385126991
:104FB0004A70416A026801314162418D013941857F
:104FC000516821F440715160202180F83D1090F823
:104FD0003E200021402A80F83E1002D10163FDF7F7
:104FE000DFBC12210163FDF7C5BA000081B090F863
:104FF0003D1022293DD1418D042913D30168426A15
:1050000009691170416A01314162418D013941855F
:10501000418D03292DD10068416821F480614160F0
:1050200001B07047C26A022A1ED001291CD8002193
:10503000009140F20001C2F2000109684BF289526E
:10504000C908C1F2F842A1FB0212110A01EB810169
:10505000009100BF009901390091009959B102688F
:1050600012689205F6D40AE00068416821F4806174
:10507000416001B07047026C42F020020264026895
:10508000F1B1116821F480611160516821F4E0618F
:1050900051601169426A1170416A01314162418D6A
:1050A00001394185202180F83D1090F83E200021F3
:1050B000402A80F83E1019D1016301B0FDF770BCA1
:1050C000516821F4E06151601169426A1170416ACE
:1050D00001314162418D01394185202180F83D1027
:1050E000002180F83E1001B0FDF766B9122101637E
:1050F00001B0FDF73FBA0000C16A90F83D20212AB7
:1051000018BF7047428D4AB1416A026811F8013BED
:1051100013614162418D01394185704711F5803F2E
:1051200018BF082917D101684A6822F4E0624A6072
:105130000A6842F400720A6000212022016380F8AC
:105140003D2090F83E2080F83E10402A08BFFDF731
:1051500029BCFDF721BA2029E5D001684A6822F46C
:10516000E0624A6011210163002180F83E10202195
:1051700080F83D10FDF710BA90F83D1090F83EC051
:10518000C26A038D002B08BF212919D0212905D01F
:10519000BCF1400F08BF222900D07047418D61B398
:1051A00090F83E10402908BF00F03EB8416A0268FE
:1051B00011F8013B13614162418D0139418570470E
:1051C00012F5803F18BF082A1DD101684A6822F4F1
:1051D000E0624A600A6842F400720A6000212022FC
:1051E000016380F83D2090F83E2080F83E10402A70
:1051F00008BFFDF7D7BBFDF7CFB90068416821F4C0
:10520000806141607047202ADFD001684A6822F43B
:10521000E0624A6011210163002180F83E102021E4
:1052200080F83D10FDF7B8B990F83D10026D3AB125
:10523000026D012A0FD10168826CD2B20A6119E0B5
:10524000C26C816C012A11D10268C9B21161016D71
:10525000023101657047026D022A0FD1222914D153
:1052600001680A6842F480720A6003E00268C1F3D0
:1052700007211161016D01310165704700684169C5
:10528000090644BF002101617047428D5AB12129AE
:1052900009D1416A026811F8013B13614162418DF5
:1052A000013941857047428D002A08BF2129EBD181
:1052B00001684A6822F4E0624A600A6842F40072B7
:1052C0000A6000212022016380F83D2080F83E1012
:1052D000FDF768BB80B584B0002103910291019174
:1052E00040F2F870C2F20000009042F20042C4F2B4
:1052F000010202604FF48072826001220273017524
:105300004FF46022C26141600A210161FBF7D8FAC3
:1053100018B1FFE7FBF75CF9FFE7002001900120DF
:1053200002900220039040F2F870C2F2000001A93E
:10533000FBF7CCF918B1FFE7FBF74AF9FFE70120CB
:1053400001900220029040F2F870C2F2000001A920
:10535000FBF7BCF918B1FFE7FBF73AF9FFE70220CA
:1053600001900320029040F2F870C2F2000001A9FF
:10537000FBF7ACF918B1FFE7FBF72AF9FFE70320C9
:1053800001900420029040F2F870C2F2000001A9DE
:10539000FBF79CF918B1FFE7FBF71AF9FFE70420C8
:1053A00001900520029040F2F870C2F2000001A9BD
:1053B000FBF78CF918B1FFE7FBF70AF9FFE70520C7
:1053C00001900620029040F2F870C2F2000001A99C
:1053D000FBF77CF918B1FFE7FBF7FAF8FFE70620C7
:1053E00001900720029040F2F870C2F2000001A97B
:1053F000FBF76CF918B1FFE7FBF7EAF8FFE70720C6
:1054000001900820029040F2F870C2F2000001A959
:10541000FBF75CF918B1FFE7FBF7DAF8FFE70820C4
:1054200001900920029040F2F870C2F2000001A938
:10543000FBF74CF918B1FFE7FBF7CAF8FFE70920C3
:1054400001900A20029040F2F870C2F2000001A917
:10545000FBF73CF918B1FFE7FBF7BAF8FFE704B038
:1054600080BD000080B58CB040F62800C2F200007C
:10547000019046F20041C4F2000101600421416044
:105480004FF0404181600022C2604FF44021016131
:105490004FF4801141610276012141768276C17616
:1054A00002774177FBF7D8FE18B1FFE7FBF790F8DA
:1054B000FFE70021079108910120099002910391D3
:1054C0000491059106910A9040F62800C2F200006E
:1054D00002A9FBF779FC18B1FFE7FBF779F8FFE7C2
:1054E0000CB080BD80B540F65000C2F2000043F21F
:1054F0000001C4F202010160FBF7E8FF18B1FFE709
:10550000FBF766F8FFE780BD80B588B0FFE741F2A2
:105510001400C4F20200016841F00101016000685A
:1055200000F0010007900798FFE70B20009005218D
:10553000049100220592FDF7D5FB0098FDF7C2FB10
:105540000499059A0C200190FDF7CCFB0198FDF71A
:10555000B9FB0499059A0D200290FDF7C3FB029850
:10556000FDF7B0FB0499059A10200390FDF7BAFBF4
:105570000398FDF7A7FB0499059A11200690FDF703
:10558000B1FB0698FDF79EFB08B080BD80B588B0E2
:1055900049F66432C0F6000201210391084601F089
:1055A00029FB039941F2BC22C2F20002106040F2D2
:1055B0000150C0F6000049F6F823C0F600030022AF
:1055C000079201F045FC014640F66C30C2F2000043
:1055D000016000684FF47A7101F094FC49F6BC2236
:1055E000C0F60002059208201021049101F008FA8B
:1055F0000499059A40F66433C2F2000306931860DA
:10560000052001F0FDF9069A0799106045F645500E
:10561000C0F6000049F68822C0F6000201F0A2FBA5
:10562000079940F2F072C2F20002106045F6F56090
:10563000C0F6000049F6D422C0F6000201F092FB49
:1056400040F66831C2F20001086040F60C20C2F258
:10565000000000F0B9FA079B41F2E001C2F200013C
:10566000086041F28820C2F20000436242F2C01199
:10567000C2F2000168464160036047F28530C0F61F
:10568000000049F63931C0F60001802203F0D2FC57
:1056900049F6AC20C0F6000001F0F6F840F66031A3
:1056A000C2F20001086008B080BD000080B594B06F
:1056B00000201390129011901090FFE741F2180013
:1056C000C4F20200016841F010010160006800F0BE
:1056D00010000F900F98FFE7FFE741F21800C4F2A7
:1056E0000200016841F020010160006800F0200024
:1056F0000E900E98FFE7FFE741F21800C4F2020097
:10570000016841F004010160006800F004000D90A0
:105710000D98FFE7FFE741F21800C4F202000168AC
:1057200041F008010160006800F008000C900C983E
:10573000FFE741F20000C4F2010002904FF4005173
:10574000019100220A92FCF70BFA019A02980A9939
:10575000109201220392119212910221139110A929
:105760000691FCF7F5F8039806994FF490521092C1
:105770000022C1F2110204921192129040F60040F0
:10578000C4F201000590FCF7E3F8049B0598069924
:105790000A9A4FF0080CCDF840C011931292FCF712
:1057A000D7F80A9A0920079005210991FDF79AFA7E
:1057B0000798FDF787FA09990A9A17200890FDF7CC
:1057C00091FA0898FDF77EFA09990A9A28200B9019
:1057D000FDF788FA0B98FDF775FA14B080BD00004C
:1057E00080B582B040F6AC10C2F20000019045F2E4
:1057F0000041C4F20001016048F2A061C0F2010161
:10580000416000218160C1604FF4804202614161CA
:105810008161C1610162FCF7DFFD18B1FFE7FAF7B2
:10582000D7FEFFE702B080BD7047000080B582B0B0
:1058300000218DF80610ADF80410009140F60C2000
:10584000C2F2000042F60002C4F2000202604FF011
:10585000FF3242608160FDF7E5FF18B1FFE7FAF71C
:10586000B7FEFFE70F208DF804008DF80500002239
:105870008DF8062040F60C20C2F2000001A9FEF7C8
:10588000B7F918B1FFE7FAF7A3FEFFE704208DF898
:10589000000002208DF801001D208DF80200182064
:1058A0008DF8030040F60C20C2F200006946002289
:1058B000FEF7E8F818B1FFE7FAF78AFEFFE702B053
:1058C00080BD000080B594B0002101911391129128
:1058D000119110910F910E910D910C910B910A91D4
:1058E000099108910791069105910491039140F661
:1058F0002020C2F20000029042F60042C4F20102EF
:105900000260416081604FF6FF72C26001614161D7
:105910008161FEF761FC18B1FFE7FAF759FEFFE776
:1059200000201290139040F62020C2F2000012A92D
:10593000FEF7ECF918B1FFE7FAF74AFEFFE700229D
:1059400000920B920C920D920E920F921092119265
:1059500040F62020C2F200000BA9FEF76DFB18B143
:10596000FFE7FAF735FEFFE700200390049005906B
:10597000069007904FF4005108910A9040F62020BD
:10598000C2F2000003A9FEF79BF918B1FFE7FAF78E
:105990001FFEFFE714B080BD80B582B040F6B02096
:1059A000C2F20000019043F60001C4F2010101605F
:1059B0004FF4E131416000218160C16001610C223E
:1059C00042618161C161FCF7D7F818B1FFE7FAF7CE
:1059D000FFFDFFE702B080BD80B582B040F6F82041
:1059E000C2F20000019044F60001C4F2000101601F
:1059F0004FF4E131416000218160C16001610C22FE
:105A000042618161C161FEF7F7FE18B1FFE7FAF765
:105A1000DFFDFFE702B080BDFFE7FEE7FFE7FEE73F
:105A2000EFF30980BFF36F8F0D4B1A6820E9F00F79
:105A300010602DE908404FF0500080F3118802F00B
:105A400081FC4FF0000080F31188BDE80840196820
:105A50000868B0E8F00F80F30988BFF36F8F7047D4
:105A6000640C00202DE9F041467B877B90F80FC045
:105A7000002958D045F6294E45F628444DF20B78BA
:105A8000012341F2AA52CCF28F2EC0F28F24C0F231
:105A9000A30802E00137013945D00C2EFBD803FAE8
:105AA00006F5154208D01E2FF4D90C2E09D10CF1A1
:105AB000010C01260127EEE715F4256F04D01D2FF8
:105AC000E8D901360127E6E7022EE4D11B2F02D8E0
:105AD00001370226DFE71D2F06D01C2F07D15FEA12
