:020000040800F2
:100000001826002089010008F55700080D4900084E
:10001000F1570008ED040008495F000800000000E7
:10002000000000000000000000000000015B00086C
:10003000950500080000000001580008855C0008D4
:10004000A3010008A3010008A301000879590008D2
:10005000A3010008A3010008A3010008A3010008F0
:10006000A3010008A3010008A3010008350500084A
:100070004505000855050008A3010008A301000874
:100080006505000875050008A3010008A301000824
:10009000A3010008A3010008A3010008A5050008AA
:1000A000A3010008A3010008A3010008A3010008A0
:1000B000A3010008555D0008A301000821490008BC
:1000C00011490008A3010008A3010008A3010008CA
:1000D000A3010008A3010008A3010008395F00087C
:1000E00099050008A3010008A301000800F002F828
:1000F00000F03AF80AA090E8000C82448344AAF188
:100100000107DA4501D100F02FF8AFF2090EBAE885
:100110000F0013F0010F18BFFB1A43F0010318473B
:10012000608A0000808A0000103A24BF78C878C135
:10013000FAD8520724BF30C830C144BF04680C60ED
:10014000704700000023002400250026103A28BF35
:1001500078C1FBD8520728BF30C148BF0B60704739
:100160001FB51FBD10B510BD00F0DDF81146FFF73B
:10017000F7FF06F06BF800F0FBF803B4FFF7F2FFAF
:1001800003BC00F0FFF80000094880470948004719
:10019000FEE7FEE7FEE7FEE7FEE7FEE7FEE7FEE737
:1001A000FEE7FEE704480549054A064B7047000094
:1001B000515D0008ED0000081820002018260020DE
:1001C0001822002018220020032A40F2308010F06C
:1001D000030C00F0158011F8013BBCF1020F6244E2
:1001E00098BF11F801CB00F8013B38BF11F8013B73
:1001F000A2F1040298BF00F801CB38BF00F8013B20
:1002000011F0030300F05780083AC0F0088051F85D
:10021000043B083A51F804CBA0E80810F5E7121D9A
:100220005CBF51F8043B40F8043BAFF30080D207B9
:1002300024BF11F8013B11F801CB48BF11F8012B85
:1002400024BF00F8013B00F801CB48BF00F8012BA8
:10025000704702F0FF0343EA032242EA024200F041
:1002600002B84FF0000200B5134694469646203976
:1002700022BFA0E80C50A0E80C50B1F12001BFF45F
:10028000F7AF090728BFA0E80C5048BF0CC05DF8C5
:1002900004EB890028BF40F8042B08BF704748BF13
:1002A00020F8022B11F0804F18BF00F8012B704787
:1002B00070477047704710B5203AC0F00B80B1E826
:1002C0001850A0E81850B1E81850A0E81850203A8B
:1002D000BFF4F5AF5FEA027C24BFB1E81850A0E894
:1002E000185044BF18C918C0BDE810405FEA827CAE
:1002F00024BF51F8043B40F8043B08BF7047D207C5
:1003000028BF31F8023B48BF11F8012B28BF20F865
:10031000023B48BF00F8012B7047000000487047BF
:100320001000002070477546FFF7F8FFAE46050045
:100330006946534620F00700854618B020B5FFF700
:1003400031FFBDE820404FF000064FF000074FF0AE
:1003500000084FF0000BAC46ACE8C009ACE8C0099F
:10036000ACE8C009ACE8C00921F007018D46704730
:1003700010B50446AFF300802046BDE81040FFF7FB
:10038000FCBE000001491820ABBEFEE726000200BB
:10039000B0B5044600688168C90709D0816821F0BA
:1003A0000101816001F07CF821688968C90701D1E9
:1003B0000020B0BD054603E020688068C007F7D084
:1003C00001F06EF8401B0328F6D320688068C00750
:1003D000F2D0A06A40F01000A062E06A40F0010094
:1003E000E0620120B0BD00000146406A826A12F05E
:1003F000500F03D0006A026B084610470168826AFA
:1004000042F400728262896801F46021B1F5602FC4
:1004100001D1017B09B100F0D1B9816A21F4807169
:100420008162816AC90448BF00F0C8B9816A41F09D
:100430000101816200F0C2B9406A816A41F0400165
:100440008162C16A41F00401C16200F021BA00007A
:10045000406A00F01BBA0000B0B582B0044600202C
:10046000019021688A68D2073DD1886840F0010078
:10047000886040F20000C2F2000000684DF683611F
:10048000C4F21B31A0FB0101880C00BF0190019850
:1004900010B101980138F9E701F002F82168896884
:1004A000C9071CD1054603E020688068C00719D140
:1004B00000F0F6FF401B0328F6D320688068C007D1
:1004C000F2D1A06A40F01000A062E06A40F00100A2
:1004D000E062002084F82400012002B0B0BD0020BA
:1004E00002B0B0BD002002B0B0BD0000FFE7FEE7E3
:1004F00080B582B0019041F2C421C2F20001886946
:10050000C00040F28472C2F2000290819089A0EB98
:1005100010109081C869C000D08100208861C86136
:1005200041F20000C4F201004FF4005100F0AAFFB4
:1005300002B080BD80B540F2D870C2F2000000F079
:1005400079FC80BD80B540F6E800C2F2000000F002
:1005500071FC80BD80B540F6A400C2F2000000F03E
:1005600069FC80BD80B540F66000C2F2000000F07A
:1005700061FC80BD80B540F61C00C2F2000000F0B6
:1005800059FC40F69031C2F2000108780130087041
:1005900080BD00007047000080B54FF4805000F02F
:1005A00065FE80BD80B54FF4007000F05FFE80BD39
:1005B00081B0EFF3108072B60090FFE7FEE7000015
:1005C00070B582B004460020019094F82400012800
:1005D00001D1022566E0012084F824002046FFF7BF
:1005E000D7FE2046FFF738FF0546002857D1A06AFE
:1005F00041F2021188430230A06240F20000C2F2D0
:1006000000000668022002F05DF9B6FBF0F0400041
:100610000190019810B101980138F9E720688168CC
:1006200041F00801816000F03BFF21688A681207F1
:100630000DD4886840F00400886000F031FF216824
:100640008968490714D401206FF0030123E00646AE
:1006500004E000BF216888680007EAD500F020FFA9
:10066000801B0B28F6D3206880680007F2D50EE0C7
:10067000064603E0206880684007E4D500F010FFDC
:10068000801B0B28F6D3206880684007F2D501252F
:1006900010206FF01201A26A11400843A0620020EE
:1006A00084F82400284602B070BD0000B0B581B0C7
:1006B0000022009290F82420012A01D1022179E041
:1006C0004A680123062A02EB820C80F8243005D800
:1006D000026802F1340E6FF004020AE003680C2A8B
:1006E00087BF03F12C0E6FF0400203F1300E6FF064
:1006F00022026244DEF800C01F230C6893402CEAFB
:10070000030304FA02F21A43CEF80020D1F800E005
:1007100002680EEB4E041023BEF1090F88BF1E3C89
:1007200088BF0C2352F803C007258968A5402CEA2E
:100730000505A1402943D1502EF001014FF0000CD6
:1007400010294FF0000133D1016842F20042C4F297
:100750000102914205D0816A41F0200181620121AC
:1007600026E09268120222D48A68BEF1100F42F489
:1007700000028A601BD140F20001C2F20001096848
:100780004DF68362C4F21B32A1FB0212910C01EB05
:10079000810149000091009949B100BF00990139D8
:1007A0000091009900294FF00001F7D100E00021ED
:1007B00080F824C0084601B0B0BD000080B58CB000
:1007C0000B900B98006842F20041C4F2010188428C
:1007D00059D1FFE740F2A470C2F2000000F026FAFF
:1007E00001A82821FFF73DFD0020ADF80200FFE73A
:1007F000BDF80200272828DCFFE700208DF8010063
:10080000FFE79DF80100092818DCFFE7BDF80200AA
:100810009DF80120811840F27000C2F2000030F80B
:10082000113001A951F82200184441F82200FFE7D5
:100830009DF8010001308DF80100E2E7FFE7BDF807
:1008400002000A30ADF80200D2E700208DF8000067
:10085000FFE79DF80000092814DCFFE79DF8002061
:1008600001A850F82200800841F2C421C2F2000120
:1008700001EB42018880FFE79DF8000001308DF810
:100880000000E6E7FFE70CB080BD00007047000005
:1008900070470000B0B5002846D00446806A30B9E1
:1008A0000020E06284F82400204600F0A1F82068CF
:1008B0008168C90709D0816821F00101816000F0D9
:1008C000EFFD21688968C90730D100200121A36AA2
:1008D000A26A31B313F0100123D141F2021122EACE
:1008E00001010231A162E169D4E9013241EA030C5C
:1008F000531EB3FA83F35D091346B2F5807F18BF28
:100900002B02217D257B01294CEA450E31D13DB3D7
:10091000A56A45F02005A562E56A45F00105E56296
:1009200027E042F01000A0620120B0BD054603E0C0
:1009300020688068C007C8D000F0B2FD401B0328C3
:10094000F6D320688068C007F2D0A06A002140F08A
:100950001000A062E06A40F00100E0620120B6E70A
:10096000D4F818C04EF60005CFF6FF7505EB4C35F0
:100970002B432568B2F5807F696821F4694141EA1B
:1009800003016960A9684FF2FD73CFF6E17301EAD4
:10099000030141EA0E01A96001D0012A06D12169B3
:1009A0000022CFF6F07202EB015200E00022E96A69
:1009B00021F470011143E962A96840F6FE62CFF6A6
:1009C0001F721140714507D10021E162A16A012225
:1009D00062F30101A162B0BDA06A40F0100020F0F6
:1009E0000200A062E06A40F00100E0620120B0BDB8
:1009F00080B58CB00B9000200A9009900890079069
:100A00000B98006842F20041C4F2010188426FD1A4
:100A1000FFE7FFE741F21800C4F20200016841F469
:100A200000710160006800F4007006900698FFE70E
:100A3000FFE741F21800C4F20200016841F004012E
:100A40000160006800F0040005900598FFE7FFE7EB
:100A500041F21800C4F20200016841F0080101608F
:100A6000006800F0080004900498FFE7FF2007905A
:100A700003200190089040F60000C4F2010007A98D
:100A8000029100F0FFFB019802990790089040F650
:100A90000040C4F2010000F0F5FB40F2D870C2F251
:100AA000000003900821C4F20201016000214160AE
:100AB00081608021C1604FF4807101614FF48061D9
:100AC0004161202181614FF40051C16100F06AFA57
:100AD00018B1FFE7FFF76CFDFFE7FFE70B9840F267
:100AE000D871C2F2000101620B984862FFE7FFE78C
:100AF0000CB080BD2DE9F0410546006842F60006C5
:100B0000C4F201069046B0420F4605D042F20041C1
:100B1000C4F2010188420AD142F20440C4F2010049
:100B2000006810F4702F1CBF0120BDE8F08195F81B
:100B30002400012804BF0220BDE8F081012085F8CF
:100B400024002846FFF788FC044628B1002085F8D9
:100B500024002046BDE8F08142F204402968AA6AD8
:100B6000C4F2010040F601739A4300F57F7302F569
:100B700080729942AA6207D0A86A20F48010A86205
:100B80004868400518D512E0026812F4702FF3D0BF
:100B9000AA6AB14242F48012AA6205D042F200422F
:100BA000C4F20102914207D10068400504D5A86A49
:100BB000012262F30D30A862AA6A0020D2044FF02D
:100BC000000244BFEA6A22F00602EA6285F82400C5
:100BD000286A40F2E932C0F6000240F2514340F286
:100BE000394600F1280CC0F60003C0F600068CE878
:100BF0004C006FF002020A608A68434642F4807239
:100C00008A604C313A4600F011FA2868816801F494
:100C100060228168B2F5602F0CBF41F4A00141F45D
:100C2000801181602046BDE8F0810000B0B5044627
:100C300090F82400012804BF0220B0BD01212068E3
:100C400084F824108268D20703D10020002941D003
:100C500028E0816821F00101816000F021FC216819
:100C60008968C90703D10020012199B31AE005461C
:100C700004E000BF20688068C007F4D000F010FCDA
:100C8000401B0328F6D320688068C007F2D0A06A12
:100C9000002140F01000A062E06A40F00100E06234
:100CA0000120B9B12268216A936823F480739360AC
:100CB00091F82120022A0DD1084600F00FF8A16A10
:100CC00041F2011221EA020241F04001002808BF6E
:100CD000511CA162002184F82410B0BD014690F897
:100CE0002100022813D10868D1E90FC3026822F05D
:100CF0000E020260026822F001020260012000FA86
:100D000003F2CCF8042081F82100002002E0042046
:100D100088630120002281F82020704780B590F878
:100D20002110022923D10268116821F00E011160FF
:100D30002F211368C4F202018A4240F20401C4F276
:100D4000020123F00103136015DD3023C4F2020316
:100D50009A421CD04423C4F202039A421AD0582368
:100D6000C4F202039A421AD14FF480331FE00421E7
:100D70008163012080BD0823C4F202039A420CD093
:100D80001C23C4F202039A4209D110230FE04FF44E
:100D900080730CE04FF4805309E0012307E001F178
:100DA000680C4FF08073624508BF4FF480130B60EE
:100DB000012180F82110426B002180F820100AB137
:100DC00090470021084680BD4FF0010160B30268E2
:100DD0004FF6F873CBF6FD7302EB030C4CF6CD43E4
:100DE000CCF6CC43ACFB033C136823F00103136047
:100DF0000023136053609360D3606FF0030202EA34
:100E00009C0240F2000CC4F2020C9140C0E90FC2F7
:100E1000CCF804100021C0E90A33C0E90C33836325
:100E200080F8213080F820300846704790F8210083
:100E30007047000010B5D0E90FCE0168DCF8003033
:100E40000A6823FA0EF35C0724D512F0040421D0BB
:100E50000A68920603D40A6822F004020A602F226C
:100E6000C4F20202914240F20402C4F2020253DDD3
:100E70003023C4F20203994266D04423C4F2020331
:100E8000994264D05823C4F20203994264D14FF4CA
:100E9000802369E09C0727D512F0020424D00A6859
:100EA000920606D40A6822F00A020A60012280F83B
:100EB00021202F22C4F20202914240F20402C4F225
:100EC000020235DD3023C4F20203994252D044239A
:100ED000C4F20203994250D05823C4F2020399424B
:100EE00050D14FF4003355E01B075AD512F00802D9
:100EF00008BF10BD0A6822F00E020A60012101FA43
:100F00000EF2CCF80420816380F82110016B0022DE
:100F100080F8202059BB44E00823C4F20203994220
:100F200018D01C23C4F20203994215D140231BE0C0
:100F30000823C4F20203994222D01C23C4F2020304
:100F400099421FD1202325E04FF480630CE04FF439
:100F5000804309E0042307E002F168044FF0806356
:100F6000A14208BF4FF480031360C16AC9B1BDE854
:100F7000104008474FF400730CE04FF4005309E0B1
:100F8000022307E002F168044FF00073A14208BF9A
:100F90004FF400131360816A0022002980F820209A
:100FA000E5D110BD014600284FF0010008BF704791
:100FB0002DE9F043D1F800C04FF6F873CBF6FD737E
:100FC0004CF6CD426344CCF6CC42A3FB02236FF037
:100FD000030707EA93030027C4F2020701F10C0993
:100FE000C1E90F730223D1E9012E99E87002D1F80B
:100FF0001C8081F82130DCF8003043F6F077BB43E9
:101000001A4342EA0E0222432A43324342EA0902C9
:1010100042EA0802CCF8002000228A6381F821000D
:1010200081F820200020BDE8F0437047F0B590F82B
:1010300020C0BCF1010F2FD04FF0010E80F820E04E
:1010400090F821C0BCF1010F23D14FF0020C80F8C1
:1010500021C04FF0000CC0F838C0D0E900C4C56A08
:10106000C66BDCF80070102C27F00107CCF800707C
:10107000006C0EFA00F070600846CCF8043004BF33
:1010800010460A46CCF80800CCF80C2035B10E20EA
:101090000BE0002180F820100220F0BDDCF80000F9
:1010A00020F00400CCF800000A20DCF8001008430F
:1010B000CCF80000DCF8000040F00100CCF80000A3
:1010C0000020F0BDB0B5044600F0EAF9054640F254
:1010D0000500C2F200000078611C18BF044400BF84
:1010E00000F0DEF9401BA042FAD3B0BD2DE9F04F6D
:1010F00081B0002900F0878040F2004341F20042B5
:10110000C4F20103C4F2010290424FF004024FF016
:1011100000046FF01F05A3F57E774FF00F0908BF9D
:10112000032200921AE000BF0246BBF5807F24BF75
:10113000AA460432166809FA0AF326EA03030426CB
:1011400006FA0AF633431360C26822EA0B02C26051
:10115000013431FA04F205F1040554D0012202FAF7
:1011600004F616EA010BF3D024F0030640F6000261
:1011700057F806C0C4F20102904213D040F6004274
:10118000C4F2010290420AD041F20002C4F201020C
:10119000DDF80080904208BF4FF0020804E04FF0F5
:1011A000010801E04FF0000805F1200A0AF00C06E2
:1011B00009FA06FE0CEA0E0208FA06F6B242B3D1AC
:1011C00040F20042C4F20102BC461746126840F2E7
:1011D0000C4322EA0B023A607A68C4F2010322EA65
:1011E0000B027A601A68A60822EA0B021A60BA6833
:1011F00022EA0B02BA605CF82620674622EA0E0259
:101200004CF8262090E701B0BDE8F08F81B0ADF832
:101210000200BDF80200B0F5007F0FD1FFE741F2F8
:10122000C421C2F2000188690130886140F27C71FA
:10123000C2F20001086801300860FFE7BDF8020053
:10124000B0F5805F0FD1FFE741F2C421C2F2000187
:10125000C8690130C86140F28071C2F200010868BB
:1012600001300860FFE701B07047000040F2144110
:10127000C4F201010A68024214BF08607047FFF718
:10128000C5BF00002DE9F04F82B00E68002E00F0BF
:10129000F68041F20042C4F20102042340F2004E03
:1012A000904208BF03234FF6FF7CC4F2010E009367
:1012B00000240123C1F2100C4FF0000A4FF0000986
:1012C00043E0012704F00C030F229A402BEA0202AC
:1012D00007FA03F34FEA9A051A4346F825204E68A9
:1012E00040F20C45F202DEF8082054BF22EA080260
:1012F00042EA0802C4F20105CEF808202A68B302C7
:1013000054BF22EA080242EA08022A60B303DEF868
:10131000042054BF22EA080242EA0802F303CEF88E
:101320000420DEF800204FF0010354BF22EA080237
:1013300042EA0802CEF800200E680AF1010A36FAE5
:101340000AF204F1040400F09A8003FA0AFB16EA98
:101350000B08F1D04E68664510DC122E50D8DFE83D
:1013600006F0330A41454F4F4F4F4F4F4F4F4F4FAE
:101370004F4F4F484C00D1F80C9041E04FF6FF72B0
:10138000C1F2210296420FDC0022C1F21102964204
:101390001AD00022C1F21202964215D00022C1F2E8
:1013A0002102964210D02BE00022C1F22202964286
:1013B0000AD00022C1F23102964205D00022C1F2C9
:1013C000320296421CD100BF8A6842B1012A14BF82
:1013D000C0F814B0C0F810B04FF0080910E04FF09A
:1013E00004090DE0CA6802F1080909E04FF000099C
:1013F00006E0CA6802F1040902E0CA6802F10C09B9
:1014000022460646B8F5807F24BF203A0436376866
:101410000F25954027EA050509FA02F22A433260B2
:10142000CA79D2067FF588AF41F21803C4F20203ED
:101430001A68AEF57E7642F001021A601A6802F070
:1014400001020192019A2AF0030256F802B040F616
:101450000002C4F2010290420FD040F60042C4F2F2
:10146000010290423FF42DAF41F20002C4F20102AA
:10147000009F904208BF022724E7002722E702B01E
:10148000BDE8F08FC26802EA0103914341EA0341DB
:1014900001617047002A08BF09040161704700001C
:1014A00041F6F860C2F2000000687047002804BFEF
:1014B0000120704710B5044690F8410028B900207B
:1014C00084F84000204603F045F8242084F84100C9
:1014D0002068D4E90212C36823F40053C36003698F
:1014E00023F440531A430261D4E904231143C26830
:1014F000194341F20C639A431143C1604169A269E7
:1015000021F44071114343F60002C4F201029042FB
:10151000416102D001F0D4FB01E001F0E5FB62681B
:10152000192148439100B0FBF1F048F21F51C5F278
:10153000EB11A0FB01235A094FF69C73C0F6FF7311
:1015400002FB0300322303EB0010A0FB0101F02398
:1015500003EA5113206803EB0212C1F34311114453
:101560008160016921F490410161416921F022010A
:101570004161416941F008014161C16841F4005194
:10158000C16000202021606484F8411084F842107A
:10159000606310BD7047000070470000002804BF62
:1015A0000120704710B50446242084F83D002068CF
:1015B000016821F001010160204600F077FF002062
:1015C000206484F83D00206384F83E0084F83C00E9
:1015D00010BD0000F0B581B00446006800254669E2
:1015E000426894F83E1002F48077F20508D53FB1C6
:1015F0006FF4807242610268012542F40042026089
:10160000B20505D5002F1EBF02356FF4007242618E
:10161000720516D5AFB1628D94F83D30D4F830C064
:10162000202908BF002A21D06FF48062402905F1EB
:101630000405426101D0102903D1016841F4007111
:101640000160300505D527B1206808356FF40061C9
:1016500041614DB1206C40EA05012046216401B092
:10166000BDE8F04003F084BA01B0F0BD03F0F7022A
:10167000212A04D0282B08BFBCF1210FD4D194F823
:101680003D10E26AB2F1080318BF0123203A18BFE7
:101690000122134208BF282920D0212938D1002156
:1016A000CFF6FF71E16221212163202184F83D10F2
:1016B000002184F83E10426822F4E06242606FF438
:1016C00080624261026822F480620260426912060E
:1016D00048BF0161204600F0B9FFB2E70021CFF614
:1016E000FF71E162416821F4E06141606FF4806163
:1016F0004161016821F480610160002020212063A4
:1017000084F83D1084F83E00204600F047FD98E73D
:101710006FF48061416194E7F0B581B007680446D9
:101720007A68C06A94F83E3094F83DE0402B01D0CE
:10173000102B0CD1BE697D69E90734D1B0F12A4F75
:1017400000F05682B0F52A0F00F052822DE0206C96
:1017500002F4007300280CBFBE6900267D69A8074B
:101760003CD5DBB3206C002818BFBE6994F83D005F
:1017700000F02800282840F08E807868002320F4AC
:1017800080607860012020EA960130064FF0180052
:1017900058BF0C20225A204684F83C3001B0BDE8E6
:1017A000F040FFF7F9BE900542D4280702F4007C10
:1017B00044D5BCF1000F41D0606B616CC9B2396196
:1017C00018B1806A002840F0D480A06B002800F097
:1017D0000F82806A002840F0CC8009E2E80665D5D7
:1017E000002B63D094F83D50786820F4E060786076
:1017F0000020009078690090386840F0010038605F
:101800000098386820F4806038607868000540F1FE
:10181000478105F0F7002646222840F0208156F83F
:10182000380F0168496826F80E1C36F80E1C1EE1B8
:10183000E06AB0F52A0F6ED1012071E0A80740F1EF
:101840009E80BCF1000F00F09A8094F83E30E06A70
:10185000226B94F83D10222940F0AB80216D0029C5
:1018600008BF402B00F0A580216D002940F0978132
:101870002169B1F5404F40F09281002000907869D5
:101880000090B86900900098386840F48070386023
:10189000206D01303EE20020009079690091B96925
:1018A0000091009984F83C0001B0F0BD0EF0F70003
:1018B00002F48062212805F0040040F083802906AC
:1018C00040F13781002A00F03481002840F0318156
:1018D00094F83D00618D002900F08A81616A11F859
:1018E000012B3A616162618D01396185618D002949
:1018F00008BF292840F07C817868282120F4806086
:10190000786021202063204684F83D1001B0BDE8B6
:10191000F04000F09BBEE06AB0F12A4F01D10820F0
:10192000E06294F83E0040280AD1206D616C0028E6
:1019300001F0FE0018BF40F00100386101B0F0BDB9
:101940002069B0F5804F67D194F83D00616C212883
:1019500001F0FE0118BF01313961606B08B1806A86
:1019600038B9A06B002800F04381806A002800F09D
:101970003F81786840F40060786001B0F0BD78681D
:10198000710700F4006055D4002840F031816806EA
:1019900005F0040040F11C8112F4806100F0188110
:1019A000002840F01581204601B0BDE8F04003F06A
:1019B000FFB90020009078690090B8690090009805
:1019C00001B0F0BD690640F1C080002A00F0BD8082
:1019D000002840F0BA8094F83D00618D002900F0A5
:1019E00007813969626A1170616A01316162618DD2
:1019F00001396185618D002908BF2A2840F0F880EF
:101A00002068416821F48061416022202821206300
:101A1000204684F83D10BDE0206D002800F0A7802E
:101A2000206D012840F0E480606C062101EAD010AE
:101A3000F13082E7002840F0DB80280605F0040042
:101A400040F1D18012F4806100F0CD80002840F098
:101A5000CA80204601B0BDE8F04003F06FBA56F8E6
:101A6000340F0168496826F80A1C36F80A1C19B1B7
:101A7000216C41F004012164796821F400617960EE
:101A8000FFF7D4F901280BD0306844F63111C0F6C5
:101A900000014163FFF742F910B13068416B88479C
:101AA000608DF8B120684169490708D50069616A0D
:101AB0000870606A01306062608D0138608520685E
:101AC0004169490608D50069616A0870606A013099
:101AD0006062608D01386085608D18B1206C40F0C7
:101AE00004002064206C28B1204601B0BDE8F0401D
:101AF00003F03EB82A2D07D100202063282084F867
:101B00003D00204600F0A0FD94F83D00282834D187
:101B10000020CFF6FF70E06200212020216384F8CE
:101B20003D00204684F83E1001B0BDE8F04000F0D2
:101B300035BB002818BF002B5AD0608D002857D025
:101B4000606A10F8011B39610BE0002818BF002BF8
:101B50004ED0608D00284BD03869616A0870606A89
:101B600001306062608D0138608501B0F0BD606C4D
:101B7000062101EAD010F030DFE6206B222818BFE2
:101B8000222D35D100212020216384F83D002046FC
:101B900084F83E1001B0BDE8F04000F055BD618D05
:101BA00051B1618D012925D1202818BF082859D1AC
:101BB000386820F4806038600020009078690090D8
:101BC000B86900900098386840F400703860A0E070
:101BD000002818BFBCF1000F0AD0204601B0BDE8B4
:101BE000F04003F073B8002818BFBCF1000F19D102
:101BF00001B0F0BD618D02291DD110285DD80121F1
:101C000014228140C0F20102114256D0396841F4D9
:101C1000806139600021009179690091B969009172
:101C2000009959E0BEF1210F2BD1204601B0BDE84B
:101C3000F04003F043B9396841F480613960796854
:101C400009055FD5421E1F2A59D80121914048F24B
:101C50008102C8F20002114251D0786840F48050ED
:101C600078604FE010F5803F13D1386820F4806031
:101C70003860786800059FD5386820F48060386047
:101C800040E0402BB4D1204601B0BDE8F04003F065
:101C9000ADB9122A02D101287FF48AAF1028EBD8FF
:101CA000012101FA00F01421C0F201010842E3D041
:101CB000386840F48060386024E0396841F400619D
:101CC00039600021009179690091B969009100990A
:101CD000396821F4806139607968090519D5421E97
:101CE0001F2A1AD80121914048F28102C8F200024D
:101CF000114212D0786840F48050786009E010F505
:101D0000803FAAD00020009078690090B8690090C8
:101D100000980020206501B0F0BD10F5803FE9D0AB
:101D2000F7E7000080B582B00190019800F008F854
:101D3000042803D0FFE7FEF73BFCFFE702B080BDBD
:101D4000006C704790F83D0070470000F0B581B01E
:101D5000B0B3044690F83D0028B9002084F83C0058
:101D6000204600F0D5FB242084F83D00206801685F
:101D700021F001010160016841F400410160016846
:101D800021F40041016000F09BFF48F28041C0F265
:101D90001E0140F60012656888424FF00001C0F253
:101DA0003D0248F2A16C4FF0000338BF0121904280
:101DB000C0F2010C38BF0123654538BF0B4613B193
:101DC000012001B0F0BD4DF68361C4F21B31A0FBD0
:101DD000011221684FEA924E4B684FF4967623F039
:101DE0003F0343EA92434B6044F6D3530F6A0EFB22
:101DF00006F6C1F26203A6FB033627F03F03B709DC
:101E0000654538BF970C7A1C1A430A62CA6948F2C2
:101E1000A0674CF6FF73C0F20107BD4222EA030C33
:101E20000AD801386A00B0FBF2F001306FF31F30BE
:101E3000042898BF04202BE0A368A0F1010E9BB1F9
:101E400019206843BEFBF0F00422013062F31F301A
:101E5000000512D09BB119206843BEFBF0F00422AC
:101E6000013062F31F3011E005EB4500BEFBF0F0DE
:101E700001306FF31F300005ECD1012008E005EBC5
:101E80004500BEFBF0F001306FF31F3040F400401E
:101E900040EA0C00C8610868D4E9072320F0C000BC
:101EA000104318430860886848F2FF3204F10C07B9
:101EB00090438CCF18431043A6698860C86820F00F
:101EC000FF0038433043C860086840F001000860F4
:101ED00000202021206484F83D10206384F83E0017
:101EE00001B0F0BD2DE9F04F83B01E469246884602
:101EF0000446FFF7D5FA94F83D1020290BD105468A
:101F00002068806910F002000AD194F83C00012892
:101F10002DD1022600E00226304603B0BDE8F08F46
:101F20004FF0010989EA500707E000BF2068806987
:101F300010F0020089EA5007E7D0FFF7B1FA401B22
:101F40001A28F3D3206880698007EFD5002020216C
:101F5000206384F83D1084F83E00216C41F020019C
:101F60002164F90784F83C00CFD10226D4E74FF072
:101F7000010B206884F83CB00168C90703D10168EF
:101F800041F0010101600168BAF1010F21F4006123
:101F900001604FF0240084F83D004FF00000206401
:101FA00040F20000CFF6FF70E06208F0FE00019002
:101FB00098BFDA46CDF800A006F1010A4FF00008FC
:101FC00006E000BF009808F10108804500F0AF80EE
:101FD0002068016841F480710160406910F00100DF
:101FE0002AD180F001090AE020684069C00711D0B9
:101FF0002068406910F0010080F001091CD1BAF19D
:10200000000FF5D0FFF74CFA002EEDD0401BB04288
:10201000EED9E9E700212020216384F83D0084F80F
:102020003E10206C40F0200020645FEAC97084F804
:102030003C1040F0AA8000BF206801990161FFF7C1
:102040002FFA216805464B694A6994F83D70A02F24
:1020500021D013F002001ED112F480604FF0A007CF
:1020600019D100BFFFF71CFA36B1401BB04288BF40
:1020700084F83D7002E000BF84F83D7021684A6931
:10208000486994F83D30A02B05D012F0020208BF39
:1020900010F48060E6D0202084F83D0048690A688A
:1020A000800742F400720A602FD46FF480604861A8
:1020B0002068806910F002003FF484AF8BEA50077B
:1020C00008E000BF2068806910F002008BEA50072A
:1020D0003FF478AFFFF7E4F9401B1A28F2D32068E9
:1020E00080698007EED500212020216384F83D001F
:1020F00084F83E10206C40F020002064F80784F83B
:102100003C107FF45FAF012606E70026029648697F
:1021100002908869029002982068806910F002009D
:102120000DD1202084F83D0084F83C60F4E62020A6
:1021300084F83D000020012684F83C00ECE64FF0D6
:10214000010888EA500706E02068806910F0020064
:1021500088EA5007E5D0FFF7A3F9401B1A28F3D30C
:10216000206880698007EFD500202021206384F853
:102170003D1084F83E00216C41F020012164F907F4
:1021800084F83C00CDD10126C6E62068032600680D
:10219000C00544BF4FF400702064BDE670470000E6
:1021A00081B0009040F69031C2F200010120087029
:1021B00040F69831C2F2000108680130086001B0B1
:1021C0007047000081B0009040F69131C2F20001EA
:1021D0000120087040F69431C2F200010868013015
:1021E000086001B07047000070B582B0044600205E
:1021F000019094F83D0020281FD140F20000C2F267
:10220000000000684BF28956C008C1F2F846A0FBF6
:102210000606300A19267043019000BF0198013864
:102220000190019858B12568A8698007F6D494F800
:102230003C00012812D102260DE002260BE000200E
:102240002021206384F83D1084F83E00206C022693
:1022500040F020002064304602B070BD012084F8B8
:102260003C002868C00703D1286840F001002860BE
:102270002868002620F400602860222084F83D00B1
:10228000102084F83E00266462626385638D00201E
:10229000CFF6FF702385E06261640BB3A06B70B36F
:1022A00044F65121C0F6000144F6152C00F1280E29
:1022B000C0F6000C00268EE8421005F110014663BE
:1022C000FEF7B4FE48B3202084F83D0084F83E6059
:1022D000206C40F01000206484F83C600126BAE7CE
:1022E00084F83C60686840F4E0606860286840F406
:1022F00080602860286840F480702860ABE7202068
:1023000084F83D00002084F83E00216C012641F055
:102310008001216484F83C009DE72068016841F455
:1023200080610160016841F48071016084F83C6063
:10233000416841F440714160416841F4006141608D
:1023400089E7000070B582B004460020019094F83F
:102350003D0020281FD140F20000C2F200000068BA
:102360004BF28956C008C1F2F846A0FB0606300AB7
:1023700019267043019000BF01980138019001981F
:1023800058B12568A8698007F6D494F83C00012864
:1023900012D102260DE002260BE00020202120634E
:1023A00084F83D1084F83E00206C022640F02000A6
:1023B0002064304602B070BD012084F83C002868DB
:1023C000C00703D1286840F0010028602868002673
:1023D00020F400602860212084F83D00102084F85B
:1023E0003E00266462626385638D0020CFF6FF7035
:1023F0002385E06261641BB3606B80B344F65121B6
:1024000044F6152CC0F60001C0F6000C00F1280EB1
:1024100000268EE8421005F1100C11466246466314
:10242000FEF704FE48B3202084F83D0084F83E60A7
:10243000206C40F01000206484F83C600126B8E76E
:10244000286840F480602860286840F48070286024
:1024500084F83C60686840F4E0606860A9E7202088
:1024600084F83D00002084F83E00216C012641F0F4
:102470008001216484F83C009BE7206884F83C607C
:10248000416841F440714160416841F4006141603C
:10249000016841F480610160016841F4807101606C
:1024A00087E70000704700007047000080B582B0E9
:1024B00001900198006845F20041C4F20001884291
:1024C00023D1FFE741F21C01C4F20201086820F4A5
:1024D0000010086040F60040C4F201000090402166
:1024E000FEF704FE00988021FEF700FE0198406B85
:1024F000FEF76AFC0198806BFEF766FC1F2000F077
:102500007BF9202000F078F9FFE702B080BD0000E1
:1025100080B58EB00D9000200C900B900A90099021
:102520000D98006845F20041C4F20001884240F075
:102530008880FFE7FFE741F21800C4F2020001685B
:1025400041F008010160006800F008000890089858
:10255000FFE7C020099012200A9003200C9040F65B
:102560000040C4F2010009A9FEF78CFEFFE741F22A
:102570001C00C4F20200016841F40011016000680F
:1025800000F4001007900798FFE740F66000C2F2E1
:10259000000006906C21C4F202010160102141602C
:1025A000002181608022C260016141618161C1615D
:1025B000FEF7F8FC18B1FFE7FDF7FAFFFFE7FFE7CA
:1025C0000D9840F66001C2F2000141630D98486227
:1025D000FFE740F61C00C2F2000005908021C4F223
:1025E000020101600021416081608022C2600161BE
:1025F00041618161C161FEF7D5FC18B1FFE7FDF7CC
:10260000D7FFFFE7FFE70D9840F61C01C2F200017B
:1026100081630D984862FFE71F2001900521029118
:102620000022039200F00CF9019800F0F9F80299E9
:10263000039A2020049000F003F9049800F0F0F8C9
:10264000FFE70EB080BD000070470000704700003B
:1026500040F2050041F6F861C2F20000C2F200014A
:1026600000780A68104408607047000080B542F2A4
:102670000000C4F20200016841F010010160032073
:1026800000F00AF90F2000F005F800F07BF80020B8
:1026900080BD000080B58CB00B90002004900390AA
:1026A0008DF80700FFE741F21C00C4F20200016848
:1026B00041F002010160006800F002000090009803
:1026C000FFE706A802A900F0D9FA09980490049837
:1026D00020B9FFE700F0F4FA059004E000F0F0FA0A
:1026E00040000590FFE705984DF68361C4F21B3169
:1026F000A0FB01014FF0FF3000EB9140039040F64A
:102700002420C2F2000040F20041C4F20001016046
:1027100040F2E731C16003994160002101618160AD
:10272000816101F0DDF88DF807009DF8070028BBF6
:10273000FFE740F62420C2F2000001F03FF98DF8D7
:1027400007009DF80700C0B9FFE71D2000F068F8FA
:102750000B980F280CD8FFE70B991D20002200F0E2
:102760006FF80B9840F20801C2F20001086003E024
:1027700001208DF80700FFE7FFE7FFE79DF807005E
:102780000CB080BD80B584B0FFE741F21800C4F200
:102790000200016841F001010160006800F00100E1
:1027A00003900398FFE7FFE741F21C00C4F2020028
:1027B000016841F080510160006800F08050029093
:1027C0000298FFE76FF001000F21002200F038F8B7
:1027D000FFE70421C4F2010108680190019820F08C
:1027E000E0600190019840F000700190019808604D
:1027F000FFE704B080BD0000002848BF704700F02C
:102800001F01012202FA01F14EF280124009CEF2BC
:10281000000242F82010BFF34F8FBFF36F8F704755
:10282000002848BF704700F01F01012202FA01F1A1
:102830004EF200124009CEF2000242F8201070471A
:1028400010B54EF60C5CCEF2000CDCF80030C3F391
:10285000022E8EF00704042C28BF0424BEF10303CB
:102860004FF0FF3E0EFA04F438BF0023A143994015
:102870000EFA03F39A43114300F1604200F00F0394
:10288000090102F56442043B6344002848BF03F198
:102890000C02117010BD00004EF60C51CEF200017A
:1028A0000A684FF6FF031A4060F30A2242F0806084
:1028B00040F0FD70086070472020C4F20E20012116
:1028C0000160704780B5012818D0022841D0102837
:1028D0003DD141F20401C4F202010A6851F8040C2E
:1028E000C00134D5C2F383402EA3185CD2033FD479
:1028F00040F60012C0F23D02504345E041F20400B0
:10290000C4F20200C16940F202320A40B2F5817F8E
:1029100004BF4FF4004080BD01F44071B1F5407F29
:102920000DD0B1F5007F12D1026A920744BF49F67B
:10293000404080BDB1F5407F1CBF002080BD50F8F5
:10294000040C4FF22441800301EAE07080BD0020B6
:1029500080BD00F0C9F941F20401C4F20201096826
:102960000222C1F3813102EB4101B0FBF1F080BDE5
:102970000A6810A3C2F340429A5C41F20023C0F2FD
:102980007A03B3FBF2F250430968490248BF80BDA5
:102990004AF6AB214000CAF6AA21A0FB0101480873
:1029A00080BD00BF02030405060708090A0B0C0DD1
:1029B0000E0F1010010200002DE9F04182B0044614
:1029C000007841F21C06C007C4F202064AD0306803
:1029D00010F0805808D1306840F080503060306886
:1029E00000F080500190019847F20007C4F2000700
:1029F0003868C00512D4386840F480703860FEF73B
:102A00004FFD05463868C00508D4FEF749FD401B58
:102A10006428F7D9032002B0BDE8F081706810F493
:102A2000407012D0616801F4407188420DD0706826
:102A300040F24042C4F24222012320F4407113606C
:102A40000023C0071360716029D17068616820F4A9
:102A500040700843B8F1000F706003D1306820F077
:102A6000805030602068810707D556F8181CA2688E
:102A700021F44041114346F8181CC00603D400203D
:102A800002B0BDE8F08156F8180CE16820F480002F
:102A9000084346F8180C002002B0BDE8F081FEF7AC
:102AA000FFFC054641F2883770688007CDD4FEF7F9
:102AB000F7FC401BB8424FF00300F5D9ECE70000EB
:102AC0002DE9F04381B0002800F0858042F2000833
:102AD000C4F202080446D8F800000D4600F00700D2
:102AE00088420CD2D8F8000020F007002843C8F82C
:102AF0000000D8F8000000F00700A8426BD1206861
:102B000041F204098107C4F2020917D5410705D52E
:102B1000D9F8001041F4E061C9F80010010705D5AB
:102B2000D9F8001041F46051C9F80010D9F800102C
:102B3000A26821F0F0011143C9F80010C00741D18B
:102B4000D8F8000000F00700A8420CD9D8F800001F
:102B500020F007002843C8F80000D8F8000000F073
:102B60000700A84237D12068410707D5D9F80010DF
:102B7000E26821F4E0611143C9F80010000708D5AC
:102B8000D9F80000216920F4605040EAC100C9F87A
:102B90000000D9F8002002F00C00082841F20020C3
:102BA000C0F27A004ED148F6A223C2F38341C0F6A8
:102BB0000003595CD20339D440F60010C0F23D0046
:102BC00048433FE06068022809D0012829D159F81C
:102BD000041C890307D4012001B0BDE8F08359F833
:102BE000041C8901F7D5D9F8001021F0030108432E
:102BF000C9F80000FEF754FC064641F2883700BFD2
:102C0000D9F80000616800F00C00B0EB810F97D09C
:102C1000FEF746FC801BB842F2D9032001B0BDE8A4
:102C2000F08359F8041C8907D5D5DCE7D9F80020D2
:102C300048F6A023C2F34042C0F600039A5C484322
:102C4000B0FBF2F0D9F8001048F68822C1F3031166
:102C5000C0F60002515C40F2000220FA01F140F29D
:102C60000800C2F200000068C2F200021160FFF723
:102C700011FD002001B0BDE8F08300000F220260CA
:102C800041F20402C4F20202136803F0030343603A
:102C9000136803F0F0038360136803F4E063C36018
:102CA00012684FF4E06303EAD202026142F20000CC
:102CB000C4F20200006800F00700086070470000DE
:102CC00040F2000041F20401C2F20000C4F202012D
:102CD0000068096848F69822C1F30221C0F6000294
:102CE000515CC8407047000040F2000041F204010E
:102CF000C2F20000C4F202010068096848F6982296
:102D0000C1F3C221C0F60002515CC8407047000008
:102D10002DE9F04182B0002800F0D7800446007809
:102D200041F20006C007C4F2020644D0706800F009
:102D30000C00042817D0706800F00C00082802D19D
:102D40007068C0030FD465682DB1B5F5A02F10D001
:102D5000B5F5803F11D0306820F4803030603068A5
:102D600020F480200CE03068800324D5606810BB1C
:102D7000ABE0306840F480203060306840F4803050
:102D80003060FEF78DFB002D054611D030688003C2
:102D900011D4FEF785FB401B6428F7D916E100BF6C
:102DA000FEF77EFB401B64284FF0030000F28A8090
:102DB00030688003F4D42078800718D5706810F04C
:102DC0000C0F07D0706800F00C00082827D170683D
:102DD000C00324D43068800702D52069012874D14B
:102DE0003068616920F0F80040EAC1003060207866
:102DF00000074FD5A06940B30020C4F24220012152
:102E0000C0F88014FEF74CFB054600BF706A8007CF
:102E10002DD4FEF745FB401B0228F7D9D6E02069E8
:102E2000002840F20000C4F2422000F0A6800121F8
:102E30000160FEF735FB054630688007D0D4FEF709
:102E40002FFB401B0228F7D9C0E00020C4F242202B
:102E50000021C0F88014FEF723FB0546706A800746
:102E600018D5FEF71DFB401B0228F7D9AEE040F253
:102E70000000C2F20000006844F6D351C1F26201C2
:102E8000A0FB0101480A019000BF0198411E0028E3
:102E90000191F9D1207840071BD4E5698DB17068A4
:102EA00000F00C00082846D1012D0ED07068216A70
:102EB00000F480328A4208D1616A00F470108842BE
:102EC00003D1002002B0BDE8F081012002B0BDE8CE
:102ED000F081F06910F0805808D1F06940F080501E
:102EE000F061F06900F080500090009847F2000710
:102EF000C4F200073868C0050FD4386840F4807009
:102F00003860FEF7CDFA05463868C00505D4FEF7EF
:102F1000C7FA401B6428F7D958E0E5681DB1052DB4
:102F20003CD0012D3ED0306A20F001003062306A82
:102F300020F0040039E00027C4F242270020386660
:102F4000FEF7AEFA022D05460CD100BF30688001B5
:102F500054D5FEF7A5FA401B02284FF00300F5D91F
:102F6000B0E700BF30688001ABD5FEF799FA401B8F
:102F700002284FF00300F5D9A4E700210160FEF715
:102F80008FFA0546306880077FF531AFFEF788FA83
:102F9000401B02284FF00300F4D993E7306A40F059
:102FA00004003062306A40F001003062FEF778FAC7
:102FB000002D054641F2883714D000BF306A8007E3
:102FC00013D4FEF76DFA401BB842F7D9032002B0C4
:102FD000BDE8F081FEF764FA401BB8424FF00300F1
:102FE0003FF670AF306A8007F4D4B8F1000F7FF479
:102FF00054AFF06920F08050F0614EE7206AB0F5E0
:10300000803F05D17168A26821F4003111437160DD
:103010007168626A21F474111143084370600120E1
:103020003866FEF73DFA0446306880013FF549AF47
:10303000FEF736FA001B02284FF00300F4D941E7EF
:10304000704700007047000010B504460068016832
:10305000C9071CBF41685FEAC17100D110BD40685B
:10306000400704D42046FFF7EBFF012007E020468D
:10307000FFF7E8FF20686FF00401416004206074EE
:103080002068416821F00101416010BD70B5F0B1C8
:103090000446007C01284FF0020008BF70BD0121EA
:1030A000217460742068016821F002010160FEF75C
:1030B000F7F905462068416811F0200609D1FEF7AE
:1030C000EFF9401BB0F57A7FF4D93EB92AE0012030
:1030D00070BD416841F0100141601EB32068416835
:1030E00021F0020141604FF6FF710162416240F23E
:1030F0000041C4F201010A6822F400320A6041680A
:1031000021F010014160FEF7CBF9054620684068C8
:1031100010F0200609D1FEF7C3F9401BB0F57A7F05
:10312000F4D916B90120042101E0002001216174C5
:103130000021217470BD000070B582B006460020E9
:103140008DF80600ADF80400002E4FF001004CD0C1
:103150000C46002949D0154601A93046002200F04E
:1031600049F810B1012002B070BD337B717BB07B98
:10317000F27B2370E2706170A070C5B3A2F10A0304
:10318000DEB24FF0CD0C06FB0CF6F50A05EB85051B
:10319000A3EB4503012505EBD626092A88BF43EAA0
:1031A0000612E270A1F10A02D3B203FB0CF3DE0AAD
:1031B00006EB8606A2EB460205EBD323092988BF5E
:1031C00042EA03116170A0F10A01CAB202FB0CF2DB
:1031D000D30A03EB8303A1EB430105EBD2220928B9
:1031E00088BF41EA0210A070002002B070BD00202C
:1031F00002B070BD2DE9F047064600284FF00100EF
:1032000000F09E800C46002908BFBDE8F0873068BA
:103210004168490757D492468269C169836983EA44
:1032200002073F041CBFC1691A4689B241EA024144
:103230004BF2C532C9F2A212A1FB0223DA0A4FF403
:10324000616302FB131348F68907C8F68807A3FBDE
:1032500007756F0967703F01A7EB5517A3EB87034D
:1032600045F28017C0F20107B942A3702ED344F291
:103270000753CCF22E23A1FB03374AF6AB23CAF641
:10328000AA23A2FB03352B0903EB4303A2EBC302E2
:103290002270026A406A4FEA174880B240EA024050
:1032A000471A98BF4FF0FF37421C4AF68062CFF6AC
:1032B000FE7208FB021908BF07463046494602F075
:1032C000E3FB00283ED00120BDE8F0872270BAF170
:1032D000000F52D02178CD26A1F10A03DFB2774347
:1032E000FD0A05EB85056278A3EB45030125A0786F
:1032F00005EBD727092988BF43EA07112170A2F1FE
:103300000A01CBB27343DF0A07EB8707A1EB470142
:1033100005EBD323092A88BF41EA0312A0F10A0171
:103320006270CAB27243D30A03EB8303A1EB430179
:1033300005EBD222092888BF41EA0210A0700020C4
:10334000BDE8F087781C0AD007EB0901304602F08F
:1033500061FB00281CBF0120BDE8F08706E0304675
:103360004FF0FF3102F056FB0028ACD13046414609
:1033700002F068FABAF1000FACD10020BDE8F08786
:1033800070B570B30446407C20B9002020742046FC
:1033900000F074F8022060742068416821F0080190
:1033A0004160FEF77DF805462068406810F0080689
:1033B00007D1FEF775F8401BB0F57A7FF4D9002EDF
:1033C0004CD0FEF76DF805462068416811F02006E4
:1033D00009D1FEF765F8401BB0F57A7FF4D93EB904
:1033E0003CE0012070BD416841F010014160AEB386
:1033F0002268A068536846F62C41C4F2000123F00D
:103400000703536018B14A6822F001024A600A6853
:1034100022F46072104308606068411C05D10120ED
:103420000125FFF74FFA30B301382168C0F303429A
:1034300080B28A60C860486820F010004860FEF7DB
:103440002FF805462068406810F0200609D1FEF7E5
:1034500027F8401BB0F57A7FF4D916B9012504206E
:1034600006E040F201100025A4F80D000120E573EC
:103470006074284670BD0420FAE7000080B584B06F
:1034800003900398006842F60001C4F200018842EC
:1034900021D1FFE7FFF710FAFFE741F21C00C4F269
:1034A0000200016841F000610160006800F0006006
:1034B00002900298FFE740F23C41C4F24221012011
:1034C00008600320019005210022FFF7B9F9019857
:1034D000FFF7A6F9FFE704B080BD000070B582B029
:1034E000044600208DF80600ADF804004FF00100FE
:1034F0009CB10D4689B1207C01284FF002000CD010
:10350000012116462174607401A920460022FFF7AC
:1035100071FE00284FF0010001D002B070BD9DF88F
:1035200004009DF805204FF461619DF80630484382
:10353000C2EB021200EB82002A781844F6B113099C
:1035400003EB830302F00F0202EB4302D2B25143BA
:103550006A78AB78160906EB860602F00F0202EBDA
:103560004602D2B2C2EB021201EB82011A0902EB4F
:10357000820203F00F0303EB420206E06B78514333
:10358000AA78C3EB031301EB8301D2B21144814249
:10359000204601F5803238BF02F5A34102F03AFA25
:1035A00010B10120042116E02068416821F00201D9
:1035B0004160016841F00201016040F20040C4F244
:1035C0000100016841F400310160816841F400317B
:1035D00081600020012161740021217402B070BD5E
:1035E0002DE9F04381B0044600284FF0010018BFD8
:1035F000002902D101B0BDE8F083207C01284FF002
:103600000200F7D0012323746074C878CAB102099C
:1036100002EB820200F00F0000EB4200E0734878FA
:103620008A78030903EB830300F00F0000EB4300EB
:103630006073100900EB800002F00F0202EB400EF5
:1036400004E04A7891F802E0E0736273E27B48F2AA
:103650001F5C02F2CF75C5F2EB1C637BA5FB0C0867
:103660001720032B03FB00F048F63963C3F6E3038E
:10367000A0FB03094FF0050740F2D27328BF02F503
:10368000FA6538BF4FEAD81738BF40F2D4731A44EE
:10369000A5FB0C0602EB9502A2EB56125FFA8EF028
:1036A0003A44104444F6251200EB5900C2F292420B
:1036B000A0FB0223C21A03EB52029208A2EBC20241
:1036C0001044226884F80EE0207308709169D06974
:1036D000936983EA01073F041CBFD069194680B291
:1036E00040EA014045F69071C0F20101884224D3BE
:1036F00044F20751CCF22E21A0FB0112110C40F232
:10370000A3225143A0EBC1152046294602F0BCF983
:1037100010B10120042112E02068016A406A80B2E1
:1037200040EA0140A84208D200F5803000F5A341EC
:10373000204602F06FF90028EBD1002001216174CE
:103740000021217401B0BDE8F0830000B0B504464B
:1037500000284FF0010018BF002900D1B0BD207C27
:1037600001284FF0020008BFB0BD0123237460742C
:10377000087802B3020902EB820200F00F0000EBAE
:103780004200C0B24FF4616250434A78897813090D
:1037900003EB830302F00F0202EB4302D2B2C2EB4F
:1037A000021200EB82000A0902EB820201F00F0113
:1037B00001EB420108E04FF4616250434A78897896
:1037C000C2EB021200EB8200C9B24518204629461E
:1037D00002F05AF910B10120042116E02068416876
:1037E00021F005014160016A406A80B240EA01406F
:1037F000A84208D200F5803000F5A341204602F02F
:1038000009F90028E7D10020012161740021217409
:10381000B0BD00007047000070470000B0B590F8E0
:103820003C20012A04BF0220B0BD01F108053CCDB7
:10383000D1E900CE23F47C5322F470521A432EF4C3
:10384000F0431A432CF4E0431A4324F4C0431A43D0
:103850002A43C96922F48042036811435964002154
:1038600080F83C100846B0BD10B590F83C20012A05
:103870004FF0020231D0012380F83C3080F83D2027
:103880000268D2F804E0D2F808C00C682EF0700389
:10389000234340F2FF74C4F20004A242536005DCEB
:1038A000B2F1804F0ED040F2004307E042F60043F1
:1038B000C4F201039A4205D040F60003C4F20003AB
:1038C0009A4204D149682CF0800319439160012188
:1038D000002280F83D1080F83C20104610BD00000A
:1038E000002804BF0120704710B5044690F83D0041
:1038F00028B9002084F83C00204600F05DF8022042
:1039000084F83D00206840F2FF730268C4F20003AF
:1039100042F6004C9842C4F2010C05DCB0F1804F35
:103920000AD040F2004103E0604505D040F60001B6
:10393000C4F20001884203D1A16822F070020A4358
:10394000984205DCB0F1804F0AD040F2004103E01C
:10395000604505D040F60001C4F20001884203D161
:10396000216922F440720A43A36922F08001D4F84D
:1039700004E0E268194360450160C262C0F828E0D3
:1039800002D16169CCF8301001214161002084F836
:10399000461084F83E1084F83F1084F8401084F8F4
:1039A000411084F8421084F8431084F8441084F8DD
:1039B000451084F83D1010BD7047000090F83D1090
:1039C00001291CBF01207047022180F83D100068CA
:1039D00040F2FF72C168C4F20002904241F001015E
:1039E000C16005DCB0F1804F0ED040F2004107E02D
:1039F00042F60041C4F20101884205D040F60001C0
:103A0000C4F20001884206D1816801F0070106294D
:103A100004BF00207047016841F0010101600020EF
:103A20007047000070470000F0B590F83C30012B63
:103A300004BF0220F0BD4FEAB2020123032A80F83E
:103A40003C3000F2A080DFE802F0021B3B59036823
:103A5000D1E900C5D1F80CE01C6A1A6A40F2FF7780
:103A600022F001021A621A4652F8186FC4F20007D7
:103A7000BB4267DCB3F1804F70D040F2004769E091
:103A80000368D1E900E6D1E902C11C6A1A6A36026C
:103A900022F010021A621A4652F8185F4FF2FF071E
:103AA000BE4325F4734561F30F3624F0A0040EF0F5
:103AB0000A0746EA050144EA071711601F623AE067
:103AC0000768D1E900C5D1E902313C6A3A6A61F37D
:103AD000071522F480723A623A4652F81C6F26F0BB
:103AE000F30645EA06014FEA5C0666F349241160D5
:103AF0003C62116821F00C01116040E00368D1E9DB
:103B000000E6D1E902C11C6A1A6A360222F4805228
:103B10001A621A4652F81C5F4FF2FF07BE4325F4A3
:103B2000734561F30F364FEA5E0746EA050167F316
:103B30004D3411601C6211684FEA0C2321F440617E
:103B400011601CE042F60047C4F20107BB4205D0F9
:103B500040F60007C4F20007BB4219D126F0030665
:103B6000354324F00A070CF00A066EF307153744B4
:103B70009D611F629F6927F00C079F618B68116828
:103B8000194300231160002180F83C101846F0BD55
:103B900046F00105E5E70000002804BF012070475A
:103BA00010B5044690F83D0028B9002084F83C0088
:103BB000204600F05DF8022084F83D00206840F2C5
:103BC000FF730268C4F2000342F6004C9842C4F24C
:103BD000010C05DCB0F1804F0AD040F2004103E057
:103BE000604505D040F60001C4F20001884203D1CF
:103BF000A16822F070020A43984205DCB0F1804FC0
:103C00000AD040F2004103E0604505D040F60001D3
:103C1000C4F20001884203D1216922F440720A43B0
:103C2000A36922F08001D4F804E0E26819436045FA
:103C30000160C262C0F828E002D16169CCF830109E
:103C400001214161002084F8461084F83E1084F878
:103C50003F1084F8401084F8411084F8421084F832
:103C6000431084F8441084F8451084F83D1010BDCA
:103C700080B588B0079000200690059004900390CE
:103C800007980068B0F1804F41D1FFE7FFE741F2AC
:103C90001C00C4F20200016841F0010101600068EB
:103CA00000F0010002900298FFE7FFE741F21800E0
:103CB000C4F20200016841F004010160006800F0F4
:103CC000040001900198FFE74FF4004003900020AA
:103CD0000490059040F60000C4F2010003A9FDF72E
:103CE000D1FAFFE70421C4F20101086800900098AE
:103CF00020F440700090009840F0E0600090009840
:103D000040F48070009000980860FFE7FFE708B07B
:103D100080BD000010B5044600680169890744BFF2
:103D2000C1685FEA81713FD420680169490744BFD7
:103D3000C1685FEA417143D420680169090744BF43
:103D4000C1685FEA017148D420680169C90644BFAF
:103D5000C1685FEAC1614CD420680169C9071CBF12
:103D6000C1685FEAC17151D120680169090644BF89
:103D7000C1685FEA016150D420680169490644BF07
:103D8000C1685FEA41614FD421680869800646BF77
:103D9000C8685FEA806010BD6FF0200220460A61AB
:103DA000BDE81040FFF738BD6FF00201016101214D
:103DB0002177806980073ED02046FFF733FE40E040
:103DC0006FF00401016102212177806910F4407FC6
:103DD0003AD02046FFF726FE3CE06FF00801016173
:103DE00004212177C069800737D02046FFF71AFEEB
:103DF00039E06FF01001016108212177C06910F4EA
:103E0000407F33D02046FFF70DFE35E06FF0010113
:103E10000161204600F090F9A6E76FF08001016192
:103E20002046FFF7F7FCA7E76FF04001016120464D
:103E300000F094F9A8E7204600F0F0F8204600F0E2
:103E400079F9002020776FE7204600F0E7F8204658
:103E500000F070F9002020776EE7204600F0DEF8D1
:103E6000204600F067F9002020776DE7204600F03B
:103E7000D5F8204600F05EF9002020776CE70000BE
:103E8000F0B590F83C30012B04BF0220F0BD4FEAA2
:103E9000B2020123032A80F83C3000F2B980DFE847
:103EA00002F002316292026842F60044136A156A17
:103EB000C4F2010425F001051562D2F804E0D2F83D
:103EC00018C08D6823F00203A24243EA050305D11E
:103ED000CD6823F00C0325F004052B430D68A242A6
:103EE00007D1D1E905462EF4407E44EA0E0444EAA7
:103EF000060E2CF073062E43C2F804E09661496862
:103F0000516383E0026842F60044136A166AC4F201
:103F1000010426F010061662D2F804E0D2F818C0A8
:103F20008D6823F02003A24243EA051307D1CD6830
:103F30006FF0400623F0C00306EA05152B430D6819
:103F4000A24206D1D1E905762EF44064374344EA13
:103F5000870E2CF4E64747EA0527C2F804E097618C
:103F60004968916352E0026842F60044136A176A96
:103F7000C4F2010427F480771762D2F804E0D2F883
:103F80001CC08D6823F40073A24243EA052307D1C5
:103F9000CD6840F2FF462D0223F44063B5432B4326
:103FA0000D68A24206D1D1E905462EF440572643BA
:103FB00047EA061E2CF073072F43C2F804E0D761CE
:103FC0004968D16322E0026842F60046D2F820C078
:103FD000136AC4F2010623F4805313625368D46950
:103FE0000D68D1F808E0B24204D14E6923F4804351
:103FF00043EA861324F4E64646EA05265360D66172
:104000002CF40057496847EA0E3311641362002309
:10401000002180F83C101846F0BD000070470000F9
:10402000002804BF0120704710B5044690F83D00F9
:1040300028B9002084F83C00204600F05DF80220FA
:1040400084F83D00206840F2FF730268C4F2000368
:1040500042F6004C9842C4F2010C05DCB0F1804FEE
:104060000AD040F2004103E0604505D040F600016F
:10407000C4F20001884203D1A16822F070020A4311
:10408000984205DCB0F1804F0AD040F2004103E0D5
:10409000604505D040F60001C4F20001884203D11A
:1040A000216922F440720A43A36922F08001D4F806
:1040B00004E0E268194360450160C262C0F828E08C
:1040C00002D16169CCF8301001214161002084F8EF
:1040D000461084F83E1084F83F1084F8401084F8AD
:1040E000411084F8421084F8431084F8441084F896
:1040F000451084F83D1010BD82B001900198006811
:1041000042F60041C4F20101884210D1FFE7FFE707
:1041100041F21800C4F20200016841F4006101603C
:10412000006800F4006000900098FFE7FFE702B02D
:10413000704700007047000080B582B00190019880
:10414000006840F20041C4F20001884203D1FFE759
:10415000FEF77EFAFFE702B080BD00007047000066
:104160007047000070470000B0B582B00446006898
:104170000168C368426901F02F05202D03F0200576
:1041800006D12DB1204602B0BDE8B04001F072BEAC
:104190005FEA017C1EBF02F0010E03F4907212EB85
:1041A0000E0253D1226B012A05D111F0100218BF63
:1041B00013F0100236D10A0622D513F080021FD068
:1041C00094F8411021293FD1A168B1F5805F03D156
:1041D0002169002900F04581216A4A1C2262097880
:1041E0004160E18C01390A04E1842DD1C16821F0DC
:1041F0008001C160C16841F04001C16002B0B0BD42
:10420000490621D513F040011ED0C16821F04001BC
:10421000C1602021204684F8411002B0BDE8B040C2
:1042200000F068BB00210191016801914168019192
:1042300001994069400611D4A08DE18DE28D002ADC
:1042400018BF884240F0DF8002B0B0BDC80718BF79
:1042500013F4807049D148074DD453E0E06B0168F6
:1042600049688AB2002AEFD0A38D9A42ECD2E18548
:104270008069202831D000BF206850E8030F2168F2
:1042800020F4807041E80302002AF5D1206850E84C
:10429000050F216820F0010041E80502002AF5D150
:1042A000206850E8050F216820F0400041E8050231
:1042B000002AF5D1202084F842000020206300BFAE
:1042C000206850E8030F216820F0100041E8030245
:1042D000002AF5D1E06BFCF701FD02206063A08DA0
:1042E000E18D401A81B22046B6E0606C40F00100DA
:1042F0006064480706D5BEF1000F03D0606C40F043
:1043000002006064880706D5BEF1000F03D0606C20
:1043100040F004006064BCF1000F09D545EA0E00CE
:10432000B0FA80F0400903D1606C40F0080060648E
:10433000606C00283FF488AF11F0200018BF002DFA
:1043400002D0204601F096FD20684069616C00F0C3
:10435000400001F00801401848D000BF206850E834
:10436000030F216820F4907041E80302002AF5D180
:10437000206850E8050F216820F0010041E805029F
:10438000002AF5D1206B01280AD100BF206850E82F
:10439000030F216820F0100041E80302002AF5D144
:1043A000202084F8420000202063206840694006F5
:1043B00023D500BF206850E8050F216820F0400099
:1043C00041E80502002AF5D1E06BB0B145F67D5118
:1043D000C0F600014163FCF7A1FC00283FF434AFB4
:1043E000E06B416B02B0BDE8B04008472046FFF7E4
:1043F000B9FE0020606402B0B0BD204602B0BDE846
:10440000B040FFF7AFBE401A216851E8031F226891
:1044100021F4907142E80313002BF5D1216851E893
:10442000051F226821F0010142E80513002BF5D198
:10443000202184F842100021216300BF216851E847
:10444000031F226821F0100142E80313002BF5D16D
:10445000022281B22046626302B0BDE8B040FFF79D
:104460007FBE216A31F8022B6FF35F224260216226
:10447000B7E60000002804BF0120704710B50446CD
:1044800090F8410028B9002084F84000204600F050
:1044900061F8242084F841002068D4E90212C3683E
:1044A00023F40053C360036923F440531A430261A9
:1044B000D4E904231143C268194341F20C639A43BF
:1044C0001143C1604169A26921F44071114343F66F
:1044D0000002C4F201029042416102D0FEF7F0FBFB
:1044E00001E0FEF701FC6268192148439100B0FB2E
:1044F000F1F048F21F51C5F2EB11A0FB01235A095C
:104500004FF69C73C0F6FF7302FB0300322303EBEC
:104510000010A0FB0101F02303EA5113206803EB14
:104520000212C1F3431111448160016921F49041E9
:104530000161416921F02A014161C16841F40051E2
:10454000C16000202021606484F8411084F842108A
:10455000606310BD80B590B00F9000200E900D905C
:104560000C900B900F98006843F60001C4F2010113
:1045700088422DD1FFE7FFE741F21800C4F20200A4
:10458000016841F480410160006800F480400A90B5
:104590000A98FFE7FFE741F21800C4F20200016841
:1045A00041F004010160006800F0040009900998DE
:1045B000FFE74FF400700B9012200C9003200E9038
:1045C00040F60000C4F201000BA9FCF75BFE94E08A
:1045D0000F98006844F60001C4F20001884240F0E0
:1045E0008B80FFE7FFE741F21C00C4F20200016884
:1045F00041F480210160006800F480200890089850
:10460000FFE7FFE741F21800C4F20200016841F041
:1046100008010160006800F0080007900798FFE7B4
:104620004FF480600B9002200C9003200E9040F617
:104630000040C4F2010003900BA90491FCF722FE94
:10464000039804994FF400620B92002205920C9299
:104650000D92FCF717FE059940F6E800C2F2000043
:1046600006901C22C4F202020260102242608160A5
:104670008022C260016141618161C161FCF792FCED
:1046800018B1FFE7FBF794FFFFE7FFE70F9840F64D
:10469000E801C2F2000181630F984862FFE740F62B
:1046A000A400C2F2000002903021C4F202010160B5
:1046B0000021416081608022C260016141618161AD
:1046C000C161FCF76FFC18B1FFE7FBF771FFFFE773
:1046D000FFE70F9840F6A401C2F20001C1630F98F2
:1046E0004862FFE72720019005210022FEF7A8F885
:1046F0000198FEF795F8FFE7FFE710B080BD0000D6
:1047000081B0009041F2F021C2F200010120087056
:1047100001B070472DE9F04381B0044690F84100A4
:1047200020281DD10D4600294FF0010000F0A18086
:104730001646002A00F09D800020606421209846E3
:1047400084F84100FCF7ACFEA684E684A1688146AB
:10475000B1F5805F01D1206930B12F46002504E01A
:10476000022001B0BDE8F0830027E08C002842D091
:1047700008F101060AE000BF97B117F8010B2168A4
:104780004860E08C0138E084E08CA0B320680068C9
:104790000006F1D4BEB1B8F1000F0ED116E000BF93
:1047A00035F8020B21686FF35F2048600027E8E7C7
:1047B00001680906E0D4002EFAD0FCF771FEA0EBE8
:1047C0000900404502D82068F2E700BF206850E8A1
:1047D000030F216820F4D07041E80302002AF5D1CC
:1047E000206850E8050F216820F0010041E805022B
:1047F000002AF5D10AE020680068400635D4B8F1F7
:10480000000F1DD018F101050CD012E0202084F813
:10481000410084F84200002084F84000032001B0E9
:10482000BDE8F083206800BF016849061DD4002D53
:10483000FAD0FCF735FEA0EB09004045F2D900BFE5
:10484000206850E8030F216820F4D07041E803028B
:10485000002AF5D1206850E8050F216820F00100FA
:1048600041E80502002AF5D1D0E7202084F8410074
:10487000002001B0BDE8F08370B5044690F8410017
:1048800020281CBF022070BD4FF0010089B3002A10
:10489000134608BF70BD4FF0000C21202162A38495
:1048A000E384C4F844C084F841002268A06B45F654
:1048B0002D6E45F66D6545F68956C0F6000EC0F6BC
:1048C0000005C0F600060432C0E90AE5C0E90C6C38
:1048D000FCF7ACFB20686FF040010160206850E8F5
:1048E000050F216840F0800041E80502002AF5D15B
:1048F000002070BD81B0009041F2F021C2F20001B1
:104900000120087001B0704770470000FFE7FEE724
:1049100080B540F62C10C2F20000FCF75BFE80BDB3
:1049200080B540F62C10C2F20000FCF7F5FE80BD09
:1049300010B581B000210091406A40F20001C2F23E
:10494000000190F83DC009684BF28952C908C1F2D4
:10495000F842A1FB0212110A23225143009100BF29
:10496000009939B1009901390091016809688905F8
:10497000F6D403E0016C41F020010164446B4FF078
:10498000000E002C1CBF0021A162816B00291CBFFE
:1049900000228A620268002C136823F4806313608B
:1049A000A0F82AE018BFC4F834E000291CBF002397
:1049B0004B63116821F00101116090F83D106029EE
:1049C0000BD1202180F83D10002180F83E100164B9
:1049D00001B0BDE81040FCF7DDBD0CF0280128292E
:1049E0000DD1116841F001011160116841F480613D
:1049F000116000210163282180F83D1005E020218D
:104A000080F83D10002180F83E1001B0BDE8104054
:104A1000FDF788B9406A416B00291CBF00228A62F9
:104A2000816B00291CBF00228A6201680A6822F497
:104A300080620A6000212022418580F83D2080F8B4
:104A40003E10016C41F010010164FDF76BB90000EC
:104A500010B5446A94F83D2094F83EE0D4F82CC098
:104A60002068616B4368002923F4407343601CBFD6
:104A700000238B62A16B00291CBF00238B6202F014
:104A80002101212920D002F02201222908BFBEF1F4
:104A9000200F19D094F83E10002908BF10BD618D79
:104AA000012903D1016821F4806101604168BCF1F2
:104AB000070F21F44071416028DCBCF12A4F2BD054
:104AC0001CF5803F28D02BE041682A2A21F40061A0
:104AD00041604FF0000060850AD0292A10D12120C2
:104AE0002063282084F83D002046FDF7AFFD07E055
:104AF00022202063282084F83D002046FDF7A4FDF5
:104B00002068416841F44071416010BDBCF1200F44
:104B100002D0BCF1080F03D1016841F400710160BB
:104B2000416821F480514160416821F40061416095
:104B300000206085216C21B12046BDE81040FDF7C2
:104B4000F1B8202184F83D1094F83E1084F83E001E
:104B5000402906D1002120462163BDE81040FDF721
:104B6000A1BC122120462163BDE81040FDF718BB0F
:104B700010B5044690F83D0094F83E10B1F11002D3
:104B800018BF0122403918BF01210A4208BF22285C
:104B900004D121680A6822F400620A6000F028014A
:104BA000282905D100202063282084F83D000DE04D
:104BB00021684968090507D4602805D0202084F8B9
:104BC0003D00002084F83E000020206320684168FA
:104BD00009051AD494F83D10602935D1202184F8B4
:104BE0003D10002121644169490605D50069616ACB
:104BF0000870606A013060622068016821F001017C
:104C000001602046FCF7C6FC3EE0416821F40061EB
:104C10004160606B90F82110012922D1A06B44F60D
:104C20003111C0F600014163FCF778F860B32068E9
:104C30004169490605D50069616A0870606A0130FA
:104C400060622168A06B16E04169490605D50069DC
:104C5000616A0870606A013060622046FDF762F8A0
:104C600012E044F63111C0F600014163FCF756F83A
:104C700050B12168606B0A6822F001020A602021AD
:104C800084F83D10416B8847206C000704D02068F1
:104C9000416821F4E061416094F83D00216C4907CE
:104CA00058BF10BD28280FD10020CFF6FF70E0625A
:104CB00000212020216384F83D00204684F83E1026
:104CC000BDE81040FDF76ABA10BD0000C16A428D10
:104CD000042A07D10168426A4B6823F480634B6061
:104CE000096911E0428D032A16D10268022953682E
:104CF00023F48063536005D0042903D0116821F4A4
:104D0000806111601169426A1170416A013141622A
:104D1000418D013941857047428D022A11D10139F7
:104D20000F2916D8DFE801F0081015101515151514
:104D3000151515151515150801680A6822F4806205
:104D40000BE00168426ACBE701680A6842F48062BE
:104D500003E001680A6842F400720A600168426A6E
:104D600009691170416A02684B1C4362438D013B23
:104D7000438512694A70416A026801314162418D7E
:104D800001394185516821F440715160202180F83A
:104D90003D1090F83E200021402A80F83E1002D1BC
:104DA0000163FDF77FBB12210163FDF7F9B9000034
:104DB00081B090F83D1022293DD1418D042913D3B3
:104DC0000168426A09691170416A01314162418D8D
:104DD00001394185418D03292DD10068416821F4B5
:104DE0008061416001B07047C26A022A1ED0012969
:104DF0001CD80021009140F20001C2F200010968B4
:104E00004BF28952C908C1F2F842A1FB0212110A01
:104E100001EB8101009100BF0099013900910099D7
:104E200059B1026812689205F6D40AE00068416838
:104E300021F48061416001B07047026C42F02002B1
:104E400002640268F1B1116821F480611160516857
:104E500021F4E06151601169426A1170416A0131C7
:104E60004162418D01394185202180F83D1090F843
:104E70003E200021402A80F83E1019D1016301B084
:104E8000FDF710BB516821F4E06151601169426A7D
:104E90001170416A01314162418D01394185202102
:104EA00080F83D10002180F83E1001B0FCF73ABFB9
:104EB0001221016301B0FDF773B90000C16A90F8D7
:104EC0003D20212A18BF7047428D4AB1416A0268CD
:104ED00011F8013B13614162418D013941857047F1
:104EE00011F5803F18BF082917D101684A6822F4DC
:104EF000E0624A600A6842F400720A6000212022DF
:104F0000016380F83D2090F83E2080F83E10402A52
:104F100008BFFDF7C9BAFDF755B92029E5D00168EA
:104F20004A6822F4E0624A6011210163002180F89E
:104F30003E10202180F83D10FDF744B990F83D1057
:104F400090F83EC0C26A038D002B08BF212919D0FA
:104F5000212905D0BCF1400F08BF222900D070479D
:104F6000418D61B390F83E10402908BF00F03EB873
:104F7000416A026811F8013B13614162418D0139B8
:104F80004185704712F5803F18BF082A1DD101687E
:104F90004A6822F4E0624A600A6842F400720A60D9
:104FA00000212022016380F83D2090F83E2080F807
:104FB0003E10402A08BFFDF777BAFDF703B9006835
:104FC000416821F4806141607047202ADFD0016888
:104FD0004A6822F4E0624A6011210163002180F8EE
:104FE0003E10202180F83D10FDF7ECB890F83D1000
:104FF000026D3AB1026D012A0FD10168826CD2B202
:105000000A6119E0C26C816C012A11D10268C9B22F
:105010001161016D023101657047026D022A0FD1E5
:10502000222914D101680A6842F480720A6003E000
:105030000268C1F307211161016D013101657047FB
:1050400000684169090644BF002101617047428D33
:105050005AB1212909D1416A026811F8013B136153
:105060004162418D013941857047428D002A08BF58
:105070002129EBD101684A6822F4E0624A600A689B
:1050800042F400720A6000212022016380F83D2072
:1050900080F83E10FDF708BA80B584B00021039176
:1050A0000291019140F2A470C2F20000009042F21D
:1050B0000042C4F2010202604FF480728260012259
:1050C000027301754FF46022C26141600A210161DF
:1050D000FBF7E0FB18B1FFE7FBF76AFAFFE70020F8
:1050E0000190012002900220039040F2A470C2F2CD
:1050F000000001A9FBF7DAFA18B1FFE7FBF758FA4D
:10510000FFE7012001900220029040F2A470C2F259
:10511000000001A9FBF7CAFA18B1FFE7FBF748FA4C
:10512000FFE7022001900320029040F2A470C2F237
:10513000000001A9FBF7BAFA18B1FFE7FBF738FA4C
:10514000FFE7032001900420029040F2A470C2F215
:10515000000001A9FBF7AAFA18B1FFE7FBF728FA4C
:10516000FFE7042001900520029040F2A470C2F2F3
:10517000000001A9FBF79AFA18B1FFE7FBF718FA4C
:10518000FFE7052001900620029040F2A470C2F2D1
:10519000000001A9FBF78AFA18B1FFE7FBF708FA4C
:1051A000FFE7062001900720029040F2A470C2F2AF
:1051B000000001A9FBF77AFA18B1FFE7FBF7F8F94D
:1051C000FFE7072001900820029040F2A470C2F28D
:1051D000000001A9FBF76AFA18B1FFE7FBF7E8F94D
:1051E000FFE7082001900920029040F2A470C2F26B
:1051F000000001A9FBF75AFA18B1FFE7FBF7D8F94D
:10520000FFE7092001900A20029040F2A470C2F248
:10521000000001A9FBF74AFA18B1FFE7FBF7C8F94C
:10522000FFE704B080BD000080B588B0FFE741F221
:105230001400C4F20200016841F00101016000683D
:1052400000F0010007900798FFE70B200090052170
:10525000049100220592FDF7F3FA0098FDF7E0FAB9
:105260000499059A0C200190FDF7EAFA0198FDF7E0
:10527000D7FA0499059A0D200290FDF7E1FA0298F9
:10528000FDF7CEFA0499059A10200390FDF7D8FA9D
:105290000398FDF7C5FA0499059A11200690FDF7C9
:1052A000CFFA0698FDF7BCFA08B080BD80B584B08F
:1052B00040F2F140C0F6000048F62433C0F6000387
:1052C00001210022039201F053FA014640F6A83072
:1052D000C2F20000016000684FF47A7101F0A2FA96
:1052E00048F6E822C0F600021020022101F064F91D
:1052F000039940F6A032C2F20002106045F6253054
:10530000C0F6000048F6B422C0F6000201F0BAF977
:10531000039940F29C72C2F20002106045F61D40F3
:10532000C0F6000048F60032C0F6000201F0AAF90B
:1053300040F6A431C2F20001086040F68010C2F2CB
:10534000000000F031FB039B41F21C11C2F200018E
:10535000086041F2C420C2F20000036241F6F0711D
:10536000C2F2000168464160036046F63940C0F66B
:10537000000048F66531C0F60001C82202F0D0FFF7
:1053800048F6D820C0F6000001F0A8F840F69C319D
:10539000C2F20001086004B080BD000080B596B084
:1053A00000201590149013901290FFE741F218001E
:1053B000C4F20200016841F010010160006800F0D1
:1053C000100011901198FFE7FFE741F21800C4F2B6
:1053D0000200016841F020010160006800F0200037
:1053E00010901098FFE7FFE741F21800C4F20200A6
:1053F000016841F004010160006800F004000F90B2
:105400000F98FFE7FFE741F21800C4F202000168BD
:1054100041F008010160006800F008000E900E984D
:10542000FFE741F20000C4F2010002904FF4005186
:10543000019100220C92FCF72DF80C9A40F6000026
:10544000C4F2010003904FF4E0510491FCF722F8FC
:105450000C9A40F60040C4F2010007904FF49C7192
:105460000991FCF717F8019A02980C9912920122FF
:1054700005921392149102210691159112A9089197
:10548000FBF700FF059A079808994FF49053129381
:105490000023C1F2110313931492FBF7F3FE079854
:1054A00008990C9A4FF46043129313921492FBF7ED
:1054B000E9FE039808990C9A4FF4807312931392A3
:1054C0001492FBF7DFFE0398DDF814C0069A0899E2
:1054D0000C9BDDF810E0CDF848E0CDF84CC01493FB
:1054E0001592FBF7CFFEDDF814C0069A07980899CD
:1054F0000C9BDDF824E0CDF848E0CDF84CC01493C7
:105500001592FBF7BFFE0C9A17200A9005210B910C
:10551000FDF796F90A98FDF783F90B990C9A282064
:105520000D90FDF78DF90D98FDF77AF916B080BD55
:1055300080B582B040F62C10C2F20000019045F216
:105540000041C4F20001016041F68021C0F2060171
:10555000416000218160C1604FF48042026141617D
:105560008161C16180210162FCF7F0FB18B1FFE7A6
:10557000FBF71EF8FFE702B080BD00007047000097
:1055800080B582B000218DF80610ADF804100091AE
:1055900040F68010C2F2000042F60002C4F200029F
:1055A00002604FF0FF3242608160FDF7E9FE18B102
:1055B000FFE7FAF7FDFFFFE70F208DF804008DF8F5
:1055C000050000228DF8062040F68010C2F200008F
:1055D00001A9FEF7BBF818B1FFE7FAF7E9FFFFE70B
:1055E00004208DF8000002208DF801001D208DF8A8
:1055F000020018208DF8030040F68010C2F200006F
:1056000069460022FDF7ECFF18B1FFE7FAF7D0FF7B
:10561000FFE702B080BD000080B594B00021019189
:1056200013911291119110910F910E910D910C9176
:105630000B910A91099108910791069105910491A6
:10564000039140F69410C2F20000029042F600422C
:10565000C4F201020260416081604FF6FF72C260D5
:10566000016141618161FEF7DBFC18B1FFE7FAF7E8
:105670009FFFFFE700201290139040F69410C2F2B3
:10568000000012A9FEF7F0F818B1FFE7FAF790FF53
:10569000FFE7002200920B920C920D920E920F9255
:1056A0001092119240F69410C2F200000BA9FEF77E
:1056B000E7FB18B1FFE7FAF77BFFFFE70020039055
:1056C00004900590069007904FF4005108910A90BD
:1056D00040F69410C2F2000003A9FEF79FF818B13B
:1056E000FFE7FAF765FFFFE714B080BD80B588B02B
:1056F0000021019107910691059104910391029176
:1057000040F6DC10C2F200004FF0804202604160BF
:1057100081604FF6FF72C26001618161FEF73CFA61
:1057200018B1FFE7FAF744FFFFE700200690079063
:1057300040F6DC10C2F2000006A9FEF795F818B199
:10574000FFE7FAF735FFFFE70022029201200390FE
:105750000492059240F6DC10C2F2000002A9FEF7A6
:1057600063F918B1FFE7FAF723FFFFE708B080BD40
:1057700080B582B040F66C20C2F20000019043F682
:105780000001C4F2010101604FF4E13141600021E8
:105790008160C16001610C2242618161C161FBF7DE
:1057A00085FE18B1FFE7FAF703FFFFE702B080BDFF
:1057B00080B582B040F6B420C2F20000019044F6F9
:1057C0000001C4F2000101604FF4E13141600021A9
:1057D0008160C16001610C2242618161C161FEF79B
:1057E00049FE18B1FFE7FAF7E3FEFFE702B080BD1C
:1057F000FFE7FEE7FFE7FEE7000000000000000013
:10580000EFF30980BFF36F8F0D4B1A6820E9F00F9B
:1058100010602DE908404FF0500080F3118802F02D
:105820000BF94FF0000080F31188BDE808401968BB
:105830000868B0E8F00F80F30988BFF36F8F7047F6
:10584000A00C00202DE9F041467B877B90F80FC02B
:10585000002958D045F6294E45F628444DF20B78DC
:10586000012341F2AA52CCF28F2EC0F28F24C0F253
:10587000A30802E00137013945D00C2EFBD803FA0A
:1058800006F5154208D01E2FF4D90C2E09D10CF1C3
:10589000010C01260127EEE715F4256F04D01D2F1A
:1058A000E8D901360127E6E7022EE4D11B2F02D802
:1058B00001370226DFE71D2F06D01C2F07D15FEA34
:1058C0008C7506D0002614E001270326D3E70226B4
:1058D000D1E71FFA8CF505FB0EF64FEAB605A54297
:1058E00001D9012605E04FEA36150026454538BFA7
:1058F0000126002E4FF002064FF01D0708BF0326B9
:1059000008BF0127B7E7F1B2172248F639634A43C7
:10591000C3F6E303A2FB0323032948F21F510CF54E
:10592000FA62C5F2EB1138BF0CF2CF72A2FB01157F
:1059300040F2D27138BF40F2D471614401EB920160
:10594000A1EB5511FAB201EBD511114444F6251221
:1059500001EB5301C2F29242A1FB0223CA1A03EBEC
:1059600052029208A2EBC202114480F80FC04673A3
:1059700087730173BDE8F08180B582B040F6801076
:10598000C2F200000090FDF75FFB00980021FDF7D8
:105990007DFB41F6F070C2F20000006801A901F041
:1059A00047FF02B080BD000084B003900020ADF836
:1059B0000A00ADF80800ADF80600009003980068F2
:1059C0008069ADF80A0003980068C069ADF8060068
:1059D000039800688069ADF80800BDF80A00BDF8BA
:1059E000081088420AD0FFE7BDF808100398006845
:1059F000C06980B240EA0140009007E0BDF80A109B
:105A0000BDF8060040EA01400090FFE7009804B0AE
:105A100070470000F0B581B00D460446FBF740FD2D
:105A2000064600BF2068416811F0200709D1FBF746
:105A300037FD801BB0F57A7FF4D947B9012001B05A
:105A4000F0BD416841F010014160002FF6D02068A0
:105A5000290C0162A9B24162416821F01001416044
:105A6000FBF71EFD054600BF2068406810F02006C9
:105A700005D1FBF715FD401BB0F57A7FF4D9012065
:105A800080EA561001B0F0BDF0B581B00D46044675
:105A9000FBF706FD064600BF2068416811F02007AD
:105AA00009D1FBF7FDFC801BB0F57A7FF4D947B92B
:105AB000012001B0F0BD416841F010014160002FAC
:105AC000F6D02068290C8161A9B2C161416821F03A
:105AD00010014160FBF7E4FC054600BF2068406808
